{
	"data": {
		"bytecode": {
			"linkReferences": {},
			"object": "60806040526001600455600160055560006008553480156200002057600080fd5b5060405162004baa38038062004baa8339818101604052810190620000469190620003ec565b8181620000686200005c6200009c60201b60201c565b620000a460201b60201c565b816001908051906020019062000080929190620002a7565b5062000092816200016860201b60201c565b505050506200073f565b600033905090565b60008060009054906101000a900473ffffffffffffffffffffffffffffffffffffffff169050816000806101000a81548173ffffffffffffffffffffffffffffffffffffffff021916908373ffffffffffffffffffffffffffffffffffffffff1602179055508173ffffffffffffffffffffffffffffffffffffffff168173ffffffffffffffffffffffffffffffffffffffff167f8be0079c531659141344cd1fd0a4f28419497f9722a3daafe3b4186f6b6457e060405160405180910390a35050565b620001786200009c60201b60201c565b73ffffffffffffffffffffffffffffffffffffffff166200019e6200027e60201b60201c565b73ffffffffffffffffffffffffffffffffffffffff1614620001f7576040517f08c379a0000000000000000000000000000000000000000000000000000000008152600401620001ee90620004c2565b60405180910390fd5b600073ffffffffffffffffffffffffffffffffffffffff168173ffffffffffffffffffffffffffffffffffffffff1614156200026a576040517f08c379a00000000000000000000000000000000000000000000000000000000081526004016200026190620004a0565b60405180910390fd5b6200027b81620000a460201b60201c565b50565b60008060009054906101000a900473ffffffffffffffffffffffffffffffffffffffff16905090565b828054620002b590620005be565b90600052602060002090601f016020900481019282620002d9576000855562000325565b82601f10620002f457805160ff191683800117855562000325565b8280016001018555821562000325579182015b828111156200032457825182559160200191906001019062000307565b5b50905062000334919062000338565b5090565b5b808211156200035357600081600090555060010162000339565b5090565b60006200036e62000368846200050d565b620004e4565b9050828152602081018484840111156200038d576200038c6200068d565b5b6200039a84828562000588565b509392505050565b600081519050620003b38162000725565b92915050565b600082601f830112620003d157620003d062000688565b5b8151620003e384826020860162000357565b91505092915050565b6000806040838503121562000406576200040562000697565b5b600083015167ffffffffffffffff81111562000427576200042662000692565b5b6200043585828601620003b9565b92505060206200044885828601620003a2565b9150509250929050565b60006200046160268362000543565b91506200046e82620006ad565b604082019050919050565b60006200048860208362000543565b91506200049582620006fc565b602082019050919050565b60006020820190508181036000830152620004bb8162000452565b9050919050565b60006020820190508181036000830152620004dd8162000479565b9050919050565b6000620004f062000503565b9050620004fe8282620005f4565b919050565b6000604051905090565b600067ffffffffffffffff8211156200052b576200052a62000659565b5b62000536826200069c565b9050602081019050919050565b600082825260208201905092915050565b6000620005618262000568565b9050919050565b600073ffffffffffffffffffffffffffffffffffffffff82169050919050565b60005b83811015620005a85780820151818401526020810190506200058b565b83811115620005b8576000848401525b50505050565b60006002820490506001821680620005d757607f821691505b60208210811415620005ee57620005ed6200062a565b5b50919050565b620005ff826200069c565b810181811067ffffffffffffffff8211171562000621576200062062000659565b5b80604052505050565b7f4e487b7100000000000000000000000000000000000000000000000000000000600052602260045260246000fd5b7f4e487b7100000000000000000000000000000000000000000000000000000000600052604160045260246000fd5b600080fd5b600080fd5b600080fd5b600080fd5b6000601f19601f8301169050919050565b7f4f776e61626c653a206e6577206f776e657220697320746865207a65726f206160008201527f6464726573730000000000000000000000000000000000000000000000000000602082015250565b7f4f776e61626c653a2063616c6c6572206973206e6f7420746865206f776e6572600082015250565b620007308162000554565b81146200073c57600080fd5b50565b61445b806200074f6000396000f3fe60806040523480156200001157600080fd5b5060043610620001245760003560e01c806396ce079511620000b1578063c09db123116200007b578063c09db123146200030d578063c50313311462000343578063cc92d31c1462000365578063ce5f9454146200039b578063f2fde38b14620003bd5762000124565b806396ce0795146200025f578063a56fd1521462000281578063ba308cc414620002b7578063be25a62c14620002d75762000124565b8063715018a611620000f3578063715018a614620001d9578063717d63a414620001e5578063799a3f88146200021b5780638da5cb5b146200023d5762000124565b806306fdde0314620001295780633d4bc4ba146200014b578063468d16d0146200016d5780634c1fd3cd14620001a3575b600080fd5b62000133620003dd565b60405162000142919062001927565b60405180910390f35b6200015562000477565b60405162000164919062001a7d565b60405180910390f35b6200018b6004803603810190620001859190620014ff565b6200047d565b6040516200019a919062001812565b60405180910390f35b620001c16004803603810190620001bb9190620014ff565b620004b0565b604051620001d091906200190a565b60405180910390f35b620001e3620004d0565b005b620002036004803603810190620001fd9190620014ff565b62000561565b60405162000212919062001812565b60405180910390f35b62000225620005a1565b60405162000234919062001a7d565b60405180910390f35b62000247620005ab565b60405162000256919062001812565b60405180910390f35b62000269620005d4565b60405162000278919062001a7d565b60405180910390f35b6200029f6004803603810190620002999190620013a7565b620005da565b604051620002ae9190620018e6565b60405180910390f35b620002d56004803603810190620002cf919062001452565b62000673565b005b620002f56004803603810190620002ef9190620014ff565b62000840565b60405162000304919062001812565b60405180910390f35b6200032b6004803603810190620003259190620014b8565b620008fe565b6040516200033a919062001a7d565b60405180910390f35b6200034d62000bad565b6040516200035c91906200190a565b60405180910390f35b6200038360048036038101906200037d91906200140b565b62000bcc565b60405162000392919062001812565b60405180910390f35b620003a562000c65565b604051620003b4919062001a7d565b60405180910390f35b620003db6004803603810190620003d59190620013a7565b62000c6b565b005b606060018054620003ee9062001c31565b80601f01602080910402602001604051908101604052809291908181526020018280546200041c9062001c31565b80156200046d5780601f1062000441576101008083540402835291602001916200046d565b820191906000526020600020905b8154815290600101906020018083116200044f57829003601f168201915b5050505050905090565b60025481565b60096020528060005260406000206000915054906101000a900473ffffffffffffffffffffffffffffffffffffffff1681565b60076020528060005260406000206000915054906101000a900460ff1681565b620004da62000d6f565b73ffffffffffffffffffffffffffffffffffffffff16620004fa620005ab565b73ffffffffffffffffffffffffffffffffffffffff161462000553576040517f08c379a00000000000000000000000000000000000000000000000000000000081526004016200054a9062001a17565b60405180910390fd5b6200055f600062000d77565b565b600381815481106200057257600080fd5b906000526020600020016000915054906101000a900473ffffffffffffffffffffffffffffffffffffffff1681565b6000600854905090565b60008060009054906101000a900473ffffffffffffffffffffffffffffffffffffffff16905090565b60055481565b6060600660008373ffffffffffffffffffffffffffffffffffffffff1673ffffffffffffffffffffffffffffffffffffffff1681526020019081526020016000208054806020026020016040519081016040528092919081815260200182805480156200066757602002820191906000526020600020905b81548152602001906001019080831162000652575b50505050509050919050565b6200067d62000d6f565b73ffffffffffffffffffffffffffffffffffffffff166200069d620005ab565b73ffffffffffffffffffffffffffffffffffffffff1614620006f6576040517f08c379a0000000000000000000000000000000000000000000000000000000008152600401620006ed9062001a17565b60405180910390fd5b60038054905081111562000741576040517f08c379a000000000000000000000000000000000000000000000000000000000815260040162000738906200194b565b60405180910390fd5b816003908051906020019062000759929190620011e1565b508060048190555060038054905060058190555060005b6003805490508110156200083b57600660006003838154811062000799576200079862001d7b565b5b9060005260206000200160009054906101000a900473ffffffffffffffffffffffffffffffffffffffff1673ffffffffffffffffffffffffffffffffffffffff1673ffffffffffffffffffffffffffffffffffffffff1681526020019081526020016000208190806001815401808255809150506001900390600052602060002001600090919091909150558080620008329062001c9d565b91505062000770565b505050565b60006009600083815260200190815260200160002060009054906101000a900473ffffffffffffffffffffffffffffffffffffffff1673ffffffffffffffffffffffffffffffffffffffff1663f7260d3e6040518163ffffffff1660e01b815260040160206040518083038186803b158015620008bc57600080fd5b505afa158015620008d1573d6000803e3d6000fd5b505050506040513d601f19601f82011682018060405250810190620008f79190620013d9565b9050919050565b60003373ffffffffffffffffffffffffffffffffffffffff16600383815481106200092e576200092d62001d7b565b5b9060005260206000200160009054906101000a900473ffffffffffffffffffffffffffffffffffffffff1673ffffffffffffffffffffffffffffffffffffffff1614620009b2576040517f08c379a0000000000000000000000000000000000000000000000000000000008152600401620009a990620019d3565b60405180910390fd5b821562000ab0576007600083815260200190815260200160002060009054906101000a900460ff1615620009e65762000aaa565b60026000815480929190620009fb9062001c9d565b919050555060016007600084815260200190815260200160002060006101000a81548160ff0219169083151502179055507f5c8ea801dbd61aa783f3af89de4993c7d089d3939af9c283e43dfcc4a7c82f816003838154811062000a645762000a6362001d7b565b5b9060005260206000200160009054906101000a900473ffffffffffffffffffffffffffffffffffffffff16600160405162000aa1929190620018b9565b60405180910390a15b62000ba2565b6007600083815260200190815260200160002060009054906101000a900460ff161562000ba0576002600081548092919062000aec9062001c02565b919050555060006007600084815260200190815260200160002060006101000a81548160ff0219169083151502179055507f5c8ea801dbd61aa783f3af89de4993c7d089d3939af9c283e43dfcc4a7c82f816003838154811062000b555762000b5462001d7b565b5b9060005260206000200160009054906101000a900473ffffffffffffffffffffffffffffffffffffffff16600060405162000b92929190620018b9565b60405180910390a162000ba1565b5b5b600254905092915050565b6000600454600254101562000bc457600062000bc7565b60015b905090565b600062000bd862000d6f565b73ffffffffffffffffffffffffffffffffffffffff1662000bf8620005ab565b73ffffffffffffffffffffffffffffffffffffffff161462000c51576040517f08c379a000000000000000000000000000000000000000000000000000000000815260040162000c489062001a17565b60405180910390fd5b62000c5d838362000e3b565b905092915050565b60045481565b62000c7562000d6f565b73ffffffffffffffffffffffffffffffffffffffff1662000c95620005ab565b73ffffffffffffffffffffffffffffffffffffffff161462000cee576040517f08c379a000000000000000000000000000000000000000000000000000000000815260040162000ce59062001a17565b60405180910390fd5b600073ffffffffffffffffffffffffffffffffffffffff168173ffffffffffffffffffffffffffffffffffffffff16141562000d61576040517f08c379a000000000000000000000000000000000000000000000000000000000815260040162000d5890620019b1565b60405180910390fd5b62000d6c8162000d77565b50565b600033905090565b60008060009054906101000a900473ffffffffffffffffffffffffffffffffffffffff169050816000806101000a81548173ffffffffffffffffffffffffffffffffffffffff021916908373ffffffffffffffffffffffffffffffffffffffff1602179055508173ffffffffffffffffffffffffffffffffffffffff168173ffffffffffffffffffffffffffffffffffffffff167f8be0079c531659141344cd1fd0a4f28419497f9722a3daafe3b4186f6b6457e060405160405180910390a35050565b60008073ffffffffffffffffffffffffffffffffffffffff168373ffffffffffffffffffffffffffffffffffffffff16141562000eaf576040517f08c379a000000000000000000000000000000000000000000000000000000000815260040162000ea6906200198f565b60405180910390fd5b600073ffffffffffffffffffffffffffffffffffffffff168273ffffffffffffffffffffffffffffffffffffffff16141562000f22576040517f08c379a000000000000000000000000000000000000000000000000000000000815260040162000f199062001a39565b60405180910390fd5b60006040518060200162000f369062001270565b6020820181038252601f19601f820116604052509050600084844260405160200162000f6593929190620017cf565b60405160208183030381529060405280519060200120905062000f8b60008284620010c7565b92508273ffffffffffffffffffffffffffffffffffffffff16631794bb3c86866008546040518463ffffffff1660e01b815260040162000fce939291906200187c565b600060405180830381600087803b15801562000fe957600080fd5b505af115801562000ffe573d6000803e3d6000fd5b505050508260096000600854815260200190815260200160002060006101000a81548173ffffffffffffffffffffffffffffffffffffffff021916908373ffffffffffffffffffffffffffffffffffffffff160217905550600860008154809291906200106b9062001c9d565b91905055507f4dda9a6d0ba03769e9813c47681795a7210f951e6ef31e64772e13b9ea0f14068585856001600854620010a5919062001b47565b604051620010b794939291906200182f565b60405180910390a1505092915050565b6000808447101562001110576040517f08c379a0000000000000000000000000000000000000000000000000000000008152600401620011079062001a5b565b60405180910390fd5b60008351141562001158576040517f08c379a00000000000000000000000000000000000000000000000000000000081526004016200114f906200196d565b60405180910390fd5b8383516020850187f59050600073ffffffffffffffffffffffffffffffffffffffff168173ffffffffffffffffffffffffffffffffffffffff161415620011d6576040517f08c379a0000000000000000000000000000000000000000000000000000000008152600401620011cd90620019f5565b60405180910390fd5b809150509392505050565b8280548282559060005260206000209081019282156200125d579160200282015b828111156200125c5782518260006101000a81548173ffffffffffffffffffffffffffffffffffffffff021916908373ffffffffffffffffffffffffffffffffffffffff1602179055509160200191906001019062001202565b5b5090506200126c91906200127e565b5090565b6123e9806200203d83390190565b5b80821115620012995760008160009055506001016200127f565b5090565b6000620012b4620012ae8462001ac3565b62001a9a565b90508083825260208201905082856020860282011115620012da57620012d962001dde565b5b60005b858110156200130e5781620012f3888262001318565b845260208401935060208301925050600181019050620012dd565b5050509392505050565b600081359050620013298162001fee565b92915050565b600081519050620013408162001fee565b92915050565b600082601f8301126200135e576200135d62001dd9565b5b8135620013708482602086016200129d565b91505092915050565b6000813590506200138a8162002008565b92915050565b600081359050620013a18162002022565b92915050565b600060208284031215620013c057620013bf62001de8565b5b6000620013d08482850162001318565b91505092915050565b600060208284031215620013f257620013f162001de8565b5b600062001402848285016200132f565b91505092915050565b6000806040838503121562001425576200142462001de8565b5b6000620014358582860162001318565b9250506020620014488582860162001318565b9150509250929050565b600080604083850312156200146c576200146b62001de8565b5b600083013567ffffffffffffffff8111156200148d576200148c62001de3565b5b6200149b8582860162001346565b9250506020620014ae8582860162001390565b9150509250929050565b60008060408385031215620014d257620014d162001de8565b5b6000620014e28582860162001379565b9250506020620014f58582860162001390565b9150509250929050565b60006020828403121562001518576200151762001de8565b5b6000620015288482850162001390565b91505092915050565b60006200153f838362001792565b60208301905092915050565b620015568162001b82565b82525050565b620015716200156b8262001b82565b62001ceb565b82525050565b6000620015848262001b02565b62001590818562001b25565b93506200159d8362001af2565b8060005b83811015620015d4578151620015b8888262001531565b9750620015c58362001b18565b925050600181019050620015a1565b5085935050505092915050565b620015ec8162001b96565b82525050565b6000620015ff8262001b0d565b6200160b818562001b36565b93506200161d81856020860162001bcc565b620016288162001ded565b840191505092915050565b600062001642603a8362001b36565b91506200164f8262001e0b565b604082019050919050565b60006200166960208362001b36565b9150620016768262001e5a565b602082019050919050565b60006200169060208362001b36565b91506200169d8262001e83565b602082019050919050565b6000620016b760268362001b36565b9150620016c48262001eac565b604082019050919050565b6000620016de60158362001b36565b9150620016eb8262001efb565b602082019050919050565b60006200170560198362001b36565b9150620017128262001f24565b602082019050919050565b60006200172c60208362001b36565b9150620017398262001f4d565b602082019050919050565b60006200175360238362001b36565b9150620017608262001f76565b604082019050919050565b60006200177a601d8362001b36565b9150620017878262001fc5565b602082019050919050565b6200179d8162001bc2565b82525050565b620017ae8162001bc2565b82525050565b620017c9620017c38262001bc2565b62001d13565b82525050565b6000620017dd82866200155c565b601482019150620017ef82856200155c565b601482019150620018018284620017b4565b602082019150819050949350505050565b60006020820190506200182960008301846200154b565b92915050565b60006080820190506200184660008301876200154b565b6200185560208301866200154b565b6200186460408301856200154b565b620018736060830184620017a3565b95945050505050565b60006060820190506200189360008301866200154b565b620018a260208301856200154b565b620018b16040830184620017a3565b949350505050565b6000604082019050620018d060008301856200154b565b620018df6020830184620015e1565b9392505050565b6000602082019050818103600083015262001902818462001577565b905092915050565b6000602082019050620019216000830184620015e1565b92915050565b60006020820190508181036000830152620019438184620015f2565b905092915050565b60006020820190508181036000830152620019668162001633565b9050919050565b6000602082019050818103600083015262001988816200165a565b9050919050565b60006020820190508181036000830152620019aa8162001681565b9050919050565b60006020820190508181036000830152620019cc81620016a8565b9050919050565b60006020820190508181036000830152620019ee81620016cf565b9050919050565b6000602082019050818103600083015262001a1081620016f6565b9050919050565b6000602082019050818103600083015262001a32816200171d565b9050919050565b6000602082019050818103600083015262001a548162001744565b9050919050565b6000602082019050818103600083015262001a76816200176b565b9050919050565b600060208201905062001a946000830184620017a3565b92915050565b600062001aa662001ab9565b905062001ab4828262001c67565b919050565b6000604051905090565b600067ffffffffffffffff82111562001ae15762001ae062001daa565b5b602082029050602081019050919050565b6000819050602082019050919050565b600081519050919050565b600081519050919050565b6000602082019050919050565b600082825260208201905092915050565b600082825260208201905092915050565b600062001b548262001bc2565b915062001b618362001bc2565b92508282101562001b775762001b7662001d1d565b5b828203905092915050565b600062001b8f8262001ba2565b9050919050565b60008115159050919050565b600073ffffffffffffffffffffffffffffffffffffffff82169050919050565b6000819050919050565b60005b8381101562001bec57808201518184015260208101905062001bcf565b8381111562001bfc576000848401525b50505050565b600062001c0f8262001bc2565b9150600082141562001c265762001c2562001d1d565b5b600182039050919050565b6000600282049050600182168062001c4a57607f821691505b6020821081141562001c615762001c6062001d4c565b5b50919050565b62001c728262001ded565b810181811067ffffffffffffffff8211171562001c945762001c9362001daa565b5b80604052505050565b600062001caa8262001bc2565b91507fffffffffffffffffffffffffffffffffffffffffffffffffffffffffffffffff82141562001ce05762001cdf62001d1d565b5b600182019050919050565b600062001cf88262001cff565b9050919050565b600062001d0c8262001dfe565b9050919050565b6000819050919050565b7f4e487b7100000000000000000000000000000000000000000000000000000000600052601160045260246000fd5b7f4e487b7100000000000000000000000000000000000000000000000000000000600052602260045260246000fd5b7f4e487b7100000000000000000000000000000000000000000000000000000000600052603260045260246000fd5b7f4e487b7100000000000000000000000000000000000000000000000000000000600052604160045260246000fd5b600080fd5b600080fd5b600080fd5b600080fd5b6000601f19601f8301169050919050565b60008160601b9050919050565b7f5661756c743a204e756d657261746f72206d757374206265206c65737320746860008201527f616e206f7220657175616c20746f2064656e6f6d696e61746f72000000000000602082015250565b7f437265617465323a2062797465636f6465206c656e677468206973207a65726f600082015250565b7f5661756c74466163746f72793a204f574e45525f5a45524f5f41444452455353600082015250565b7f4f776e61626c653a206e6577206f776e657220697320746865207a65726f206160008201527f6464726573730000000000000000000000000000000000000000000000000000602082015250565b7f5661756c743a204e6f74206120747275737465652e0000000000000000000000600082015250565b7f437265617465323a204661696c6564206f6e206465706c6f7900000000000000600082015250565b7f4f776e61626c653a2063616c6c6572206973206e6f7420746865206f776e6572600082015250565b7f5661756c74466163746f72793a2052454345495645525f5a45524f5f4144445260008201527f4553530000000000000000000000000000000000000000000000000000000000602082015250565b7f437265617465323a20696e73756666696369656e742062616c616e6365000000600082015250565b62001ff98162001b82565b81146200200557600080fd5b50565b620020138162001b96565b81146200201f57600080fd5b50565b6200202d8162001bc2565b81146200203957600080fd5b5056fe608060405234801561001057600080fd5b5061002d61002261007360201b60201c565b61007b60201b60201c565b33600160006101000a81548173ffffffffffffffffffffffffffffffffffffffff021916908373ffffffffffffffffffffffffffffffffffffffff16021790555061013f565b600033905090565b60008060009054906101000a900473ffffffffffffffffffffffffffffffffffffffff169050816000806101000a81548173ffffffffffffffffffffffffffffffffffffffff021916908373ffffffffffffffffffffffffffffffffffffffff1602179055508173ffffffffffffffffffffffffffffffffffffffff168173ffffffffffffffffffffffffffffffffffffffff167f8be0079c531659141344cd1fd0a4f28419497f9722a3daafe3b4186f6b6457e060405160405180910390a35050565b61229a806200014f6000396000f3fe60806040526004361061014b5760003560e01c80637dc0d1d0116100b6578063b8c1e3e01161006f578063b8c1e3e014610418578063c503133114610441578063d8a06f731461046c578063f2fde38b14610497578063f6326fb3146104c0578063f7260d3e146104ca5761014b565b80637dc0d1d01461031c5780637e66c0b91461034757806388c344fa146103705780638da5cb5b14610399578063952a5a5d146103c4578063a06db7dc146103ed5761014b565b8063355007f911610108578063355007f9146102385780634782f7791461026157806347c421b51461028a5780634a7b6ade146102b3578063547e3f06146102dc578063715018a6146103055761014b565b80631018ae5c1461015057806316cfa494146101795780631794bb3c146101a25780632fd43092146101cb57806333194c0a146101f6578063338cdca114610221575b600080fd5b34801561015c57600080fd5b5061017760048036038101906101729190611b3c565b6104f5565b005b34801561018557600080fd5b506101a0600480360381019061019b9190611c3c565b6106b0565b005b3480156101ae57600080fd5b506101c960048036038101906101c49190611b7c565b610736565b005b3480156101d757600080fd5b506101e06108da565b6040516101ed9190611f7c565b60405180910390f35b34801561020257600080fd5b5061020b6108e0565b6040516102189190611f7c565b60405180910390f35b34801561022d57600080fd5b506102366108e6565b005b34801561024457600080fd5b5061025f600480360381019061025a9190611b7c565b6109ff565b005b34801561026d57600080fd5b5061028860048036038101906102839190611afc565b610aef565b005b34801561029657600080fd5b506102b160048036038101906102ac9190611aa2565b610cc4565b005b3480156102bf57600080fd5b506102da60048036038101906102d59190611bcf565b610d84565b005b3480156102e857600080fd5b5061030360048036038101906102fe9190611aa2565b610e94565b005b34801561031157600080fd5b5061031a610ff8565b005b34801561032857600080fd5b50610331611080565b60405161033e9190611de6565b60405180910390f35b34801561035357600080fd5b5061036e60048036038101906103699190611acf565b6110a6565b005b34801561037c57600080fd5b5061039760048036038101906103929190611bcf565b6112ea565b005b3480156103a557600080fd5b506103ae6113d9565b6040516103bb9190611de6565b60405180910390f35b3480156103d057600080fd5b506103eb60048036038101906103e69190611b7c565b611402565b005b3480156103f957600080fd5b5061040261159f565b60405161040f9190611f7c565b60405180910390f35b34801561042457600080fd5b5061043f600480360381019061043a9190611b7c565b6115a5565b005b34801561044d57600080fd5b506104566116b4565b6040516104639190611e61565b60405180910390f35b34801561047857600080fd5b5061048161175b565b60405161048e9190611de6565b60405180910390f35b3480156104a357600080fd5b506104be60048036038101906104b99190611aa2565b611781565b005b6104c8611879565b005b3480156104d657600080fd5b506104df61195c565b6040516104ec9190611de6565b60405180910390f35b3373ffffffffffffffffffffffffffffffffffffffff16600260009054906101000a900473ffffffffffffffffffffffffffffffffffffffff1673ffffffffffffffffffffffffffffffffffffffff1614610585576040517f08c379a000000000000000000000000000000000000000000000000000000000815260040161057c90611e7c565b60405180910390fd5b61058d6116b4565b6105cc576040517f08c379a00000000000000000000000000000000000000000000000000000000081526004016105c390611efc565b60405180910390fd5b6005546004546105dc9190611fb3565b42101561061e576040517f08c379a000000000000000000000000000000000000000000000000000000000815260040161061590611e9c565b60405180910390fd5b8173ffffffffffffffffffffffffffffffffffffffff1663a9059cbb82476040518363ffffffff1660e01b8152600401610659929190611e38565b602060405180830381600087803b15801561067357600080fd5b505af1158015610687573d6000803e3d6000fd5b505050506040513d601f19601f820116820180604052508101906106ab9190611c0f565b505050565b6106b8611982565b73ffffffffffffffffffffffffffffffffffffffff166106d66113d9565b73ffffffffffffffffffffffffffffffffffffffff161461072c576040517f08c379a000000000000000000000000000000000000000000000000000000000815260040161072390611f5c565b60405180910390fd5b8060058190555050565b600160009054906101000a900473ffffffffffffffffffffffffffffffffffffffff1673ffffffffffffffffffffffffffffffffffffffff163373ffffffffffffffffffffffffffffffffffffffff16146107c6576040517f08c379a00000000000000000000000000000000000000000000000000000000081526004016107bd90611f3c565b60405180910390fd5b6107cf83611781565b81600260006101000a81548173ffffffffffffffffffffffffffffffffffffffff021916908373ffffffffffffffffffffffffffffffffffffffff16021790555033600660006101000a81548173ffffffffffffffffffffffffffffffffffffffff021916908373ffffffffffffffffffffffffffffffffffffffff16021790555080600381905550600260009054906101000a900473ffffffffffffffffffffffffffffffffffffffff1673ffffffffffffffffffffffffffffffffffffffff16600073ffffffffffffffffffffffffffffffffffffffff167f32e51f62a857a441425ef752ee98638e34990146f594c565858d7064f18bc8c460405160405180910390a3505050565b60045481565b60035481565b3373ffffffffffffffffffffffffffffffffffffffff16600260009054906101000a900473ffffffffffffffffffffffffffffffffffffffff1673ffffffffffffffffffffffffffffffffffffffff1614610976576040517f08c379a000000000000000000000000000000000000000000000000000000000815260040161096d90611e7c565b60405180910390fd5b61097e6116b4565b6109bd576040517f08c379a00000000000000000000000000000000000000000000000000000000081526004016109b490611efc565b60405180910390fd5b426004819055507f54593fbf3d0e13af724316e44a7387ee756ab753993496c7009658e83217002c6004546040516109f59190611f7c565b60405180910390a1565b610a07611982565b73ffffffffffffffffffffffffffffffffffffffff16610a256113d9565b73ffffffffffffffffffffffffffffffffffffffff1614610a7b576040517f08c379a0000000000000000000000000000000000000000000000000000000008152600401610a7290611f5c565b60405180910390fd5b8273ffffffffffffffffffffffffffffffffffffffff166323b872dd3084846040518463ffffffff1660e01b8152600401610ab893929190611e01565b600060405180830381600087803b158015610ad257600080fd5b505af1158015610ae6573d6000803e3d6000fd5b50505050505050565b610af7611982565b73ffffffffffffffffffffffffffffffffffffffff16610b156113d9565b73ffffffffffffffffffffffffffffffffffffffff1614610b6b576040517f08c379a0000000000000000000000000000000000000000000000000000000008152600401610b6290611f5c565b60405180910390fd5b80471015610bae576040517f08c379a0000000000000000000000000000000000000000000000000000000008152600401610ba590611f1c565b60405180910390fd5b60008273ffffffffffffffffffffffffffffffffffffffff1682604051610bd490611dd1565b60006040518083038185875af1925050503d8060008114610c11576040519150601f19603f3d011682016040523d82523d6000602084013e610c16565b606091505b5050905080610c5a576040517f08c379a0000000000000000000000000000000000000000000000000000000008152600401610c5190611edc565b60405180910390fd5b8273ffffffffffffffffffffffffffffffffffffffff163073ffffffffffffffffffffffffffffffffffffffff167fb417e19f030bde3b90ec59aeed617934f679c9071dde0be604082db6586346a684604051610cb79190611f7c565b60405180910390a3505050565b610ccc611982565b73ffffffffffffffffffffffffffffffffffffffff16610cea6113d9565b73ffffffffffffffffffffffffffffffffffffffff1614610d40576040517f08c379a0000000000000000000000000000000000000000000000000000000008152600401610d3790611f5c565b60405180910390fd5b80600660006101000a81548173ffffffffffffffffffffffffffffffffffffffff021916908373ffffffffffffffffffffffffffffffffffffffff16021790555050565b610d8c611982565b73ffffffffffffffffffffffffffffffffffffffff16610daa6113d9565b73ffffffffffffffffffffffffffffffffffffffff1614610e00576040517f08c379a0000000000000000000000000000000000000000000000000000000008152600401610df790611f5c565b60405180910390fd5b8173ffffffffffffffffffffffffffffffffffffffff166323b872dd3330846040518463ffffffff1660e01b8152600401610e3d93929190611e01565b602060405180830381600087803b158015610e5757600080fd5b505af1158015610e6b573d6000803e3d6000fd5b505050506040513d601f19601f82011682018060405250810190610e8f9190611c0f565b505050565b610e9c611982565b73ffffffffffffffffffffffffffffffffffffffff16610eba6113d9565b73ffffffffffffffffffffffffffffffffffffffff1614610f10576040517f08c379a0000000000000000000000000000000000000000000000000000000008152600401610f0790611f5c565b60405180910390fd5b6000600260009054906101000a900473ffffffffffffffffffffffffffffffffffffffff16905081600260006101000a81548173ffffffffffffffffffffffffffffffffffffffff021916908373ffffffffffffffffffffffffffffffffffffffff160217905550600260009054906101000a900473ffffffffffffffffffffffffffffffffffffffff1673ffffffffffffffffffffffffffffffffffffffff168173ffffffffffffffffffffffffffffffffffffffff167f32e51f62a857a441425ef752ee98638e34990146f594c565858d7064f18bc8c460405160405180910390a35050565b611000611982565b73ffffffffffffffffffffffffffffffffffffffff1661101e6113d9565b73ffffffffffffffffffffffffffffffffffffffff1614611074576040517f08c379a000000000000000000000000000000000000000000000000000000000815260040161106b90611f5c565b60405180910390fd5b61107e600061198a565b565b600660009054906101000a900473ffffffffffffffffffffffffffffffffffffffff1681565b3373ffffffffffffffffffffffffffffffffffffffff16600260009054906101000a900473ffffffffffffffffffffffffffffffffffffffff1673ffffffffffffffffffffffffffffffffffffffff1614611136576040517f08c379a000000000000000000000000000000000000000000000000000000000815260040161112d90611e7c565b60405180910390fd5b61113e6116b4565b61117d576040517f08c379a000000000000000000000000000000000000000000000000000000000815260040161117490611efc565b60405180910390fd5b60055460045461118d9190611fb3565b4210156111cf576040517f08c379a00000000000000000000000000000000000000000000000000000000081526004016111c690611e9c565b60405180910390fd5b600047905060008273ffffffffffffffffffffffffffffffffffffffff16826040516111fa90611dd1565b60006040518083038185875af1925050503d8060008114611237576040519150601f19603f3d011682016040523d82523d6000602084013e61123c565b606091505b5050905080611280576040517f08c379a000000000000000000000000000000000000000000000000000000000815260040161127790611edc565b60405180910390fd5b8273ffffffffffffffffffffffffffffffffffffffff163073ffffffffffffffffffffffffffffffffffffffff167fb417e19f030bde3b90ec59aeed617934f679c9071dde0be604082db6586346a6846040516112dd9190611f7c565b60405180910390a3505050565b6112f2611982565b73ffffffffffffffffffffffffffffffffffffffff166113106113d9565b73ffffffffffffffffffffffffffffffffffffffff1614611366576040517f08c379a000000000000000000000000000000000000000000000000000000000815260040161135d90611f5c565b60405180910390fd5b8173ffffffffffffffffffffffffffffffffffffffff166323b872dd3330846040518463ffffffff1660e01b81526004016113a393929190611e01565b600060405180830381600087803b1580156113bd57600080fd5b505af11580156113d1573d6000803e3d6000fd5b505050505050565b60008060009054906101000a900473ffffffffffffffffffffffffffffffffffffffff16905090565b3373ffffffffffffffffffffffffffffffffffffffff16600260009054906101000a900473ffffffffffffffffffffffffffffffffffffffff1673ffffffffffffffffffffffffffffffffffffffff1614611492576040517f08c379a000000000000000000000000000000000000000000000000000000000815260040161148990611e7c565b60405180910390fd5b61149a6116b4565b6114d9576040517f08c379a00000000000000000000000000000000000000000000000000000000081526004016114d090611efc565b60405180910390fd5b6005546004546114e99190611fb3565b42101561152b576040517f08c379a000000000000000000000000000000000000000000000000000000000815260040161152290611e9c565b60405180910390fd5b8273ffffffffffffffffffffffffffffffffffffffff166323b872dd3084846040518463ffffffff1660e01b815260040161156893929190611e01565b600060405180830381600087803b15801561158257600080fd5b505af1158015611596573d6000803e3d6000fd5b50505050505050565b60055481565b6115ad611982565b73ffffffffffffffffffffffffffffffffffffffff166115cb6113d9565b73ffffffffffffffffffffffffffffffffffffffff1614611621576040517f08c379a000000000000000000000000000000000000000000000000000000000815260040161161890611f5c565b60405180910390fd5b8273ffffffffffffffffffffffffffffffffffffffff1663a9059cbb83836040518363ffffffff1660e01b815260040161165c929190611e38565b602060405180830381600087803b15801561167657600080fd5b505af115801561168a573d6000803e3d6000fd5b505050506040513d601f19601f820116820180604052508101906116ae9190611c0f565b50505050565b6000600660009054906101000a900473ffffffffffffffffffffffffffffffffffffffff1673ffffffffffffffffffffffffffffffffffffffff1663c50313316040518163ffffffff1660e01b815260040160206040518083038186803b15801561171e57600080fd5b505afa158015611732573d6000803e3d6000fd5b505050506040513d601f19601f820116820180604052508101906117569190611c0f565b905090565b600160009054906101000a900473ffffffffffffffffffffffffffffffffffffffff1681565b611789611982565b73ffffffffffffffffffffffffffffffffffffffff166117a76113d9565b73ffffffffffffffffffffffffffffffffffffffff16146117fd576040517f08c379a00000000000000000000000000000000000000000000000000000000081526004016117f490611f5c565b60405180910390fd5b600073ffffffffffffffffffffffffffffffffffffffff168173ffffffffffffffffffffffffffffffffffffffff16141561186d576040517f08c379a000000000000000000000000000000000000000000000000000000000815260040161186490611ebc565b60405180910390fd5b6118768161198a565b50565b611881611982565b73ffffffffffffffffffffffffffffffffffffffff1661189f6113d9565b73ffffffffffffffffffffffffffffffffffffffff16146118f5576040517f08c379a00000000000000000000000000000000000000000000000000000000081526004016118ec90611f5c565b60405180910390fd5b3073ffffffffffffffffffffffffffffffffffffffff163373ffffffffffffffffffffffffffffffffffffffff167fb417e19f030bde3b90ec59aeed617934f679c9071dde0be604082db6586346a6346040516119529190611f7c565b60405180910390a3565b600260009054906101000a900473ffffffffffffffffffffffffffffffffffffffff1681565b600033905090565b60008060009054906101000a900473ffffffffffffffffffffffffffffffffffffffff169050816000806101000a81548173ffffffffffffffffffffffffffffffffffffffff021916908373ffffffffffffffffffffffffffffffffffffffff1602179055508173ffffffffffffffffffffffffffffffffffffffff168173ffffffffffffffffffffffffffffffffffffffff167f8be0079c531659141344cd1fd0a4f28419497f9722a3daafe3b4186f6b6457e060405160405180910390a35050565b600081359050611a5d81612208565b92915050565b600081359050611a728161221f565b92915050565b600081519050611a8781612236565b92915050565b600081359050611a9c8161224d565b92915050565b600060208284031215611ab857611ab7612092565b5b6000611ac684828501611a4e565b91505092915050565b600060208284031215611ae557611ae4612092565b5b6000611af384828501611a63565b91505092915050565b60008060408385031215611b1357611b12612092565b5b6000611b2185828601611a63565b9250506020611b3285828601611a8d565b9150509250929050565b60008060408385031215611b5357611b52612092565b5b6000611b6185828601611a4e565b9250506020611b7285828601611a4e565b9150509250929050565b600080600060608486031215611b9557611b94612092565b5b6000611ba386828701611a4e565b9350506020611bb486828701611a4e565b9250506040611bc586828701611a8d565b9150509250925092565b60008060408385031215611be657611be5612092565b5b6000611bf485828601611a4e565b9250506020611c0585828601611a8d565b9150509250929050565b600060208284031215611c2557611c24612092565b5b6000611c3384828501611a78565b91505092915050565b600060208284031215611c5257611c51612092565b5b6000611c6084828501611a8d565b91505092915050565b611c7281612009565b82525050565b611c818161202d565b82525050565b6000611c94601383611fa2565b9150611c9f82612097565b602082019050919050565b6000611cb7601c83611fa2565b9150611cc2826120c0565b602082019050919050565b6000611cda602683611fa2565b9150611ce5826120e9565b604082019050919050565b6000611cfd601483611fa2565b9150611d0882612138565b602082019050919050565b6000611d20601883611fa2565b9150611d2b82612161565b602082019050919050565b6000611d43601983611fa2565b9150611d4e8261218a565b602082019050919050565b6000611d66601083611fa2565b9150611d71826121b3565b602082019050919050565b6000611d89602083611fa2565b9150611d94826121dc565b602082019050919050565b6000611dac600083611f97565b9150611db782612205565b600082019050919050565b611dcb81612059565b82525050565b6000611ddc82611d9f565b9150819050919050565b6000602082019050611dfb6000830184611c69565b92915050565b6000606082019050611e166000830186611c69565b611e236020830185611c69565b611e306040830184611dc2565b949350505050565b6000604082019050611e4d6000830185611c69565b611e5a6020830184611dc2565b9392505050565b6000602082019050611e766000830184611c78565b92915050565b60006020820190508181036000830152611e9581611c87565b9050919050565b60006020820190508181036000830152611eb581611caa565b9050919050565b60006020820190508181036000830152611ed581611ccd565b9050919050565b60006020820190508181036000830152611ef581611cf0565b9050919050565b60006020820190508181036000830152611f1581611d13565b9050919050565b60006020820190508181036000830152611f3581611d36565b9050919050565b60006020820190508181036000830152611f5581611d59565b9050919050565b60006020820190508181036000830152611f7581611d7c565b9050919050565b6000602082019050611f916000830184611dc2565b92915050565b600081905092915050565b600082825260208201905092915050565b6000611fbe82612059565b9150611fc983612059565b9250827fffffffffffffffffffffffffffffffffffffffffffffffffffffffffffffffff03821115611ffe57611ffd612063565b5b828201905092915050565b600061201482612039565b9050919050565b600061202682612039565b9050919050565b60008115159050919050565b600073ffffffffffffffffffffffffffffffffffffffff82169050919050565b6000819050919050565b7f4e487b7100000000000000000000000000000000000000000000000000000000600052601160045260246000fd5b600080fd5b7f5661756c743a204e6f7420726563656976657200000000000000000000000000600082015250565b7f5661756c743a20477261636520706572696f64206e6f74206f76657200000000600082015250565b7f4f776e61626c653a206e6577206f776e657220697320746865207a65726f206160008201527f6464726573730000000000000000000000000000000000000000000000000000602082015250565b7f4661696c656420746f2073656e64204574686572000000000000000000000000600082015250565b7f5661756c743a20436f6e646974696f6e206e6f74206d65740000000000000000600082015250565b7f5661756c743a20496e73756666696369656e742076616c756500000000000000600082015250565b7f5661756c743a20464f5242494444454e00000000000000000000000000000000600082015250565b7f4f776e61626c653a2063616c6c6572206973206e6f7420746865206f776e6572600082015250565b50565b61221181612009565b811461221c57600080fd5b50565b6122288161201b565b811461223357600080fd5b50565b61223f8161202d565b811461224a57600080fd5b50565b61225681612059565b811461226157600080fd5b5056fea2646970667358221220ad43e1b78c0d45b3b9e34f157af8a4ea7d6463d169212a510843a93be817ef3064736f6c63430008070033a26469706673582212209c8c62fdc5facccb27195dc5194b4d7ffe992a3f7cc9bbaae9a6b846fc753d1364736f6c63430008070033",
			"opcodes": "PUSH1 0x80 PUSH1 0x40 MSTORE PUSH1 0x1 PUSH1 0x4 SSTORE PUSH1 0x1 PUSH1 0x5 SSTORE PUSH1 0x0 PUSH1 0x8 SSTORE CALLVALUE DUP1 ISZERO PUSH3 0x20 JUMPI PUSH1 0x0 DUP1 REVERT JUMPDEST POP PUSH1 0x40 MLOAD PUSH3 0x4BAA CODESIZE SUB DUP1 PUSH3 0x4BAA DUP4 CODECOPY DUP2 DUP2 ADD PUSH1 0x40 MSTORE DUP2 ADD SWAP1 PUSH3 0x46 SWAP2 SWAP1 PUSH3 0x3EC JUMP JUMPDEST DUP2 DUP2 PUSH3 0x68 PUSH3 0x5C PUSH3 0x9C PUSH1 0x20 SHL PUSH1 0x20 SHR JUMP JUMPDEST PUSH3 0xA4 PUSH1 0x20 SHL PUSH1 0x20 SHR JUMP JUMPDEST DUP2 PUSH1 0x1 SWAP1 DUP1 MLOAD SWAP1 PUSH1 0x20 ADD SWAP1 PUSH3 0x80 SWAP3 SWAP2 SWAP1 PUSH3 0x2A7 JUMP JUMPDEST POP PUSH3 0x92 DUP2 PUSH3 0x168 PUSH1 0x20 SHL PUSH1 0x20 SHR JUMP JUMPDEST POP POP POP POP PUSH3 0x73F JUMP JUMPDEST PUSH1 0x0 CALLER SWAP1 POP SWAP1 JUMP JUMPDEST PUSH1 0x0 DUP1 PUSH1 0x0 SWAP1 SLOAD SWAP1 PUSH2 0x100 EXP SWAP1 DIV PUSH20 0xFFFFFFFFFFFFFFFFFFFFFFFFFFFFFFFFFFFFFFFF AND SWAP1 POP DUP2 PUSH1 0x0 DUP1 PUSH2 0x100 EXP DUP2 SLOAD DUP2 PUSH20 0xFFFFFFFFFFFFFFFFFFFFFFFFFFFFFFFFFFFFFFFF MUL NOT AND SWAP1 DUP4 PUSH20 0xFFFFFFFFFFFFFFFFFFFFFFFFFFFFFFFFFFFFFFFF AND MUL OR SWAP1 SSTORE POP DUP2 PUSH20 0xFFFFFFFFFFFFFFFFFFFFFFFFFFFFFFFFFFFFFFFF AND DUP2 PUSH20 0xFFFFFFFFFFFFFFFFFFFFFFFFFFFFFFFFFFFFFFFF AND PUSH32 0x8BE0079C531659141344CD1FD0A4F28419497F9722A3DAAFE3B4186F6B6457E0 PUSH1 0x40 MLOAD PUSH1 0x40 MLOAD DUP1 SWAP2 SUB SWAP1 LOG3 POP POP JUMP JUMPDEST PUSH3 0x178 PUSH3 0x9C PUSH1 0x20 SHL PUSH1 0x20 SHR JUMP JUMPDEST PUSH20 0xFFFFFFFFFFFFFFFFFFFFFFFFFFFFFFFFFFFFFFFF AND PUSH3 0x19E PUSH3 0x27E PUSH1 0x20 SHL PUSH1 0x20 SHR JUMP JUMPDEST PUSH20 0xFFFFFFFFFFFFFFFFFFFFFFFFFFFFFFFFFFFFFFFF AND EQ PUSH3 0x1F7 JUMPI PUSH1 0x40 MLOAD PUSH32 0x8C379A000000000000000000000000000000000000000000000000000000000 DUP2 MSTORE PUSH1 0x4 ADD PUSH3 0x1EE SWAP1 PUSH3 0x4C2 JUMP JUMPDEST PUSH1 0x40 MLOAD DUP1 SWAP2 SUB SWAP1 REVERT JUMPDEST PUSH1 0x0 PUSH20 0xFFFFFFFFFFFFFFFFFFFFFFFFFFFFFFFFFFFFFFFF AND DUP2 PUSH20 0xFFFFFFFFFFFFFFFFFFFFFFFFFFFFFFFFFFFFFFFF AND EQ ISZERO PUSH3 0x26A JUMPI PUSH1 0x40 MLOAD PUSH32 0x8C379A000000000000000000000000000000000000000000000000000000000 DUP2 MSTORE PUSH1 0x4 ADD PUSH3 0x261 SWAP1 PUSH3 0x4A0 JUMP JUMPDEST PUSH1 0x40 MLOAD DUP1 SWAP2 SUB SWAP1 REVERT JUMPDEST PUSH3 0x27B DUP2 PUSH3 0xA4 PUSH1 0x20 SHL PUSH1 0x20 SHR JUMP JUMPDEST POP JUMP JUMPDEST PUSH1 0x0 DUP1 PUSH1 0x0 SWAP1 SLOAD SWAP1 PUSH2 0x100 EXP SWAP1 DIV PUSH20 0xFFFFFFFFFFFFFFFFFFFFFFFFFFFFFFFFFFFFFFFF AND SWAP1 POP SWAP1 JUMP JUMPDEST DUP3 DUP1 SLOAD PUSH3 0x2B5 SWAP1 PUSH3 0x5BE JUMP JUMPDEST SWAP1 PUSH1 0x0 MSTORE PUSH1 0x20 PUSH1 0x0 KECCAK256 SWAP1 PUSH1 0x1F ADD PUSH1 0x20 SWAP1 DIV DUP2 ADD SWAP3 DUP3 PUSH3 0x2D9 JUMPI PUSH1 0x0 DUP6 SSTORE PUSH3 0x325 JUMP JUMPDEST DUP3 PUSH1 0x1F LT PUSH3 0x2F4 JUMPI DUP1 MLOAD PUSH1 0xFF NOT AND DUP4 DUP1 ADD OR DUP6 SSTORE PUSH3 0x325 JUMP JUMPDEST DUP3 DUP1 ADD PUSH1 0x1 ADD DUP6 SSTORE DUP3 ISZERO PUSH3 0x325 JUMPI SWAP2 DUP3 ADD JUMPDEST DUP3 DUP2 GT ISZERO PUSH3 0x324 JUMPI DUP3 MLOAD DUP3 SSTORE SWAP2 PUSH1 0x20 ADD SWAP2 SWAP1 PUSH1 0x1 ADD SWAP1 PUSH3 0x307 JUMP JUMPDEST JUMPDEST POP SWAP1 POP PUSH3 0x334 SWAP2 SWAP1 PUSH3 0x338 JUMP JUMPDEST POP SWAP1 JUMP JUMPDEST JUMPDEST DUP1 DUP3 GT ISZERO PUSH3 0x353 JUMPI PUSH1 0x0 DUP2 PUSH1 0x0 SWAP1 SSTORE POP PUSH1 0x1 ADD PUSH3 0x339 JUMP JUMPDEST POP SWAP1 JUMP JUMPDEST PUSH1 0x0 PUSH3 0x36E PUSH3 0x368 DUP5 PUSH3 0x50D JUMP JUMPDEST PUSH3 0x4E4 JUMP JUMPDEST SWAP1 POP DUP3 DUP2 MSTORE PUSH1 0x20 DUP2 ADD DUP5 DUP5 DUP5 ADD GT ISZERO PUSH3 0x38D JUMPI PUSH3 0x38C PUSH3 0x68D JUMP JUMPDEST JUMPDEST PUSH3 0x39A DUP5 DUP3 DUP6 PUSH3 0x588 JUMP JUMPDEST POP SWAP4 SWAP3 POP POP POP JUMP JUMPDEST PUSH1 0x0 DUP2 MLOAD SWAP1 POP PUSH3 0x3B3 DUP2 PUSH3 0x725 JUMP JUMPDEST SWAP3 SWAP2 POP POP JUMP JUMPDEST PUSH1 0x0 DUP3 PUSH1 0x1F DUP4 ADD SLT PUSH3 0x3D1 JUMPI PUSH3 0x3D0 PUSH3 0x688 JUMP JUMPDEST JUMPDEST DUP2 MLOAD PUSH3 0x3E3 DUP5 DUP3 PUSH1 0x20 DUP7 ADD PUSH3 0x357 JUMP JUMPDEST SWAP2 POP POP SWAP3 SWAP2 POP POP JUMP JUMPDEST PUSH1 0x0 DUP1 PUSH1 0x40 DUP4 DUP6 SUB SLT ISZERO PUSH3 0x406 JUMPI PUSH3 0x405 PUSH3 0x697 JUMP JUMPDEST JUMPDEST PUSH1 0x0 DUP4 ADD MLOAD PUSH8 0xFFFFFFFFFFFFFFFF DUP2 GT ISZERO PUSH3 0x427 JUMPI PUSH3 0x426 PUSH3 0x692 JUMP JUMPDEST JUMPDEST PUSH3 0x435 DUP6 DUP3 DUP7 ADD PUSH3 0x3B9 JUMP JUMPDEST SWAP3 POP POP PUSH1 0x20 PUSH3 0x448 DUP6 DUP3 DUP7 ADD PUSH3 0x3A2 JUMP JUMPDEST SWAP2 POP POP SWAP3 POP SWAP3 SWAP1 POP JUMP JUMPDEST PUSH1 0x0 PUSH3 0x461 PUSH1 0x26 DUP4 PUSH3 0x543 JUMP JUMPDEST SWAP2 POP PUSH3 0x46E DUP3 PUSH3 0x6AD JUMP JUMPDEST PUSH1 0x40 DUP3 ADD SWAP1 POP SWAP2 SWAP1 POP JUMP JUMPDEST PUSH1 0x0 PUSH3 0x488 PUSH1 0x20 DUP4 PUSH3 0x543 JUMP JUMPDEST SWAP2 POP PUSH3 0x495 DUP3 PUSH3 0x6FC JUMP JUMPDEST PUSH1 0x20 DUP3 ADD SWAP1 POP SWAP2 SWAP1 POP JUMP JUMPDEST PUSH1 0x0 PUSH1 0x20 DUP3 ADD SWAP1 POP DUP2 DUP2 SUB PUSH1 0x0 DUP4 ADD MSTORE PUSH3 0x4BB DUP2 PUSH3 0x452 JUMP JUMPDEST SWAP1 POP SWAP2 SWAP1 POP JUMP JUMPDEST PUSH1 0x0 PUSH1 0x20 DUP3 ADD SWAP1 POP DUP2 DUP2 SUB PUSH1 0x0 DUP4 ADD MSTORE PUSH3 0x4DD DUP2 PUSH3 0x479 JUMP JUMPDEST SWAP1 POP SWAP2 SWAP1 POP JUMP JUMPDEST PUSH1 0x0 PUSH3 0x4F0 PUSH3 0x503 JUMP JUMPDEST SWAP1 POP PUSH3 0x4FE DUP3 DUP3 PUSH3 0x5F4 JUMP JUMPDEST SWAP2 SWAP1 POP JUMP JUMPDEST PUSH1 0x0 PUSH1 0x40 MLOAD SWAP1 POP SWAP1 JUMP JUMPDEST PUSH1 0x0 PUSH8 0xFFFFFFFFFFFFFFFF DUP3 GT ISZERO PUSH3 0x52B JUMPI PUSH3 0x52A PUSH3 0x659 JUMP JUMPDEST JUMPDEST PUSH3 0x536 DUP3 PUSH3 0x69C JUMP JUMPDEST SWAP1 POP PUSH1 0x20 DUP2 ADD SWAP1 POP SWAP2 SWAP1 POP JUMP JUMPDEST PUSH1 0x0 DUP3 DUP3 MSTORE PUSH1 0x20 DUP3 ADD SWAP1 POP SWAP3 SWAP2 POP POP JUMP JUMPDEST PUSH1 0x0 PUSH3 0x561 DUP3 PUSH3 0x568 JUMP JUMPDEST SWAP1 POP SWAP2 SWAP1 POP JUMP JUMPDEST PUSH1 0x0 PUSH20 0xFFFFFFFFFFFFFFFFFFFFFFFFFFFFFFFFFFFFFFFF DUP3 AND SWAP1 POP SWAP2 SWAP1 POP JUMP JUMPDEST PUSH1 0x0 JUMPDEST DUP4 DUP2 LT ISZERO PUSH3 0x5A8 JUMPI DUP1 DUP3 ADD MLOAD DUP2 DUP5 ADD MSTORE PUSH1 0x20 DUP2 ADD SWAP1 POP PUSH3 0x58B JUMP JUMPDEST DUP4 DUP2 GT ISZERO PUSH3 0x5B8 JUMPI PUSH1 0x0 DUP5 DUP5 ADD MSTORE JUMPDEST POP POP POP POP JUMP JUMPDEST PUSH1 0x0 PUSH1 0x2 DUP3 DIV SWAP1 POP PUSH1 0x1 DUP3 AND DUP1 PUSH3 0x5D7 JUMPI PUSH1 0x7F DUP3 AND SWAP2 POP JUMPDEST PUSH1 0x20 DUP3 LT DUP2 EQ ISZERO PUSH3 0x5EE JUMPI PUSH3 0x5ED PUSH3 0x62A JUMP JUMPDEST JUMPDEST POP SWAP2 SWAP1 POP JUMP JUMPDEST PUSH3 0x5FF DUP3 PUSH3 0x69C JUMP JUMPDEST DUP2 ADD DUP2 DUP2 LT PUSH8 0xFFFFFFFFFFFFFFFF DUP3 GT OR ISZERO PUSH3 0x621 JUMPI PUSH3 0x620 PUSH3 0x659 JUMP JUMPDEST JUMPDEST DUP1 PUSH1 0x40 MSTORE POP POP POP JUMP JUMPDEST PUSH32 0x4E487B7100000000000000000000000000000000000000000000000000000000 PUSH1 0x0 MSTORE PUSH1 0x22 PUSH1 0x4 MSTORE PUSH1 0x24 PUSH1 0x0 REVERT JUMPDEST PUSH32 0x4E487B7100000000000000000000000000000000000000000000000000000000 PUSH1 0x0 MSTORE PUSH1 0x41 PUSH1 0x4 MSTORE PUSH1 0x24 PUSH1 0x0 REVERT JUMPDEST PUSH1 0x0 DUP1 REVERT JUMPDEST PUSH1 0x0 DUP1 REVERT JUMPDEST PUSH1 0x0 DUP1 REVERT JUMPDEST PUSH1 0x0 DUP1 REVERT JUMPDEST PUSH1 0x0 PUSH1 0x1F NOT PUSH1 0x1F DUP4 ADD AND SWAP1 POP SWAP2 SWAP1 POP JUMP JUMPDEST PUSH32 0x4F776E61626C653A206E6577206F776E657220697320746865207A65726F2061 PUSH1 0x0 DUP3 ADD MSTORE PUSH32 0x6464726573730000000000000000000000000000000000000000000000000000 PUSH1 0x20 DUP3 ADD MSTORE POP JUMP JUMPDEST PUSH32 0x4F776E61626C653A2063616C6C6572206973206E6F7420746865206F776E6572 PUSH1 0x0 DUP3 ADD MSTORE POP JUMP JUMPDEST PUSH3 0x730 DUP2 PUSH3 0x554 JUMP JUMPDEST DUP2 EQ PUSH3 0x73C JUMPI PUSH1 0x0 DUP1 REVERT JUMPDEST POP JUMP JUMPDEST PUSH2 0x445B DUP1 PUSH3 0x74F PUSH1 0x0 CODECOPY PUSH1 0x0 RETURN INVALID PUSH1 0x80 PUSH1 0x40 MSTORE CALLVALUE DUP1 ISZERO PUSH3 0x11 JUMPI PUSH1 0x0 DUP1 REVERT JUMPDEST POP PUSH1 0x4 CALLDATASIZE LT PUSH3 0x124 JUMPI PUSH1 0x0 CALLDATALOAD PUSH1 0xE0 SHR DUP1 PUSH4 0x96CE0795 GT PUSH3 0xB1 JUMPI DUP1 PUSH4 0xC09DB123 GT PUSH3 0x7B JUMPI DUP1 PUSH4 0xC09DB123 EQ PUSH3 0x30D JUMPI DUP1 PUSH4 0xC5031331 EQ PUSH3 0x343 JUMPI DUP1 PUSH4 0xCC92D31C EQ PUSH3 0x365 JUMPI DUP1 PUSH4 0xCE5F9454 EQ PUSH3 0x39B JUMPI DUP1 PUSH4 0xF2FDE38B EQ PUSH3 0x3BD JUMPI PUSH3 0x124 JUMP JUMPDEST DUP1 PUSH4 0x96CE0795 EQ PUSH3 0x25F JUMPI DUP1 PUSH4 0xA56FD152 EQ PUSH3 0x281 JUMPI DUP1 PUSH4 0xBA308CC4 EQ PUSH3 0x2B7 JUMPI DUP1 PUSH4 0xBE25A62C EQ PUSH3 0x2D7 JUMPI PUSH3 0x124 JUMP JUMPDEST DUP1 PUSH4 0x715018A6 GT PUSH3 0xF3 JUMPI DUP1 PUSH4 0x715018A6 EQ PUSH3 0x1D9 JUMPI DUP1 PUSH4 0x717D63A4 EQ PUSH3 0x1E5 JUMPI DUP1 PUSH4 0x799A3F88 EQ PUSH3 0x21B JUMPI DUP1 PUSH4 0x8DA5CB5B EQ PUSH3 0x23D JUMPI PUSH3 0x124 JUMP JUMPDEST DUP1 PUSH4 0x6FDDE03 EQ PUSH3 0x129 JUMPI DUP1 PUSH4 0x3D4BC4BA EQ PUSH3 0x14B JUMPI DUP1 PUSH4 0x468D16D0 EQ PUSH3 0x16D JUMPI DUP1 PUSH4 0x4C1FD3CD EQ PUSH3 0x1A3 JUMPI JUMPDEST PUSH1 0x0 DUP1 REVERT JUMPDEST PUSH3 0x133 PUSH3 0x3DD JUMP JUMPDEST PUSH1 0x40 MLOAD PUSH3 0x142 SWAP2 SWAP1 PUSH3 0x1927 JUMP JUMPDEST PUSH1 0x40 MLOAD DUP1 SWAP2 SUB SWAP1 RETURN JUMPDEST PUSH3 0x155 PUSH3 0x477 JUMP JUMPDEST PUSH1 0x40 MLOAD PUSH3 0x164 SWAP2 SWAP1 PUSH3 0x1A7D JUMP JUMPDEST PUSH1 0x40 MLOAD DUP1 SWAP2 SUB SWAP1 RETURN JUMPDEST PUSH3 0x18B PUSH1 0x4 DUP1 CALLDATASIZE SUB DUP2 ADD SWAP1 PUSH3 0x185 SWAP2 SWAP1 PUSH3 0x14FF JUMP JUMPDEST PUSH3 0x47D JUMP JUMPDEST PUSH1 0x40 MLOAD PUSH3 0x19A SWAP2 SWAP1 PUSH3 0x1812 JUMP JUMPDEST PUSH1 0x40 MLOAD DUP1 SWAP2 SUB SWAP1 RETURN JUMPDEST PUSH3 0x1C1 PUSH1 0x4 DUP1 CALLDATASIZE SUB DUP2 ADD SWAP1 PUSH3 0x1BB SWAP2 SWAP1 PUSH3 0x14FF JUMP JUMPDEST PUSH3 0x4B0 JUMP JUMPDEST PUSH1 0x40 MLOAD PUSH3 0x1D0 SWAP2 SWAP1 PUSH3 0x190A JUMP JUMPDEST PUSH1 0x40 MLOAD DUP1 SWAP2 SUB SWAP1 RETURN JUMPDEST PUSH3 0x1E3 PUSH3 0x4D0 JUMP JUMPDEST STOP JUMPDEST PUSH3 0x203 PUSH1 0x4 DUP1 CALLDATASIZE SUB DUP2 ADD SWAP1 PUSH3 0x1FD SWAP2 SWAP1 PUSH3 0x14FF JUMP JUMPDEST PUSH3 0x561 JUMP JUMPDEST PUSH1 0x40 MLOAD PUSH3 0x212 SWAP2 SWAP1 PUSH3 0x1812 JUMP JUMPDEST PUSH1 0x40 MLOAD DUP1 SWAP2 SUB SWAP1 RETURN JUMPDEST PUSH3 0x225 PUSH3 0x5A1 JUMP JUMPDEST PUSH1 0x40 MLOAD PUSH3 0x234 SWAP2 SWAP1 PUSH3 0x1A7D JUMP JUMPDEST PUSH1 0x40 MLOAD DUP1 SWAP2 SUB SWAP1 RETURN JUMPDEST PUSH3 0x247 PUSH3 0x5AB JUMP JUMPDEST PUSH1 0x40 MLOAD PUSH3 0x256 SWAP2 SWAP1 PUSH3 0x1812 JUMP JUMPDEST PUSH1 0x40 MLOAD DUP1 SWAP2 SUB SWAP1 RETURN JUMPDEST PUSH3 0x269 PUSH3 0x5D4 JUMP JUMPDEST PUSH1 0x40 MLOAD PUSH3 0x278 SWAP2 SWAP1 PUSH3 0x1A7D JUMP JUMPDEST PUSH1 0x40 MLOAD DUP1 SWAP2 SUB SWAP1 RETURN JUMPDEST PUSH3 0x29F PUSH1 0x4 DUP1 CALLDATASIZE SUB DUP2 ADD SWAP1 PUSH3 0x299 SWAP2 SWAP1 PUSH3 0x13A7 JUMP JUMPDEST PUSH3 0x5DA JUMP JUMPDEST PUSH1 0x40 MLOAD PUSH3 0x2AE SWAP2 SWAP1 PUSH3 0x18E6 JUMP JUMPDEST PUSH1 0x40 MLOAD DUP1 SWAP2 SUB SWAP1 RETURN JUMPDEST PUSH3 0x2D5 PUSH1 0x4 DUP1 CALLDATASIZE SUB DUP2 ADD SWAP1 PUSH3 0x2CF SWAP2 SWAP1 PUSH3 0x1452 JUMP JUMPDEST PUSH3 0x673 JUMP JUMPDEST STOP JUMPDEST PUSH3 0x2F5 PUSH1 0x4 DUP1 CALLDATASIZE SUB DUP2 ADD SWAP1 PUSH3 0x2EF SWAP2 SWAP1 PUSH3 0x14FF JUMP JUMPDEST PUSH3 0x840 JUMP JUMPDEST PUSH1 0x40 MLOAD PUSH3 0x304 SWAP2 SWAP1 PUSH3 0x1812 JUMP JUMPDEST PUSH1 0x40 MLOAD DUP1 SWAP2 SUB SWAP1 RETURN JUMPDEST PUSH3 0x32B PUSH1 0x4 DUP1 CALLDATASIZE SUB DUP2 ADD SWAP1 PUSH3 0x325 SWAP2 SWAP1 PUSH3 0x14B8 JUMP JUMPDEST PUSH3 0x8FE JUMP JUMPDEST PUSH1 0x40 MLOAD PUSH3 0x33A SWAP2 SWAP1 PUSH3 0x1A7D JUMP JUMPDEST PUSH1 0x40 MLOAD DUP1 SWAP2 SUB SWAP1 RETURN JUMPDEST PUSH3 0x34D PUSH3 0xBAD JUMP JUMPDEST PUSH1 0x40 MLOAD PUSH3 0x35C SWAP2 SWAP1 PUSH3 0x190A JUMP JUMPDEST PUSH1 0x40 MLOAD DUP1 SWAP2 SUB SWAP1 RETURN JUMPDEST PUSH3 0x383 PUSH1 0x4 DUP1 CALLDATASIZE SUB DUP2 ADD SWAP1 PUSH3 0x37D SWAP2 SWAP1 PUSH3 0x140B JUMP JUMPDEST PUSH3 0xBCC JUMP JUMPDEST PUSH1 0x40 MLOAD PUSH3 0x392 SWAP2 SWAP1 PUSH3 0x1812 JUMP JUMPDEST PUSH1 0x40 MLOAD DUP1 SWAP2 SUB SWAP1 RETURN JUMPDEST PUSH3 0x3A5 PUSH3 0xC65 JUMP JUMPDEST PUSH1 0x40 MLOAD PUSH3 0x3B4 SWAP2 SWAP1 PUSH3 0x1A7D JUMP JUMPDEST PUSH1 0x40 MLOAD DUP1 SWAP2 SUB SWAP1 RETURN JUMPDEST PUSH3 0x3DB PUSH1 0x4 DUP1 CALLDATASIZE SUB DUP2 ADD SWAP1 PUSH3 0x3D5 SWAP2 SWAP1 PUSH3 0x13A7 JUMP JUMPDEST PUSH3 0xC6B JUMP JUMPDEST STOP JUMPDEST PUSH1 0x60 PUSH1 0x1 DUP1 SLOAD PUSH3 0x3EE SWAP1 PUSH3 0x1C31 JUMP JUMPDEST DUP1 PUSH1 0x1F ADD PUSH1 0x20 DUP1 SWAP2 DIV MUL PUSH1 0x20 ADD PUSH1 0x40 MLOAD SWAP1 DUP2 ADD PUSH1 0x40 MSTORE DUP1 SWAP3 SWAP2 SWAP1 DUP2 DUP2 MSTORE PUSH1 0x20 ADD DUP3 DUP1 SLOAD PUSH3 0x41C SWAP1 PUSH3 0x1C31 JUMP JUMPDEST DUP1 ISZERO PUSH3 0x46D JUMPI DUP1 PUSH1 0x1F LT PUSH3 0x441 JUMPI PUSH2 0x100 DUP1 DUP4 SLOAD DIV MUL DUP4 MSTORE SWAP2 PUSH1 0x20 ADD SWAP2 PUSH3 0x46D JUMP JUMPDEST DUP3 ADD SWAP2 SWAP1 PUSH1 0x0 MSTORE PUSH1 0x20 PUSH1 0x0 KECCAK256 SWAP1 JUMPDEST DUP2 SLOAD DUP2 MSTORE SWAP1 PUSH1 0x1 ADD SWAP1 PUSH1 0x20 ADD DUP1 DUP4 GT PUSH3 0x44F JUMPI DUP3 SWAP1 SUB PUSH1 0x1F AND DUP3 ADD SWAP2 JUMPDEST POP POP POP POP POP SWAP1 POP SWAP1 JUMP JUMPDEST PUSH1 0x2 SLOAD DUP2 JUMP JUMPDEST PUSH1 0x9 PUSH1 0x20 MSTORE DUP1 PUSH1 0x0 MSTORE PUSH1 0x40 PUSH1 0x0 KECCAK256 PUSH1 0x0 SWAP2 POP SLOAD SWAP1 PUSH2 0x100 EXP SWAP1 DIV PUSH20 0xFFFFFFFFFFFFFFFFFFFFFFFFFFFFFFFFFFFFFFFF AND DUP2 JUMP JUMPDEST PUSH1 0x7 PUSH1 0x20 MSTORE DUP1 PUSH1 0x0 MSTORE PUSH1 0x40 PUSH1 0x0 KECCAK256 PUSH1 0x0 SWAP2 POP SLOAD SWAP1 PUSH2 0x100 EXP SWAP1 DIV PUSH1 0xFF AND DUP2 JUMP JUMPDEST PUSH3 0x4DA PUSH3 0xD6F JUMP JUMPDEST PUSH20 0xFFFFFFFFFFFFFFFFFFFFFFFFFFFFFFFFFFFFFFFF AND PUSH3 0x4FA PUSH3 0x5AB JUMP JUMPDEST PUSH20 0xFFFFFFFFFFFFFFFFFFFFFFFFFFFFFFFFFFFFFFFF AND EQ PUSH3 0x553 JUMPI PUSH1 0x40 MLOAD PUSH32 0x8C379A000000000000000000000000000000000000000000000000000000000 DUP2 MSTORE PUSH1 0x4 ADD PUSH3 0x54A SWAP1 PUSH3 0x1A17 JUMP JUMPDEST PUSH1 0x40 MLOAD DUP1 SWAP2 SUB SWAP1 REVERT JUMPDEST PUSH3 0x55F PUSH1 0x0 PUSH3 0xD77 JUMP JUMPDEST JUMP JUMPDEST PUSH1 0x3 DUP2 DUP2 SLOAD DUP2 LT PUSH3 0x572 JUMPI PUSH1 0x0 DUP1 REVERT JUMPDEST SWAP1 PUSH1 0x0 MSTORE PUSH1 0x20 PUSH1 0x0 KECCAK256 ADD PUSH1 0x0 SWAP2 POP SLOAD SWAP1 PUSH2 0x100 EXP SWAP1 DIV PUSH20 0xFFFFFFFFFFFFFFFFFFFFFFFFFFFFFFFFFFFFFFFF AND DUP2 JUMP JUMPDEST PUSH1 0x0 PUSH1 0x8 SLOAD SWAP1 POP SWAP1 JUMP JUMPDEST PUSH1 0x0 DUP1 PUSH1 0x0 SWAP1 SLOAD SWAP1 PUSH2 0x100 EXP SWAP1 DIV PUSH20 0xFFFFFFFFFFFFFFFFFFFFFFFFFFFFFFFFFFFFFFFF AND SWAP1 POP SWAP1 JUMP JUMPDEST PUSH1 0x5 SLOAD DUP2 JUMP JUMPDEST PUSH1 0x60 PUSH1 0x6 PUSH1 0x0 DUP4 PUSH20 0xFFFFFFFFFFFFFFFFFFFFFFFFFFFFFFFFFFFFFFFF AND PUSH20 0xFFFFFFFFFFFFFFFFFFFFFFFFFFFFFFFFFFFFFFFF AND DUP2 MSTORE PUSH1 0x20 ADD SWAP1 DUP2 MSTORE PUSH1 0x20 ADD PUSH1 0x0 KECCAK256 DUP1 SLOAD DUP1 PUSH1 0x20 MUL PUSH1 0x20 ADD PUSH1 0x40 MLOAD SWAP1 DUP2 ADD PUSH1 0x40 MSTORE DUP1 SWAP3 SWAP2 SWAP1 DUP2 DUP2 MSTORE PUSH1 0x20 ADD DUP3 DUP1 SLOAD DUP1 ISZERO PUSH3 0x667 JUMPI PUSH1 0x20 MUL DUP3 ADD SWAP2 SWAP1 PUSH1 0x0 MSTORE PUSH1 0x20 PUSH1 0x0 KECCAK256 SWAP1 JUMPDEST DUP2 SLOAD DUP2 MSTORE PUSH1 0x20 ADD SWAP1 PUSH1 0x1 ADD SWAP1 DUP1 DUP4 GT PUSH3 0x652 JUMPI JUMPDEST POP POP POP POP POP SWAP1 POP SWAP2 SWAP1 POP JUMP JUMPDEST PUSH3 0x67D PUSH3 0xD6F JUMP JUMPDEST PUSH20 0xFFFFFFFFFFFFFFFFFFFFFFFFFFFFFFFFFFFFFFFF AND PUSH3 0x69D PUSH3 0x5AB JUMP JUMPDEST PUSH20 0xFFFFFFFFFFFFFFFFFFFFFFFFFFFFFFFFFFFFFFFF AND EQ PUSH3 0x6F6 JUMPI PUSH1 0x40 MLOAD PUSH32 0x8C379A000000000000000000000000000000000000000000000000000000000 DUP2 MSTORE PUSH1 0x4 ADD PUSH3 0x6ED SWAP1 PUSH3 0x1A17 JUMP JUMPDEST PUSH1 0x40 MLOAD DUP1 SWAP2 SUB SWAP1 REVERT JUMPDEST PUSH1 0x3 DUP1 SLOAD SWAP1 POP DUP2 GT ISZERO PUSH3 0x741 JUMPI PUSH1 0x40 MLOAD PUSH32 0x8C379A000000000000000000000000000000000000000000000000000000000 DUP2 MSTORE PUSH1 0x4 ADD PUSH3 0x738 SWAP1 PUSH3 0x194B JUMP JUMPDEST PUSH1 0x40 MLOAD DUP1 SWAP2 SUB SWAP1 REVERT JUMPDEST DUP2 PUSH1 0x3 SWAP1 DUP1 MLOAD SWAP1 PUSH1 0x20 ADD SWAP1 PUSH3 0x759 SWAP3 SWAP2 SWAP1 PUSH3 0x11E1 JUMP JUMPDEST POP DUP1 PUSH1 0x4 DUP2 SWAP1 SSTORE POP PUSH1 0x3 DUP1 SLOAD SWAP1 POP PUSH1 0x5 DUP2 SWAP1 SSTORE POP PUSH1 0x0 JUMPDEST PUSH1 0x3 DUP1 SLOAD SWAP1 POP DUP2 LT ISZERO PUSH3 0x83B JUMPI PUSH1 0x6 PUSH1 0x0 PUSH1 0x3 DUP4 DUP2 SLOAD DUP2 LT PUSH3 0x799 JUMPI PUSH3 0x798 PUSH3 0x1D7B JUMP JUMPDEST JUMPDEST SWAP1 PUSH1 0x0 MSTORE PUSH1 0x20 PUSH1 0x0 KECCAK256 ADD PUSH1 0x0 SWAP1 SLOAD SWAP1 PUSH2 0x100 EXP SWAP1 DIV PUSH20 0xFFFFFFFFFFFFFFFFFFFFFFFFFFFFFFFFFFFFFFFF AND PUSH20 0xFFFFFFFFFFFFFFFFFFFFFFFFFFFFFFFFFFFFFFFF AND PUSH20 0xFFFFFFFFFFFFFFFFFFFFFFFFFFFFFFFFFFFFFFFF AND DUP2 MSTORE PUSH1 0x20 ADD SWAP1 DUP2 MSTORE PUSH1 0x20 ADD PUSH1 0x0 KECCAK256 DUP2 SWAP1 DUP1 PUSH1 0x1 DUP2 SLOAD ADD DUP1 DUP3 SSTORE DUP1 SWAP2 POP POP PUSH1 0x1 SWAP1 SUB SWAP1 PUSH1 0x0 MSTORE PUSH1 0x20 PUSH1 0x0 KECCAK256 ADD PUSH1 0x0 SWAP1 SWAP2 SWAP1 SWAP2 SWAP1 SWAP2 POP SSTORE DUP1 DUP1 PUSH3 0x832 SWAP1 PUSH3 0x1C9D JUMP JUMPDEST SWAP2 POP POP PUSH3 0x770 JUMP JUMPDEST POP POP POP JUMP JUMPDEST PUSH1 0x0 PUSH1 0x9 PUSH1 0x0 DUP4 DUP2 MSTORE PUSH1 0x20 ADD SWAP1 DUP2 MSTORE PUSH1 0x20 ADD PUSH1 0x0 KECCAK256 PUSH1 0x0 SWAP1 SLOAD SWAP1 PUSH2 0x100 EXP SWAP1 DIV PUSH20 0xFFFFFFFFFFFFFFFFFFFFFFFFFFFFFFFFFFFFFFFF AND PUSH20 0xFFFFFFFFFFFFFFFFFFFFFFFFFFFFFFFFFFFFFFFF AND PUSH4 0xF7260D3E PUSH1 0x40 MLOAD DUP2 PUSH4 0xFFFFFFFF AND PUSH1 0xE0 SHL DUP2 MSTORE PUSH1 0x4 ADD PUSH1 0x20 PUSH1 0x40 MLOAD DUP1 DUP4 SUB DUP2 DUP7 DUP1 EXTCODESIZE ISZERO DUP1 ISZERO PUSH3 0x8BC JUMPI PUSH1 0x0 DUP1 REVERT JUMPDEST POP GAS STATICCALL ISZERO DUP1 ISZERO PUSH3 0x8D1 JUMPI RETURNDATASIZE PUSH1 0x0 DUP1 RETURNDATACOPY RETURNDATASIZE PUSH1 0x0 REVERT JUMPDEST POP POP POP POP PUSH1 0x40 MLOAD RETURNDATASIZE PUSH1 0x1F NOT PUSH1 0x1F DUP3 ADD AND DUP3 ADD DUP1 PUSH1 0x40 MSTORE POP DUP2 ADD SWAP1 PUSH3 0x8F7 SWAP2 SWAP1 PUSH3 0x13D9 JUMP JUMPDEST SWAP1 POP SWAP2 SWAP1 POP JUMP JUMPDEST PUSH1 0x0 CALLER PUSH20 0xFFFFFFFFFFFFFFFFFFFFFFFFFFFFFFFFFFFFFFFF AND PUSH1 0x3 DUP4 DUP2 SLOAD DUP2 LT PUSH3 0x92E JUMPI PUSH3 0x92D PUSH3 0x1D7B JUMP JUMPDEST JUMPDEST SWAP1 PUSH1 0x0 MSTORE PUSH1 0x20 PUSH1 0x0 KECCAK256 ADD PUSH1 0x0 SWAP1 SLOAD SWAP1 PUSH2 0x100 EXP SWAP1 DIV PUSH20 0xFFFFFFFFFFFFFFFFFFFFFFFFFFFFFFFFFFFFFFFF AND PUSH20 0xFFFFFFFFFFFFFFFFFFFFFFFFFFFFFFFFFFFFFFFF AND EQ PUSH3 0x9B2 JUMPI PUSH1 0x40 MLOAD PUSH32 0x8C379A000000000000000000000000000000000000000000000000000000000 DUP2 MSTORE PUSH1 0x4 ADD PUSH3 0x9A9 SWAP1 PUSH3 0x19D3 JUMP JUMPDEST PUSH1 0x40 MLOAD DUP1 SWAP2 SUB SWAP1 REVERT JUMPDEST DUP3 ISZERO PUSH3 0xAB0 JUMPI PUSH1 0x7 PUSH1 0x0 DUP4 DUP2 MSTORE PUSH1 0x20 ADD SWAP1 DUP2 MSTORE PUSH1 0x20 ADD PUSH1 0x0 KECCAK256 PUSH1 0x0 SWAP1 SLOAD SWAP1 PUSH2 0x100 EXP SWAP1 DIV PUSH1 0xFF AND ISZERO PUSH3 0x9E6 JUMPI PUSH3 0xAAA JUMP JUMPDEST PUSH1 0x2 PUSH1 0x0 DUP2 SLOAD DUP1 SWAP3 SWAP2 SWAP1 PUSH3 0x9FB SWAP1 PUSH3 0x1C9D JUMP JUMPDEST SWAP2 SWAP1 POP SSTORE POP PUSH1 0x1 PUSH1 0x7 PUSH1 0x0 DUP5 DUP2 MSTORE PUSH1 0x20 ADD SWAP1 DUP2 MSTORE PUSH1 0x20 ADD PUSH1 0x0 KECCAK256 PUSH1 0x0 PUSH2 0x100 EXP DUP2 SLOAD DUP2 PUSH1 0xFF MUL NOT AND SWAP1 DUP4 ISZERO ISZERO MUL OR SWAP1 SSTORE POP PUSH32 0x5C8EA801DBD61AA783F3AF89DE4993C7D089D3939AF9C283E43DFCC4A7C82F81 PUSH1 0x3 DUP4 DUP2 SLOAD DUP2 LT PUSH3 0xA64 JUMPI PUSH3 0xA63 PUSH3 0x1D7B JUMP JUMPDEST JUMPDEST SWAP1 PUSH1 0x0 MSTORE PUSH1 0x20 PUSH1 0x0 KECCAK256 ADD PUSH1 0x0 SWAP1 SLOAD SWAP1 PUSH2 0x100 EXP SWAP1 DIV PUSH20 0xFFFFFFFFFFFFFFFFFFFFFFFFFFFFFFFFFFFFFFFF AND PUSH1 0x1 PUSH1 0x40 MLOAD PUSH3 0xAA1 SWAP3 SWAP2 SWAP1 PUSH3 0x18B9 JUMP JUMPDEST PUSH1 0x40 MLOAD DUP1 SWAP2 SUB SWAP1 LOG1 JUMPDEST PUSH3 0xBA2 JUMP JUMPDEST PUSH1 0x7 PUSH1 0x0 DUP4 DUP2 MSTORE PUSH1 0x20 ADD SWAP1 DUP2 MSTORE PUSH1 0x20 ADD PUSH1 0x0 KECCAK256 PUSH1 0x0 SWAP1 SLOAD SWAP1 PUSH2 0x100 EXP SWAP1 DIV PUSH1 0xFF AND ISZERO PUSH3 0xBA0 JUMPI PUSH1 0x2 PUSH1 0x0 DUP2 SLOAD DUP1 SWAP3 SWAP2 SWAP1 PUSH3 0xAEC SWAP1 PUSH3 0x1C02 JUMP JUMPDEST SWAP2 SWAP1 POP SSTORE POP PUSH1 0x0 PUSH1 0x7 PUSH1 0x0 DUP5 DUP2 MSTORE PUSH1 0x20 ADD SWAP1 DUP2 MSTORE PUSH1 0x20 ADD PUSH1 0x0 KECCAK256 PUSH1 0x0 PUSH2 0x100 EXP DUP2 SLOAD DUP2 PUSH1 0xFF MUL NOT AND SWAP1 DUP4 ISZERO ISZERO MUL OR SWAP1 SSTORE POP PUSH32 0x5C8EA801DBD61AA783F3AF89DE4993C7D089D3939AF9C283E43DFCC4A7C82F81 PUSH1 0x3 DUP4 DUP2 SLOAD DUP2 LT PUSH3 0xB55 JUMPI PUSH3 0xB54 PUSH3 0x1D7B JUMP JUMPDEST JUMPDEST SWAP1 PUSH1 0x0 MSTORE PUSH1 0x20 PUSH1 0x0 KECCAK256 ADD PUSH1 0x0 SWAP1 SLOAD SWAP1 PUSH2 0x100 EXP SWAP1 DIV PUSH20 0xFFFFFFFFFFFFFFFFFFFFFFFFFFFFFFFFFFFFFFFF AND PUSH1 0x0 PUSH1 0x40 MLOAD PUSH3 0xB92 SWAP3 SWAP2 SWAP1 PUSH3 0x18B9 JUMP JUMPDEST PUSH1 0x40 MLOAD DUP1 SWAP2 SUB SWAP1 LOG1 PUSH3 0xBA1 JUMP JUMPDEST JUMPDEST JUMPDEST PUSH1 0x2 SLOAD SWAP1 POP SWAP3 SWAP2 POP POP JUMP JUMPDEST PUSH1 0x0 PUSH1 0x4 SLOAD PUSH1 0x2 SLOAD LT ISZERO PUSH3 0xBC4 JUMPI PUSH1 0x0 PUSH3 0xBC7 JUMP JUMPDEST PUSH1 0x1 JUMPDEST SWAP1 POP SWAP1 JUMP JUMPDEST PUSH1 0x0 PUSH3 0xBD8 PUSH3 0xD6F JUMP JUMPDEST PUSH20 0xFFFFFFFFFFFFFFFFFFFFFFFFFFFFFFFFFFFFFFFF AND PUSH3 0xBF8 PUSH3 0x5AB JUMP JUMPDEST PUSH20 0xFFFFFFFFFFFFFFFFFFFFFFFFFFFFFFFFFFFFFFFF AND EQ PUSH3 0xC51 JUMPI PUSH1 0x40 MLOAD PUSH32 0x8C379A000000000000000000000000000000000000000000000000000000000 DUP2 MSTORE PUSH1 0x4 ADD PUSH3 0xC48 SWAP1 PUSH3 0x1A17 JUMP JUMPDEST PUSH1 0x40 MLOAD DUP1 SWAP2 SUB SWAP1 REVERT JUMPDEST PUSH3 0xC5D DUP4 DUP4 PUSH3 0xE3B JUMP JUMPDEST SWAP1 POP SWAP3 SWAP2 POP POP JUMP JUMPDEST PUSH1 0x4 SLOAD DUP2 JUMP JUMPDEST PUSH3 0xC75 PUSH3 0xD6F JUMP JUMPDEST PUSH20 0xFFFFFFFFFFFFFFFFFFFFFFFFFFFFFFFFFFFFFFFF AND PUSH3 0xC95 PUSH3 0x5AB JUMP JUMPDEST PUSH20 0xFFFFFFFFFFFFFFFFFFFFFFFFFFFFFFFFFFFFFFFF AND EQ PUSH3 0xCEE JUMPI PUSH1 0x40 MLOAD PUSH32 0x8C379A000000000000000000000000000000000000000000000000000000000 DUP2 MSTORE PUSH1 0x4 ADD PUSH3 0xCE5 SWAP1 PUSH3 0x1A17 JUMP JUMPDEST PUSH1 0x40 MLOAD DUP1 SWAP2 SUB SWAP1 REVERT JUMPDEST PUSH1 0x0 PUSH20 0xFFFFFFFFFFFFFFFFFFFFFFFFFFFFFFFFFFFFFFFF AND DUP2 PUSH20 0xFFFFFFFFFFFFFFFFFFFFFFFFFFFFFFFFFFFFFFFF AND EQ ISZERO PUSH3 0xD61 JUMPI PUSH1 0x40 MLOAD PUSH32 0x8C379A000000000000000000000000000000000000000000000000000000000 DUP2 MSTORE PUSH1 0x4 ADD PUSH3 0xD58 SWAP1 PUSH3 0x19B1 JUMP JUMPDEST PUSH1 0x40 MLOAD DUP1 SWAP2 SUB SWAP1 REVERT JUMPDEST PUSH3 0xD6C DUP2 PUSH3 0xD77 JUMP JUMPDEST POP JUMP JUMPDEST PUSH1 0x0 CALLER SWAP1 POP SWAP1 JUMP JUMPDEST PUSH1 0x0 DUP1 PUSH1 0x0 SWAP1 SLOAD SWAP1 PUSH2 0x100 EXP SWAP1 DIV PUSH20 0xFFFFFFFFFFFFFFFFFFFFFFFFFFFFFFFFFFFFFFFF AND SWAP1 POP DUP2 PUSH1 0x0 DUP1 PUSH2 0x100 EXP DUP2 SLOAD DUP2 PUSH20 0xFFFFFFFFFFFFFFFFFFFFFFFFFFFFFFFFFFFFFFFF MUL NOT AND SWAP1 DUP4 PUSH20 0xFFFFFFFFFFFFFFFFFFFFFFFFFFFFFFFFFFFFFFFF AND MUL OR SWAP1 SSTORE POP DUP2 PUSH20 0xFFFFFFFFFFFFFFFFFFFFFFFFFFFFFFFFFFFFFFFF AND DUP2 PUSH20 0xFFFFFFFFFFFFFFFFFFFFFFFFFFFFFFFFFFFFFFFF AND PUSH32 0x8BE0079C531659141344CD1FD0A4F28419497F9722A3DAAFE3B4186F6B6457E0 PUSH1 0x40 MLOAD PUSH1 0x40 MLOAD DUP1 SWAP2 SUB SWAP1 LOG3 POP POP JUMP JUMPDEST PUSH1 0x0 DUP1 PUSH20 0xFFFFFFFFFFFFFFFFFFFFFFFFFFFFFFFFFFFFFFFF AND DUP4 PUSH20 0xFFFFFFFFFFFFFFFFFFFFFFFFFFFFFFFFFFFFFFFF AND EQ ISZERO PUSH3 0xEAF JUMPI PUSH1 0x40 MLOAD PUSH32 0x8C379A000000000000000000000000000000000000000000000000000000000 DUP2 MSTORE PUSH1 0x4 ADD PUSH3 0xEA6 SWAP1 PUSH3 0x198F JUMP JUMPDEST PUSH1 0x40 MLOAD DUP1 SWAP2 SUB SWAP1 REVERT JUMPDEST PUSH1 0x0 PUSH20 0xFFFFFFFFFFFFFFFFFFFFFFFFFFFFFFFFFFFFFFFF AND DUP3 PUSH20 0xFFFFFFFFFFFFFFFFFFFFFFFFFFFFFFFFFFFFFFFF AND EQ ISZERO PUSH3 0xF22 JUMPI PUSH1 0x40 MLOAD PUSH32 0x8C379A000000000000000000000000000000000000000000000000000000000 DUP2 MSTORE PUSH1 0x4 ADD PUSH3 0xF19 SWAP1 PUSH3 0x1A39 JUMP JUMPDEST PUSH1 0x40 MLOAD DUP1 SWAP2 SUB SWAP1 REVERT JUMPDEST PUSH1 0x0 PUSH1 0x40 MLOAD DUP1 PUSH1 0x20 ADD PUSH3 0xF36 SWAP1 PUSH3 0x1270 JUMP JUMPDEST PUSH1 0x20 DUP3 ADD DUP2 SUB DUP3 MSTORE PUSH1 0x1F NOT PUSH1 0x1F DUP3 ADD AND PUSH1 0x40 MSTORE POP SWAP1 POP PUSH1 0x0 DUP5 DUP5 TIMESTAMP PUSH1 0x40 MLOAD PUSH1 0x20 ADD PUSH3 0xF65 SWAP4 SWAP3 SWAP2 SWAP1 PUSH3 0x17CF JUMP JUMPDEST PUSH1 0x40 MLOAD PUSH1 0x20 DUP2 DUP4 SUB SUB DUP2 MSTORE SWAP1 PUSH1 0x40 MSTORE DUP1 MLOAD SWAP1 PUSH1 0x20 ADD KECCAK256 SWAP1 POP PUSH3 0xF8B PUSH1 0x0 DUP3 DUP5 PUSH3 0x10C7 JUMP JUMPDEST SWAP3 POP DUP3 PUSH20 0xFFFFFFFFFFFFFFFFFFFFFFFFFFFFFFFFFFFFFFFF AND PUSH4 0x1794BB3C DUP7 DUP7 PUSH1 0x8 SLOAD PUSH1 0x40 MLOAD DUP5 PUSH4 0xFFFFFFFF AND PUSH1 0xE0 SHL DUP2 MSTORE PUSH1 0x4 ADD PUSH3 0xFCE SWAP4 SWAP3 SWAP2 SWAP1 PUSH3 0x187C JUMP JUMPDEST PUSH1 0x0 PUSH1 0x40 MLOAD DUP1 DUP4 SUB DUP2 PUSH1 0x0 DUP8 DUP1 EXTCODESIZE ISZERO DUP1 ISZERO PUSH3 0xFE9 JUMPI PUSH1 0x0 DUP1 REVERT JUMPDEST POP GAS CALL ISZERO DUP1 ISZERO PUSH3 0xFFE JUMPI RETURNDATASIZE PUSH1 0x0 DUP1 RETURNDATACOPY RETURNDATASIZE PUSH1 0x0 REVERT JUMPDEST POP POP POP POP DUP3 PUSH1 0x9 PUSH1 0x0 PUSH1 0x8 SLOAD DUP2 MSTORE PUSH1 0x20 ADD SWAP1 DUP2 MSTORE PUSH1 0x20 ADD PUSH1 0x0 KECCAK256 PUSH1 0x0 PUSH2 0x100 EXP DUP2 SLOAD DUP2 PUSH20 0xFFFFFFFFFFFFFFFFFFFFFFFFFFFFFFFFFFFFFFFF MUL NOT AND SWAP1 DUP4 PUSH20 0xFFFFFFFFFFFFFFFFFFFFFFFFFFFFFFFFFFFFFFFF AND MUL OR SWAP1 SSTORE POP PUSH1 0x8 PUSH1 0x0 DUP2 SLOAD DUP1 SWAP3 SWAP2 SWAP1 PUSH3 0x106B SWAP1 PUSH3 0x1C9D JUMP JUMPDEST SWAP2 SWAP1 POP SSTORE POP PUSH32 0x4DDA9A6D0BA03769E9813C47681795A7210F951E6EF31E64772E13B9EA0F1406 DUP6 DUP6 DUP6 PUSH1 0x1 PUSH1 0x8 SLOAD PUSH3 0x10A5 SWAP2 SWAP1 PUSH3 0x1B47 JUMP JUMPDEST PUSH1 0x40 MLOAD PUSH3 0x10B7 SWAP5 SWAP4 SWAP3 SWAP2 SWAP1 PUSH3 0x182F JUMP JUMPDEST PUSH1 0x40 MLOAD DUP1 SWAP2 SUB SWAP1 LOG1 POP POP SWAP3 SWAP2 POP POP JUMP JUMPDEST PUSH1 0x0 DUP1 DUP5 SELFBALANCE LT ISZERO PUSH3 0x1110 JUMPI PUSH1 0x40 MLOAD PUSH32 0x8C379A000000000000000000000000000000000000000000000000000000000 DUP2 MSTORE PUSH1 0x4 ADD PUSH3 0x1107 SWAP1 PUSH3 0x1A5B JUMP JUMPDEST PUSH1 0x40 MLOAD DUP1 SWAP2 SUB SWAP1 REVERT JUMPDEST PUSH1 0x0 DUP4 MLOAD EQ ISZERO PUSH3 0x1158 JUMPI PUSH1 0x40 MLOAD PUSH32 0x8C379A000000000000000000000000000000000000000000000000000000000 DUP2 MSTORE PUSH1 0x4 ADD PUSH3 0x114F SWAP1 PUSH3 0x196D JUMP JUMPDEST PUSH1 0x40 MLOAD DUP1 SWAP2 SUB SWAP1 REVERT JUMPDEST DUP4 DUP4 MLOAD PUSH1 0x20 DUP6 ADD DUP8 CREATE2 SWAP1 POP PUSH1 0x0 PUSH20 0xFFFFFFFFFFFFFFFFFFFFFFFFFFFFFFFFFFFFFFFF AND DUP2 PUSH20 0xFFFFFFFFFFFFFFFFFFFFFFFFFFFFFFFFFFFFFFFF AND EQ ISZERO PUSH3 0x11D6 JUMPI PUSH1 0x40 MLOAD PUSH32 0x8C379A000000000000000000000000000000000000000000000000000000000 DUP2 MSTORE PUSH1 0x4 ADD PUSH3 0x11CD SWAP1 PUSH3 0x19F5 JUMP JUMPDEST PUSH1 0x40 MLOAD DUP1 SWAP2 SUB SWAP1 REVERT JUMPDEST DUP1 SWAP2 POP POP SWAP4 SWAP3 POP POP POP JUMP JUMPDEST DUP3 DUP1 SLOAD DUP3 DUP3 SSTORE SWAP1 PUSH1 0x0 MSTORE PUSH1 0x20 PUSH1 0x0 KECCAK256 SWAP1 DUP2 ADD SWAP3 DUP3 ISZERO PUSH3 0x125D JUMPI SWAP2 PUSH1 0x20 MUL DUP3 ADD JUMPDEST DUP3 DUP2 GT ISZERO PUSH3 0x125C JUMPI DUP3 MLOAD DUP3 PUSH1 0x0 PUSH2 0x100 EXP DUP2 SLOAD DUP2 PUSH20 0xFFFFFFFFFFFFFFFFFFFFFFFFFFFFFFFFFFFFFFFF MUL NOT AND SWAP1 DUP4 PUSH20 0xFFFFFFFFFFFFFFFFFFFFFFFFFFFFFFFFFFFFFFFF AND MUL OR SWAP1 SSTORE POP SWAP2 PUSH1 0x20 ADD SWAP2 SWAP1 PUSH1 0x1 ADD SWAP1 PUSH3 0x1202 JUMP JUMPDEST JUMPDEST POP SWAP1 POP PUSH3 0x126C SWAP2 SWAP1 PUSH3 0x127E JUMP JUMPDEST POP SWAP1 JUMP JUMPDEST PUSH2 0x23E9 DUP1 PUSH3 0x203D DUP4 CODECOPY ADD SWAP1 JUMP JUMPDEST JUMPDEST DUP1 DUP3 GT ISZERO PUSH3 0x1299 JUMPI PUSH1 0x0 DUP2 PUSH1 0x0 SWAP1 SSTORE POP PUSH1 0x1 ADD PUSH3 0x127F JUMP JUMPDEST POP SWAP1 JUMP JUMPDEST PUSH1 0x0 PUSH3 0x12B4 PUSH3 0x12AE DUP5 PUSH3 0x1AC3 JUMP JUMPDEST PUSH3 0x1A9A JUMP JUMPDEST SWAP1 POP DUP1 DUP4 DUP3 MSTORE PUSH1 0x20 DUP3 ADD SWAP1 POP DUP3 DUP6 PUSH1 0x20 DUP7 MUL DUP3 ADD GT ISZERO PUSH3 0x12DA JUMPI PUSH3 0x12D9 PUSH3 0x1DDE JUMP JUMPDEST JUMPDEST PUSH1 0x0 JUMPDEST DUP6 DUP2 LT ISZERO PUSH3 0x130E JUMPI DUP2 PUSH3 0x12F3 DUP9 DUP3 PUSH3 0x1318 JUMP JUMPDEST DUP5 MSTORE PUSH1 0x20 DUP5 ADD SWAP4 POP PUSH1 0x20 DUP4 ADD SWAP3 POP POP PUSH1 0x1 DUP2 ADD SWAP1 POP PUSH3 0x12DD JUMP JUMPDEST POP POP POP SWAP4 SWAP3 POP POP POP JUMP JUMPDEST PUSH1 0x0 DUP2 CALLDATALOAD SWAP1 POP PUSH3 0x1329 DUP2 PUSH3 0x1FEE JUMP JUMPDEST SWAP3 SWAP2 POP POP JUMP JUMPDEST PUSH1 0x0 DUP2 MLOAD SWAP1 POP PUSH3 0x1340 DUP2 PUSH3 0x1FEE JUMP JUMPDEST SWAP3 SWAP2 POP POP JUMP JUMPDEST PUSH1 0x0 DUP3 PUSH1 0x1F DUP4 ADD SLT PUSH3 0x135E JUMPI PUSH3 0x135D PUSH3 0x1DD9 JUMP JUMPDEST JUMPDEST DUP2 CALLDATALOAD PUSH3 0x1370 DUP5 DUP3 PUSH1 0x20 DUP7 ADD PUSH3 0x129D JUMP JUMPDEST SWAP2 POP POP SWAP3 SWAP2 POP POP JUMP JUMPDEST PUSH1 0x0 DUP2 CALLDATALOAD SWAP1 POP PUSH3 0x138A DUP2 PUSH3 0x2008 JUMP JUMPDEST SWAP3 SWAP2 POP POP JUMP JUMPDEST PUSH1 0x0 DUP2 CALLDATALOAD SWAP1 POP PUSH3 0x13A1 DUP2 PUSH3 0x2022 JUMP JUMPDEST SWAP3 SWAP2 POP POP JUMP JUMPDEST PUSH1 0x0 PUSH1 0x20 DUP3 DUP5 SUB SLT ISZERO PUSH3 0x13C0 JUMPI PUSH3 0x13BF PUSH3 0x1DE8 JUMP JUMPDEST JUMPDEST PUSH1 0x0 PUSH3 0x13D0 DUP5 DUP3 DUP6 ADD PUSH3 0x1318 JUMP JUMPDEST SWAP2 POP POP SWAP3 SWAP2 POP POP JUMP JUMPDEST PUSH1 0x0 PUSH1 0x20 DUP3 DUP5 SUB SLT ISZERO PUSH3 0x13F2 JUMPI PUSH3 0x13F1 PUSH3 0x1DE8 JUMP JUMPDEST JUMPDEST PUSH1 0x0 PUSH3 0x1402 DUP5 DUP3 DUP6 ADD PUSH3 0x132F JUMP JUMPDEST SWAP2 POP POP SWAP3 SWAP2 POP POP JUMP JUMPDEST PUSH1 0x0 DUP1 PUSH1 0x40 DUP4 DUP6 SUB SLT ISZERO PUSH3 0x1425 JUMPI PUSH3 0x1424 PUSH3 0x1DE8 JUMP JUMPDEST JUMPDEST PUSH1 0x0 PUSH3 0x1435 DUP6 DUP3 DUP7 ADD PUSH3 0x1318 JUMP JUMPDEST SWAP3 POP POP PUSH1 0x20 PUSH3 0x1448 DUP6 DUP3 DUP7 ADD PUSH3 0x1318 JUMP JUMPDEST SWAP2 POP POP SWAP3 POP SWAP3 SWAP1 POP JUMP JUMPDEST PUSH1 0x0 DUP1 PUSH1 0x40 DUP4 DUP6 SUB SLT ISZERO PUSH3 0x146C JUMPI PUSH3 0x146B PUSH3 0x1DE8 JUMP JUMPDEST JUMPDEST PUSH1 0x0 DUP4 ADD CALLDATALOAD PUSH8 0xFFFFFFFFFFFFFFFF DUP2 GT ISZERO PUSH3 0x148D JUMPI PUSH3 0x148C PUSH3 0x1DE3 JUMP JUMPDEST JUMPDEST PUSH3 0x149B DUP6 DUP3 DUP7 ADD PUSH3 0x1346 JUMP JUMPDEST SWAP3 POP POP PUSH1 0x20 PUSH3 0x14AE DUP6 DUP3 DUP7 ADD PUSH3 0x1390 JUMP JUMPDEST SWAP2 POP POP SWAP3 POP SWAP3 SWAP1 POP JUMP JUMPDEST PUSH1 0x0 DUP1 PUSH1 0x40 DUP4 DUP6 SUB SLT ISZERO PUSH3 0x14D2 JUMPI PUSH3 0x14D1 PUSH3 0x1DE8 JUMP JUMPDEST JUMPDEST PUSH1 0x0 PUSH3 0x14E2 DUP6 DUP3 DUP7 ADD PUSH3 0x1379 JUMP JUMPDEST SWAP3 POP POP PUSH1 0x20 PUSH3 0x14F5 DUP6 DUP3 DUP7 ADD PUSH3 0x1390 JUMP JUMPDEST SWAP2 POP POP SWAP3 POP SWAP3 SWAP1 POP JUMP JUMPDEST PUSH1 0x0 PUSH1 0x20 DUP3 DUP5 SUB SLT ISZERO PUSH3 0x1518 JUMPI PUSH3 0x1517 PUSH3 0x1DE8 JUMP JUMPDEST JUMPDEST PUSH1 0x0 PUSH3 0x1528 DUP5 DUP3 DUP6 ADD PUSH3 0x1390 JUMP JUMPDEST SWAP2 POP POP SWAP3 SWAP2 POP POP JUMP JUMPDEST PUSH1 0x0 PUSH3 0x153F DUP4 DUP4 PUSH3 0x1792 JUMP JUMPDEST PUSH1 0x20 DUP4 ADD SWAP1 POP SWAP3 SWAP2 POP POP JUMP JUMPDEST PUSH3 0x1556 DUP2 PUSH3 0x1B82 JUMP JUMPDEST DUP3 MSTORE POP POP JUMP JUMPDEST PUSH3 0x1571 PUSH3 0x156B DUP3 PUSH3 0x1B82 JUMP JUMPDEST PUSH3 0x1CEB JUMP JUMPDEST DUP3 MSTORE POP POP JUMP JUMPDEST PUSH1 0x0 PUSH3 0x1584 DUP3 PUSH3 0x1B02 JUMP JUMPDEST PUSH3 0x1590 DUP2 DUP6 PUSH3 0x1B25 JUMP JUMPDEST SWAP4 POP PUSH3 0x159D DUP4 PUSH3 0x1AF2 JUMP JUMPDEST DUP1 PUSH1 0x0 JUMPDEST DUP4 DUP2 LT ISZERO PUSH3 0x15D4 JUMPI DUP2 MLOAD PUSH3 0x15B8 DUP9 DUP3 PUSH3 0x1531 JUMP JUMPDEST SWAP8 POP PUSH3 0x15C5 DUP4 PUSH3 0x1B18 JUMP JUMPDEST SWAP3 POP POP PUSH1 0x1 DUP2 ADD SWAP1 POP PUSH3 0x15A1 JUMP JUMPDEST POP DUP6 SWAP4 POP POP POP POP SWAP3 SWAP2 POP POP JUMP JUMPDEST PUSH3 0x15EC DUP2 PUSH3 0x1B96 JUMP JUMPDEST DUP3 MSTORE POP POP JUMP JUMPDEST PUSH1 0x0 PUSH3 0x15FF DUP3 PUSH3 0x1B0D JUMP JUMPDEST PUSH3 0x160B DUP2 DUP6 PUSH3 0x1B36 JUMP JUMPDEST SWAP4 POP PUSH3 0x161D DUP2 DUP6 PUSH1 0x20 DUP7 ADD PUSH3 0x1BCC JUMP JUMPDEST PUSH3 0x1628 DUP2 PUSH3 0x1DED JUMP JUMPDEST DUP5 ADD SWAP2 POP POP SWAP3 SWAP2 POP POP JUMP JUMPDEST PUSH1 0x0 PUSH3 0x1642 PUSH1 0x3A DUP4 PUSH3 0x1B36 JUMP JUMPDEST SWAP2 POP PUSH3 0x164F DUP3 PUSH3 0x1E0B JUMP JUMPDEST PUSH1 0x40 DUP3 ADD SWAP1 POP SWAP2 SWAP1 POP JUMP JUMPDEST PUSH1 0x0 PUSH3 0x1669 PUSH1 0x20 DUP4 PUSH3 0x1B36 JUMP JUMPDEST SWAP2 POP PUSH3 0x1676 DUP3 PUSH3 0x1E5A JUMP JUMPDEST PUSH1 0x20 DUP3 ADD SWAP1 POP SWAP2 SWAP1 POP JUMP JUMPDEST PUSH1 0x0 PUSH3 0x1690 PUSH1 0x20 DUP4 PUSH3 0x1B36 JUMP JUMPDEST SWAP2 POP PUSH3 0x169D DUP3 PUSH3 0x1E83 JUMP JUMPDEST PUSH1 0x20 DUP3 ADD SWAP1 POP SWAP2 SWAP1 POP JUMP JUMPDEST PUSH1 0x0 PUSH3 0x16B7 PUSH1 0x26 DUP4 PUSH3 0x1B36 JUMP JUMPDEST SWAP2 POP PUSH3 0x16C4 DUP3 PUSH3 0x1EAC JUMP JUMPDEST PUSH1 0x40 DUP3 ADD SWAP1 POP SWAP2 SWAP1 POP JUMP JUMPDEST PUSH1 0x0 PUSH3 0x16DE PUSH1 0x15 DUP4 PUSH3 0x1B36 JUMP JUMPDEST SWAP2 POP PUSH3 0x16EB DUP3 PUSH3 0x1EFB JUMP JUMPDEST PUSH1 0x20 DUP3 ADD SWAP1 POP SWAP2 SWAP1 POP JUMP JUMPDEST PUSH1 0x0 PUSH3 0x1705 PUSH1 0x19 DUP4 PUSH3 0x1B36 JUMP JUMPDEST SWAP2 POP PUSH3 0x1712 DUP3 PUSH3 0x1F24 JUMP JUMPDEST PUSH1 0x20 DUP3 ADD SWAP1 POP SWAP2 SWAP1 POP JUMP JUMPDEST PUSH1 0x0 PUSH3 0x172C PUSH1 0x20 DUP4 PUSH3 0x1B36 JUMP JUMPDEST SWAP2 POP PUSH3 0x1739 DUP3 PUSH3 0x1F4D JUMP JUMPDEST PUSH1 0x20 DUP3 ADD SWAP1 POP SWAP2 SWAP1 POP JUMP JUMPDEST PUSH1 0x0 PUSH3 0x1753 PUSH1 0x23 DUP4 PUSH3 0x1B36 JUMP JUMPDEST SWAP2 POP PUSH3 0x1760 DUP3 PUSH3 0x1F76 JUMP JUMPDEST PUSH1 0x40 DUP3 ADD SWAP1 POP SWAP2 SWAP1 POP JUMP JUMPDEST PUSH1 0x0 PUSH3 0x177A PUSH1 0x1D DUP4 PUSH3 0x1B36 JUMP JUMPDEST SWAP2 POP PUSH3 0x1787 DUP3 PUSH3 0x1FC5 JUMP JUMPDEST PUSH1 0x20 DUP3 ADD SWAP1 POP SWAP2 SWAP1 POP JUMP JUMPDEST PUSH3 0x179D DUP2 PUSH3 0x1BC2 JUMP JUMPDEST DUP3 MSTORE POP POP JUMP JUMPDEST PUSH3 0x17AE DUP2 PUSH3 0x1BC2 JUMP JUMPDEST DUP3 MSTORE POP POP JUMP JUMPDEST PUSH3 0x17C9 PUSH3 0x17C3 DUP3 PUSH3 0x1BC2 JUMP JUMPDEST PUSH3 0x1D13 JUMP JUMPDEST DUP3 MSTORE POP POP JUMP JUMPDEST PUSH1 0x0 PUSH3 0x17DD DUP3 DUP7 PUSH3 0x155C JUMP JUMPDEST PUSH1 0x14 DUP3 ADD SWAP2 POP PUSH3 0x17EF DUP3 DUP6 PUSH3 0x155C JUMP JUMPDEST PUSH1 0x14 DUP3 ADD SWAP2 POP PUSH3 0x1801 DUP3 DUP5 PUSH3 0x17B4 JUMP JUMPDEST PUSH1 0x20 DUP3 ADD SWAP2 POP DUP2 SWAP1 POP SWAP5 SWAP4 POP POP POP POP JUMP JUMPDEST PUSH1 0x0 PUSH1 0x20 DUP3 ADD SWAP1 POP PUSH3 0x1829 PUSH1 0x0 DUP4 ADD DUP5 PUSH3 0x154B JUMP JUMPDEST SWAP3 SWAP2 POP POP JUMP JUMPDEST PUSH1 0x0 PUSH1 0x80 DUP3 ADD SWAP1 POP PUSH3 0x1846 PUSH1 0x0 DUP4 ADD DUP8 PUSH3 0x154B JUMP JUMPDEST PUSH3 0x1855 PUSH1 0x20 DUP4 ADD DUP7 PUSH3 0x154B JUMP JUMPDEST PUSH3 0x1864 PUSH1 0x40 DUP4 ADD DUP6 PUSH3 0x154B JUMP JUMPDEST PUSH3 0x1873 PUSH1 0x60 DUP4 ADD DUP5 PUSH3 0x17A3 JUMP JUMPDEST SWAP6 SWAP5 POP POP POP POP POP JUMP JUMPDEST PUSH1 0x0 PUSH1 0x60 DUP3 ADD SWAP1 POP PUSH3 0x1893 PUSH1 0x0 DUP4 ADD DUP7 PUSH3 0x154B JUMP JUMPDEST PUSH3 0x18A2 PUSH1 0x20 DUP4 ADD DUP6 PUSH3 0x154B JUMP JUMPDEST PUSH3 0x18B1 PUSH1 0x40 DUP4 ADD DUP5 PUSH3 0x17A3 JUMP JUMPDEST SWAP5 SWAP4 POP POP POP POP JUMP JUMPDEST PUSH1 0x0 PUSH1 0x40 DUP3 ADD SWAP1 POP PUSH3 0x18D0 PUSH1 0x0 DUP4 ADD DUP6 PUSH3 0x154B JUMP JUMPDEST PUSH3 0x18DF PUSH1 0x20 DUP4 ADD DUP5 PUSH3 0x15E1 JUMP JUMPDEST SWAP4 SWAP3 POP POP POP JUMP JUMPDEST PUSH1 0x0 PUSH1 0x20 DUP3 ADD SWAP1 POP DUP2 DUP2 SUB PUSH1 0x0 DUP4 ADD MSTORE PUSH3 0x1902 DUP2 DUP5 PUSH3 0x1577 JUMP JUMPDEST SWAP1 POP SWAP3 SWAP2 POP POP JUMP JUMPDEST PUSH1 0x0 PUSH1 0x20 DUP3 ADD SWAP1 POP PUSH3 0x1921 PUSH1 0x0 DUP4 ADD DUP5 PUSH3 0x15E1 JUMP JUMPDEST SWAP3 SWAP2 POP POP JUMP JUMPDEST PUSH1 0x0 PUSH1 0x20 DUP3 ADD SWAP1 POP DUP2 DUP2 SUB PUSH1 0x0 DUP4 ADD MSTORE PUSH3 0x1943 DUP2 DUP5 PUSH3 0x15F2 JUMP JUMPDEST SWAP1 POP SWAP3 SWAP2 POP POP JUMP JUMPDEST PUSH1 0x0 PUSH1 0x20 DUP3 ADD SWAP1 POP DUP2 DUP2 SUB PUSH1 0x0 DUP4 ADD MSTORE PUSH3 0x1966 DUP2 PUSH3 0x1633 JUMP JUMPDEST SWAP1 POP SWAP2 SWAP1 POP JUMP JUMPDEST PUSH1 0x0 PUSH1 0x20 DUP3 ADD SWAP1 POP DUP2 DUP2 SUB PUSH1 0x0 DUP4 ADD MSTORE PUSH3 0x1988 DUP2 PUSH3 0x165A JUMP JUMPDEST SWAP1 POP SWAP2 SWAP1 POP JUMP JUMPDEST PUSH1 0x0 PUSH1 0x20 DUP3 ADD SWAP1 POP DUP2 DUP2 SUB PUSH1 0x0 DUP4 ADD MSTORE PUSH3 0x19AA DUP2 PUSH3 0x1681 JUMP JUMPDEST SWAP1 POP SWAP2 SWAP1 POP JUMP JUMPDEST PUSH1 0x0 PUSH1 0x20 DUP3 ADD SWAP1 POP DUP2 DUP2 SUB PUSH1 0x0 DUP4 ADD MSTORE PUSH3 0x19CC DUP2 PUSH3 0x16A8 JUMP JUMPDEST SWAP1 POP SWAP2 SWAP1 POP JUMP JUMPDEST PUSH1 0x0 PUSH1 0x20 DUP3 ADD SWAP1 POP DUP2 DUP2 SUB PUSH1 0x0 DUP4 ADD MSTORE PUSH3 0x19EE DUP2 PUSH3 0x16CF JUMP JUMPDEST SWAP1 POP SWAP2 SWAP1 POP JUMP JUMPDEST PUSH1 0x0 PUSH1 0x20 DUP3 ADD SWAP1 POP DUP2 DUP2 SUB PUSH1 0x0 DUP4 ADD MSTORE PUSH3 0x1A10 DUP2 PUSH3 0x16F6 JUMP JUMPDEST SWAP1 POP SWAP2 SWAP1 POP JUMP JUMPDEST PUSH1 0x0 PUSH1 0x20 DUP3 ADD SWAP1 POP DUP2 DUP2 SUB PUSH1 0x0 DUP4 ADD MSTORE PUSH3 0x1A32 DUP2 PUSH3 0x171D JUMP JUMPDEST SWAP1 POP SWAP2 SWAP1 POP JUMP JUMPDEST PUSH1 0x0 PUSH1 0x20 DUP3 ADD SWAP1 POP DUP2 DUP2 SUB PUSH1 0x0 DUP4 ADD MSTORE PUSH3 0x1A54 DUP2 PUSH3 0x1744 JUMP JUMPDEST SWAP1 POP SWAP2 SWAP1 POP JUMP JUMPDEST PUSH1 0x0 PUSH1 0x20 DUP3 ADD SWAP1 POP DUP2 DUP2 SUB PUSH1 0x0 DUP4 ADD MSTORE PUSH3 0x1A76 DUP2 PUSH3 0x176B JUMP JUMPDEST SWAP1 POP SWAP2 SWAP1 POP JUMP JUMPDEST PUSH1 0x0 PUSH1 0x20 DUP3 ADD SWAP1 POP PUSH3 0x1A94 PUSH1 0x0 DUP4 ADD DUP5 PUSH3 0x17A3 JUMP JUMPDEST SWAP3 SWAP2 POP POP JUMP JUMPDEST PUSH1 0x0 PUSH3 0x1AA6 PUSH3 0x1AB9 JUMP JUMPDEST SWAP1 POP PUSH3 0x1AB4 DUP3 DUP3 PUSH3 0x1C67 JUMP JUMPDEST SWAP2 SWAP1 POP JUMP JUMPDEST PUSH1 0x0 PUSH1 0x40 MLOAD SWAP1 POP SWAP1 JUMP JUMPDEST PUSH1 0x0 PUSH8 0xFFFFFFFFFFFFFFFF DUP3 GT ISZERO PUSH3 0x1AE1 JUMPI PUSH3 0x1AE0 PUSH3 0x1DAA JUMP JUMPDEST JUMPDEST PUSH1 0x20 DUP3 MUL SWAP1 POP PUSH1 0x20 DUP2 ADD SWAP1 POP SWAP2 SWAP1 POP JUMP JUMPDEST PUSH1 0x0 DUP2 SWAP1 POP PUSH1 0x20 DUP3 ADD SWAP1 POP SWAP2 SWAP1 POP JUMP JUMPDEST PUSH1 0x0 DUP2 MLOAD SWAP1 POP SWAP2 SWAP1 POP JUMP JUMPDEST PUSH1 0x0 DUP2 MLOAD SWAP1 POP SWAP2 SWAP1 POP JUMP JUMPDEST PUSH1 0x0 PUSH1 0x20 DUP3 ADD SWAP1 POP SWAP2 SWAP1 POP JUMP JUMPDEST PUSH1 0x0 DUP3 DUP3 MSTORE PUSH1 0x20 DUP3 ADD SWAP1 POP SWAP3 SWAP2 POP POP JUMP JUMPDEST PUSH1 0x0 DUP3 DUP3 MSTORE PUSH1 0x20 DUP3 ADD SWAP1 POP SWAP3 SWAP2 POP POP JUMP JUMPDEST PUSH1 0x0 PUSH3 0x1B54 DUP3 PUSH3 0x1BC2 JUMP JUMPDEST SWAP2 POP PUSH3 0x1B61 DUP4 PUSH3 0x1BC2 JUMP JUMPDEST SWAP3 POP DUP3 DUP3 LT ISZERO PUSH3 0x1B77 JUMPI PUSH3 0x1B76 PUSH3 0x1D1D JUMP JUMPDEST JUMPDEST DUP3 DUP3 SUB SWAP1 POP SWAP3 SWAP2 POP POP JUMP JUMPDEST PUSH1 0x0 PUSH3 0x1B8F DUP3 PUSH3 0x1BA2 JUMP JUMPDEST SWAP1 POP SWAP2 SWAP1 POP JUMP JUMPDEST PUSH1 0x0 DUP2 ISZERO ISZERO SWAP1 POP SWAP2 SWAP1 POP JUMP JUMPDEST PUSH1 0x0 PUSH20 0xFFFFFFFFFFFFFFFFFFFFFFFFFFFFFFFFFFFFFFFF DUP3 AND SWAP1 POP SWAP2 SWAP1 POP JUMP JUMPDEST PUSH1 0x0 DUP2 SWAP1 POP SWAP2 SWAP1 POP JUMP JUMPDEST PUSH1 0x0 JUMPDEST DUP4 DUP2 LT ISZERO PUSH3 0x1BEC JUMPI DUP1 DUP3 ADD MLOAD DUP2 DUP5 ADD MSTORE PUSH1 0x20 DUP2 ADD SWAP1 POP PUSH3 0x1BCF JUMP JUMPDEST DUP4 DUP2 GT ISZERO PUSH3 0x1BFC JUMPI PUSH1 0x0 DUP5 DUP5 ADD MSTORE JUMPDEST POP POP POP POP JUMP JUMPDEST PUSH1 0x0 PUSH3 0x1C0F DUP3 PUSH3 0x1BC2 JUMP JUMPDEST SWAP2 POP PUSH1 0x0 DUP3 EQ ISZERO PUSH3 0x1C26 JUMPI PUSH3 0x1C25 PUSH3 0x1D1D JUMP JUMPDEST JUMPDEST PUSH1 0x1 DUP3 SUB SWAP1 POP SWAP2 SWAP1 POP JUMP JUMPDEST PUSH1 0x0 PUSH1 0x2 DUP3 DIV SWAP1 POP PUSH1 0x1 DUP3 AND DUP1 PUSH3 0x1C4A JUMPI PUSH1 0x7F DUP3 AND SWAP2 POP JUMPDEST PUSH1 0x20 DUP3 LT DUP2 EQ ISZERO PUSH3 0x1C61 JUMPI PUSH3 0x1C60 PUSH3 0x1D4C JUMP JUMPDEST JUMPDEST POP SWAP2 SWAP1 POP JUMP JUMPDEST PUSH3 0x1C72 DUP3 PUSH3 0x1DED JUMP JUMPDEST DUP2 ADD DUP2 DUP2 LT PUSH8 0xFFFFFFFFFFFFFFFF DUP3 GT OR ISZERO PUSH3 0x1C94 JUMPI PUSH3 0x1C93 PUSH3 0x1DAA JUMP JUMPDEST JUMPDEST DUP1 PUSH1 0x40 MSTORE POP POP POP JUMP JUMPDEST PUSH1 0x0 PUSH3 0x1CAA DUP3 PUSH3 0x1BC2 JUMP JUMPDEST SWAP2 POP PUSH32 0xFFFFFFFFFFFFFFFFFFFFFFFFFFFFFFFFFFFFFFFFFFFFFFFFFFFFFFFFFFFFFFFF DUP3 EQ ISZERO PUSH3 0x1CE0 JUMPI PUSH3 0x1CDF PUSH3 0x1D1D JUMP JUMPDEST JUMPDEST PUSH1 0x1 DUP3 ADD SWAP1 POP SWAP2 SWAP1 POP JUMP JUMPDEST PUSH1 0x0 PUSH3 0x1CF8 DUP3 PUSH3 0x1CFF JUMP JUMPDEST SWAP1 POP SWAP2 SWAP1 POP JUMP JUMPDEST PUSH1 0x0 PUSH3 0x1D0C DUP3 PUSH3 0x1DFE JUMP JUMPDEST SWAP1 POP SWAP2 SWAP1 POP JUMP JUMPDEST PUSH1 0x0 DUP2 SWAP1 POP SWAP2 SWAP1 POP JUMP JUMPDEST PUSH32 0x4E487B7100000000000000000000000000000000000000000000000000000000 PUSH1 0x0 MSTORE PUSH1 0x11 PUSH1 0x4 MSTORE PUSH1 0x24 PUSH1 0x0 REVERT JUMPDEST PUSH32 0x4E487B7100000000000000000000000000000000000000000000000000000000 PUSH1 0x0 MSTORE PUSH1 0x22 PUSH1 0x4 MSTORE PUSH1 0x24 PUSH1 0x0 REVERT JUMPDEST PUSH32 0x4E487B7100000000000000000000000000000000000000000000000000000000 PUSH1 0x0 MSTORE PUSH1 0x32 PUSH1 0x4 MSTORE PUSH1 0x24 PUSH1 0x0 REVERT JUMPDEST PUSH32 0x4E487B7100000000000000000000000000000000000000000000000000000000 PUSH1 0x0 MSTORE PUSH1 0x41 PUSH1 0x4 MSTORE PUSH1 0x24 PUSH1 0x0 REVERT JUMPDEST PUSH1 0x0 DUP1 REVERT JUMPDEST PUSH1 0x0 DUP1 REVERT JUMPDEST PUSH1 0x0 DUP1 REVERT JUMPDEST PUSH1 0x0 DUP1 REVERT JUMPDEST PUSH1 0x0 PUSH1 0x1F NOT PUSH1 0x1F DUP4 ADD AND SWAP1 POP SWAP2 SWAP1 POP JUMP JUMPDEST PUSH1 0x0 DUP2 PUSH1 0x60 SHL SWAP1 POP SWAP2 SWAP1 POP JUMP JUMPDEST PUSH32 0x5661756C743A204E756D657261746F72206D757374206265206C657373207468 PUSH1 0x0 DUP3 ADD MSTORE PUSH32 0x616E206F7220657175616C20746F2064656E6F6D696E61746F72000000000000 PUSH1 0x20 DUP3 ADD MSTORE POP JUMP JUMPDEST PUSH32 0x437265617465323A2062797465636F6465206C656E677468206973207A65726F PUSH1 0x0 DUP3 ADD MSTORE POP JUMP JUMPDEST PUSH32 0x5661756C74466163746F72793A204F574E45525F5A45524F5F41444452455353 PUSH1 0x0 DUP3 ADD MSTORE POP JUMP JUMPDEST PUSH32 0x4F776E61626C653A206E6577206F776E657220697320746865207A65726F2061 PUSH1 0x0 DUP3 ADD MSTORE PUSH32 0x6464726573730000000000000000000000000000000000000000000000000000 PUSH1 0x20 DUP3 ADD MSTORE POP JUMP JUMPDEST PUSH32 0x5661756C743A204E6F74206120747275737465652E0000000000000000000000 PUSH1 0x0 DUP3 ADD MSTORE POP JUMP JUMPDEST PUSH32 0x437265617465323A204661696C6564206F6E206465706C6F7900000000000000 PUSH1 0x0 DUP3 ADD MSTORE POP JUMP JUMPDEST PUSH32 0x4F776E61626C653A2063616C6C6572206973206E6F7420746865206F776E6572 PUSH1 0x0 DUP3 ADD MSTORE POP JUMP JUMPDEST PUSH32 0x5661756C74466163746F72793A2052454345495645525F5A45524F5F41444452 PUSH1 0x0 DUP3 ADD MSTORE PUSH32 0x4553530000000000000000000000000000000000000000000000000000000000 PUSH1 0x20 DUP3 ADD MSTORE POP JUMP JUMPDEST PUSH32 0x437265617465323A20696E73756666696369656E742062616C616E6365000000 PUSH1 0x0 DUP3 ADD MSTORE POP JUMP JUMPDEST PUSH3 0x1FF9 DUP2 PUSH3 0x1B82 JUMP JUMPDEST DUP2 EQ PUSH3 0x2005 JUMPI PUSH1 0x0 DUP1 REVERT JUMPDEST POP JUMP JUMPDEST PUSH3 0x2013 DUP2 PUSH3 0x1B96 JUMP JUMPDEST DUP2 EQ PUSH3 0x201F JUMPI PUSH1 0x0 DUP1 REVERT JUMPDEST POP JUMP JUMPDEST PUSH3 0x202D DUP2 PUSH3 0x1BC2 JUMP JUMPDEST DUP2 EQ PUSH3 0x2039 JUMPI PUSH1 0x0 DUP1 REVERT JUMPDEST POP JUMP INVALID PUSH1 0x80 PUSH1 0x40 MSTORE CALLVALUE DUP1 ISZERO PUSH2 0x10 JUMPI PUSH1 0x0 DUP1 REVERT JUMPDEST POP PUSH2 0x2D PUSH2 0x22 PUSH2 0x73 PUSH1 0x20 SHL PUSH1 0x20 SHR JUMP JUMPDEST PUSH2 0x7B PUSH1 0x20 SHL PUSH1 0x20 SHR JUMP JUMPDEST CALLER PUSH1 0x1 PUSH1 0x0 PUSH2 0x100 EXP DUP2 SLOAD DUP2 PUSH20 0xFFFFFFFFFFFFFFFFFFFFFFFFFFFFFFFFFFFFFFFF MUL NOT AND SWAP1 DUP4 PUSH20 0xFFFFFFFFFFFFFFFFFFFFFFFFFFFFFFFFFFFFFFFF AND MUL OR SWAP1 SSTORE POP PUSH2 0x13F JUMP JUMPDEST PUSH1 0x0 CALLER SWAP1 POP SWAP1 JUMP JUMPDEST PUSH1 0x0 DUP1 PUSH1 0x0 SWAP1 SLOAD SWAP1 PUSH2 0x100 EXP SWAP1 DIV PUSH20 0xFFFFFFFFFFFFFFFFFFFFFFFFFFFFFFFFFFFFFFFF AND SWAP1 POP DUP2 PUSH1 0x0 DUP1 PUSH2 0x100 EXP DUP2 SLOAD DUP2 PUSH20 0xFFFFFFFFFFFFFFFFFFFFFFFFFFFFFFFFFFFFFFFF MUL NOT AND SWAP1 DUP4 PUSH20 0xFFFFFFFFFFFFFFFFFFFFFFFFFFFFFFFFFFFFFFFF AND MUL OR SWAP1 SSTORE POP DUP2 PUSH20 0xFFFFFFFFFFFFFFFFFFFFFFFFFFFFFFFFFFFFFFFF AND DUP2 PUSH20 0xFFFFFFFFFFFFFFFFFFFFFFFFFFFFFFFFFFFFFFFF AND PUSH32 0x8BE0079C531659141344CD1FD0A4F28419497F9722A3DAAFE3B4186F6B6457E0 PUSH1 0x40 MLOAD PUSH1 0x40 MLOAD DUP1 SWAP2 SUB SWAP1 LOG3 POP POP JUMP JUMPDEST PUSH2 0x229A DUP1 PUSH3 0x14F PUSH1 0x0 CODECOPY PUSH1 0x0 RETURN INVALID PUSH1 0x80 PUSH1 0x40 MSTORE PUSH1 0x4 CALLDATASIZE LT PUSH2 0x14B JUMPI PUSH1 0x0 CALLDATALOAD PUSH1 0xE0 SHR DUP1 PUSH4 0x7DC0D1D0 GT PUSH2 0xB6 JUMPI DUP1 PUSH4 0xB8C1E3E0 GT PUSH2 0x6F JUMPI DUP1 PUSH4 0xB8C1E3E0 EQ PUSH2 0x418 JUMPI DUP1 PUSH4 0xC5031331 EQ PUSH2 0x441 JUMPI DUP1 PUSH4 0xD8A06F73 EQ PUSH2 0x46C JUMPI DUP1 PUSH4 0xF2FDE38B EQ PUSH2 0x497 JUMPI DUP1 PUSH4 0xF6326FB3 EQ PUSH2 0x4C0 JUMPI DUP1 PUSH4 0xF7260D3E EQ PUSH2 0x4CA JUMPI PUSH2 0x14B JUMP JUMPDEST DUP1 PUSH4 0x7DC0D1D0 EQ PUSH2 0x31C JUMPI DUP1 PUSH4 0x7E66C0B9 EQ PUSH2 0x347 JUMPI DUP1 PUSH4 0x88C344FA EQ PUSH2 0x370 JUMPI DUP1 PUSH4 0x8DA5CB5B EQ PUSH2 0x399 JUMPI DUP1 PUSH4 0x952A5A5D EQ PUSH2 0x3C4 JUMPI DUP1 PUSH4 0xA06DB7DC EQ PUSH2 0x3ED JUMPI PUSH2 0x14B JUMP JUMPDEST DUP1 PUSH4 0x355007F9 GT PUSH2 0x108 JUMPI DUP1 PUSH4 0x355007F9 EQ PUSH2 0x238 JUMPI DUP1 PUSH4 0x4782F779 EQ PUSH2 0x261 JUMPI DUP1 PUSH4 0x47C421B5 EQ PUSH2 0x28A JUMPI DUP1 PUSH4 0x4A7B6ADE EQ PUSH2 0x2B3 JUMPI DUP1 PUSH4 0x547E3F06 EQ PUSH2 0x2DC JUMPI DUP1 PUSH4 0x715018A6 EQ PUSH2 0x305 JUMPI PUSH2 0x14B JUMP JUMPDEST DUP1 PUSH4 0x1018AE5C EQ PUSH2 0x150 JUMPI DUP1 PUSH4 0x16CFA494 EQ PUSH2 0x179 JUMPI DUP1 PUSH4 0x1794BB3C EQ PUSH2 0x1A2 JUMPI DUP1 PUSH4 0x2FD43092 EQ PUSH2 0x1CB JUMPI DUP1 PUSH4 0x33194C0A EQ PUSH2 0x1F6 JUMPI DUP1 PUSH4 0x338CDCA1 EQ PUSH2 0x221 JUMPI JUMPDEST PUSH1 0x0 DUP1 REVERT JUMPDEST CALLVALUE DUP1 ISZERO PUSH2 0x15C JUMPI PUSH1 0x0 DUP1 REVERT JUMPDEST POP PUSH2 0x177 PUSH1 0x4 DUP1 CALLDATASIZE SUB DUP2 ADD SWAP1 PUSH2 0x172 SWAP2 SWAP1 PUSH2 0x1B3C JUMP JUMPDEST PUSH2 0x4F5 JUMP JUMPDEST STOP JUMPDEST CALLVALUE DUP1 ISZERO PUSH2 0x185 JUMPI PUSH1 0x0 DUP1 REVERT JUMPDEST POP PUSH2 0x1A0 PUSH1 0x4 DUP1 CALLDATASIZE SUB DUP2 ADD SWAP1 PUSH2 0x19B SWAP2 SWAP1 PUSH2 0x1C3C JUMP JUMPDEST PUSH2 0x6B0 JUMP JUMPDEST STOP JUMPDEST CALLVALUE DUP1 ISZERO PUSH2 0x1AE JUMPI PUSH1 0x0 DUP1 REVERT JUMPDEST POP PUSH2 0x1C9 PUSH1 0x4 DUP1 CALLDATASIZE SUB DUP2 ADD SWAP1 PUSH2 0x1C4 SWAP2 SWAP1 PUSH2 0x1B7C JUMP JUMPDEST PUSH2 0x736 JUMP JUMPDEST STOP JUMPDEST CALLVALUE DUP1 ISZERO PUSH2 0x1D7 JUMPI PUSH1 0x0 DUP1 REVERT JUMPDEST POP PUSH2 0x1E0 PUSH2 0x8DA JUMP JUMPDEST PUSH1 0x40 MLOAD PUSH2 0x1ED SWAP2 SWAP1 PUSH2 0x1F7C JUMP JUMPDEST PUSH1 0x40 MLOAD DUP1 SWAP2 SUB SWAP1 RETURN JUMPDEST CALLVALUE DUP1 ISZERO PUSH2 0x202 JUMPI PUSH1 0x0 DUP1 REVERT JUMPDEST POP PUSH2 0x20B PUSH2 0x8E0 JUMP JUMPDEST PUSH1 0x40 MLOAD PUSH2 0x218 SWAP2 SWAP1 PUSH2 0x1F7C JUMP JUMPDEST PUSH1 0x40 MLOAD DUP1 SWAP2 SUB SWAP1 RETURN JUMPDEST CALLVALUE DUP1 ISZERO PUSH2 0x22D JUMPI PUSH1 0x0 DUP1 REVERT JUMPDEST POP PUSH2 0x236 PUSH2 0x8E6 JUMP JUMPDEST STOP JUMPDEST CALLVALUE DUP1 ISZERO PUSH2 0x244 JUMPI PUSH1 0x0 DUP1 REVERT JUMPDEST POP PUSH2 0x25F PUSH1 0x4 DUP1 CALLDATASIZE SUB DUP2 ADD SWAP1 PUSH2 0x25A SWAP2 SWAP1 PUSH2 0x1B7C JUMP JUMPDEST PUSH2 0x9FF JUMP JUMPDEST STOP JUMPDEST CALLVALUE DUP1 ISZERO PUSH2 0x26D JUMPI PUSH1 0x0 DUP1 REVERT JUMPDEST POP PUSH2 0x288 PUSH1 0x4 DUP1 CALLDATASIZE SUB DUP2 ADD SWAP1 PUSH2 0x283 SWAP2 SWAP1 PUSH2 0x1AFC JUMP JUMPDEST PUSH2 0xAEF JUMP JUMPDEST STOP JUMPDEST CALLVALUE DUP1 ISZERO PUSH2 0x296 JUMPI PUSH1 0x0 DUP1 REVERT JUMPDEST POP PUSH2 0x2B1 PUSH1 0x4 DUP1 CALLDATASIZE SUB DUP2 ADD SWAP1 PUSH2 0x2AC SWAP2 SWAP1 PUSH2 0x1AA2 JUMP JUMPDEST PUSH2 0xCC4 JUMP JUMPDEST STOP JUMPDEST CALLVALUE DUP1 ISZERO PUSH2 0x2BF JUMPI PUSH1 0x0 DUP1 REVERT JUMPDEST POP PUSH2 0x2DA PUSH1 0x4 DUP1 CALLDATASIZE SUB DUP2 ADD SWAP1 PUSH2 0x2D5 SWAP2 SWAP1 PUSH2 0x1BCF JUMP JUMPDEST PUSH2 0xD84 JUMP JUMPDEST STOP JUMPDEST CALLVALUE DUP1 ISZERO PUSH2 0x2E8 JUMPI PUSH1 0x0 DUP1 REVERT JUMPDEST POP PUSH2 0x303 PUSH1 0x4 DUP1 CALLDATASIZE SUB DUP2 ADD SWAP1 PUSH2 0x2FE SWAP2 SWAP1 PUSH2 0x1AA2 JUMP JUMPDEST PUSH2 0xE94 JUMP JUMPDEST STOP JUMPDEST CALLVALUE DUP1 ISZERO PUSH2 0x311 JUMPI PUSH1 0x0 DUP1 REVERT JUMPDEST POP PUSH2 0x31A PUSH2 0xFF8 JUMP JUMPDEST STOP JUMPDEST CALLVALUE DUP1 ISZERO PUSH2 0x328 JUMPI PUSH1 0x0 DUP1 REVERT JUMPDEST POP PUSH2 0x331 PUSH2 0x1080 JUMP JUMPDEST PUSH1 0x40 MLOAD PUSH2 0x33E SWAP2 SWAP1 PUSH2 0x1DE6 JUMP JUMPDEST PUSH1 0x40 MLOAD DUP1 SWAP2 SUB SWAP1 RETURN JUMPDEST CALLVALUE DUP1 ISZERO PUSH2 0x353 JUMPI PUSH1 0x0 DUP1 REVERT JUMPDEST POP PUSH2 0x36E PUSH1 0x4 DUP1 CALLDATASIZE SUB DUP2 ADD SWAP1 PUSH2 0x369 SWAP2 SWAP1 PUSH2 0x1ACF JUMP JUMPDEST PUSH2 0x10A6 JUMP JUMPDEST STOP JUMPDEST CALLVALUE DUP1 ISZERO PUSH2 0x37C JUMPI PUSH1 0x0 DUP1 REVERT JUMPDEST POP PUSH2 0x397 PUSH1 0x4 DUP1 CALLDATASIZE SUB DUP2 ADD SWAP1 PUSH2 0x392 SWAP2 SWAP1 PUSH2 0x1BCF JUMP JUMPDEST PUSH2 0x12EA JUMP JUMPDEST STOP JUMPDEST CALLVALUE DUP1 ISZERO PUSH2 0x3A5 JUMPI PUSH1 0x0 DUP1 REVERT JUMPDEST POP PUSH2 0x3AE PUSH2 0x13D9 JUMP JUMPDEST PUSH1 0x40 MLOAD PUSH2 0x3BB SWAP2 SWAP1 PUSH2 0x1DE6 JUMP JUMPDEST PUSH1 0x40 MLOAD DUP1 SWAP2 SUB SWAP1 RETURN JUMPDEST CALLVALUE DUP1 ISZERO PUSH2 0x3D0 JUMPI PUSH1 0x0 DUP1 REVERT JUMPDEST POP PUSH2 0x3EB PUSH1 0x4 DUP1 CALLDATASIZE SUB DUP2 ADD SWAP1 PUSH2 0x3E6 SWAP2 SWAP1 PUSH2 0x1B7C JUMP JUMPDEST PUSH2 0x1402 JUMP JUMPDEST STOP JUMPDEST CALLVALUE DUP1 ISZERO PUSH2 0x3F9 JUMPI PUSH1 0x0 DUP1 REVERT JUMPDEST POP PUSH2 0x402 PUSH2 0x159F JUMP JUMPDEST PUSH1 0x40 MLOAD PUSH2 0x40F SWAP2 SWAP1 PUSH2 0x1F7C JUMP JUMPDEST PUSH1 0x40 MLOAD DUP1 SWAP2 SUB SWAP1 RETURN JUMPDEST CALLVALUE DUP1 ISZERO PUSH2 0x424 JUMPI PUSH1 0x0 DUP1 REVERT JUMPDEST POP PUSH2 0x43F PUSH1 0x4 DUP1 CALLDATASIZE SUB DUP2 ADD SWAP1 PUSH2 0x43A SWAP2 SWAP1 PUSH2 0x1B7C JUMP JUMPDEST PUSH2 0x15A5 JUMP JUMPDEST STOP JUMPDEST CALLVALUE DUP1 ISZERO PUSH2 0x44D JUMPI PUSH1 0x0 DUP1 REVERT JUMPDEST POP PUSH2 0x456 PUSH2 0x16B4 JUMP JUMPDEST PUSH1 0x40 MLOAD PUSH2 0x463 SWAP2 SWAP1 PUSH2 0x1E61 JUMP JUMPDEST PUSH1 0x40 MLOAD DUP1 SWAP2 SUB SWAP1 RETURN JUMPDEST CALLVALUE DUP1 ISZERO PUSH2 0x478 JUMPI PUSH1 0x0 DUP1 REVERT JUMPDEST POP PUSH2 0x481 PUSH2 0x175B JUMP JUMPDEST PUSH1 0x40 MLOAD PUSH2 0x48E SWAP2 SWAP1 PUSH2 0x1DE6 JUMP JUMPDEST PUSH1 0x40 MLOAD DUP1 SWAP2 SUB SWAP1 RETURN JUMPDEST CALLVALUE DUP1 ISZERO PUSH2 0x4A3 JUMPI PUSH1 0x0 DUP1 REVERT JUMPDEST POP PUSH2 0x4BE PUSH1 0x4 DUP1 CALLDATASIZE SUB DUP2 ADD SWAP1 PUSH2 0x4B9 SWAP2 SWAP1 PUSH2 0x1AA2 JUMP JUMPDEST PUSH2 0x1781 JUMP JUMPDEST STOP JUMPDEST PUSH2 0x4C8 PUSH2 0x1879 JUMP JUMPDEST STOP JUMPDEST CALLVALUE DUP1 ISZERO PUSH2 0x4D6 JUMPI PUSH1 0x0 DUP1 REVERT JUMPDEST POP PUSH2 0x4DF PUSH2 0x195C JUMP JUMPDEST PUSH1 0x40 MLOAD PUSH2 0x4EC SWAP2 SWAP1 PUSH2 0x1DE6 JUMP JUMPDEST PUSH1 0x40 MLOAD DUP1 SWAP2 SUB SWAP1 RETURN JUMPDEST CALLER PUSH20 0xFFFFFFFFFFFFFFFFFFFFFFFFFFFFFFFFFFFFFFFF AND PUSH1 0x2 PUSH1 0x0 SWAP1 SLOAD SWAP1 PUSH2 0x100 EXP SWAP1 DIV PUSH20 0xFFFFFFFFFFFFFFFFFFFFFFFFFFFFFFFFFFFFFFFF AND PUSH20 0xFFFFFFFFFFFFFFFFFFFFFFFFFFFFFFFFFFFFFFFF AND EQ PUSH2 0x585 JUMPI PUSH1 0x40 MLOAD PUSH32 0x8C379A000000000000000000000000000000000000000000000000000000000 DUP2 MSTORE PUSH1 0x4 ADD PUSH2 0x57C SWAP1 PUSH2 0x1E7C JUMP JUMPDEST PUSH1 0x40 MLOAD DUP1 SWAP2 SUB SWAP1 REVERT JUMPDEST PUSH2 0x58D PUSH2 0x16B4 JUMP JUMPDEST PUSH2 0x5CC JUMPI PUSH1 0x40 MLOAD PUSH32 0x8C379A000000000000000000000000000000000000000000000000000000000 DUP2 MSTORE PUSH1 0x4 ADD PUSH2 0x5C3 SWAP1 PUSH2 0x1EFC JUMP JUMPDEST PUSH1 0x40 MLOAD DUP1 SWAP2 SUB SWAP1 REVERT JUMPDEST PUSH1 0x5 SLOAD PUSH1 0x4 SLOAD PUSH2 0x5DC SWAP2 SWAP1 PUSH2 0x1FB3 JUMP JUMPDEST TIMESTAMP LT ISZERO PUSH2 0x61E JUMPI PUSH1 0x40 MLOAD PUSH32 0x8C379A000000000000000000000000000000000000000000000000000000000 DUP2 MSTORE PUSH1 0x4 ADD PUSH2 0x615 SWAP1 PUSH2 0x1E9C JUMP JUMPDEST PUSH1 0x40 MLOAD DUP1 SWAP2 SUB SWAP1 REVERT JUMPDEST DUP2 PUSH20 0xFFFFFFFFFFFFFFFFFFFFFFFFFFFFFFFFFFFFFFFF AND PUSH4 0xA9059CBB DUP3 SELFBALANCE PUSH1 0x40 MLOAD DUP4 PUSH4 0xFFFFFFFF AND PUSH1 0xE0 SHL DUP2 MSTORE PUSH1 0x4 ADD PUSH2 0x659 SWAP3 SWAP2 SWAP1 PUSH2 0x1E38 JUMP JUMPDEST PUSH1 0x20 PUSH1 0x40 MLOAD DUP1 DUP4 SUB DUP2 PUSH1 0x0 DUP8 DUP1 EXTCODESIZE ISZERO DUP1 ISZERO PUSH2 0x673 JUMPI PUSH1 0x0 DUP1 REVERT JUMPDEST POP GAS CALL ISZERO DUP1 ISZERO PUSH2 0x687 JUMPI RETURNDATASIZE PUSH1 0x0 DUP1 RETURNDATACOPY RETURNDATASIZE PUSH1 0x0 REVERT JUMPDEST POP POP POP POP PUSH1 0x40 MLOAD RETURNDATASIZE PUSH1 0x1F NOT PUSH1 0x1F DUP3 ADD AND DUP3 ADD DUP1 PUSH1 0x40 MSTORE POP DUP2 ADD SWAP1 PUSH2 0x6AB SWAP2 SWAP1 PUSH2 0x1C0F JUMP JUMPDEST POP POP POP JUMP JUMPDEST PUSH2 0x6B8 PUSH2 0x1982 JUMP JUMPDEST PUSH20 0xFFFFFFFFFFFFFFFFFFFFFFFFFFFFFFFFFFFFFFFF AND PUSH2 0x6D6 PUSH2 0x13D9 JUMP JUMPDEST PUSH20 0xFFFFFFFFFFFFFFFFFFFFFFFFFFFFFFFFFFFFFFFF AND EQ PUSH2 0x72C JUMPI PUSH1 0x40 MLOAD PUSH32 0x8C379A000000000000000000000000000000000000000000000000000000000 DUP2 MSTORE PUSH1 0x4 ADD PUSH2 0x723 SWAP1 PUSH2 0x1F5C JUMP JUMPDEST PUSH1 0x40 MLOAD DUP1 SWAP2 SUB SWAP1 REVERT JUMPDEST DUP1 PUSH1 0x5 DUP2 SWAP1 SSTORE POP POP JUMP JUMPDEST PUSH1 0x1 PUSH1 0x0 SWAP1 SLOAD SWAP1 PUSH2 0x100 EXP SWAP1 DIV PUSH20 0xFFFFFFFFFFFFFFFFFFFFFFFFFFFFFFFFFFFFFFFF AND PUSH20 0xFFFFFFFFFFFFFFFFFFFFFFFFFFFFFFFFFFFFFFFF AND CALLER PUSH20 0xFFFFFFFFFFFFFFFFFFFFFFFFFFFFFFFFFFFFFFFF AND EQ PUSH2 0x7C6 JUMPI PUSH1 0x40 MLOAD PUSH32 0x8C379A000000000000000000000000000000000000000000000000000000000 DUP2 MSTORE PUSH1 0x4 ADD PUSH2 0x7BD SWAP1 PUSH2 0x1F3C JUMP JUMPDEST PUSH1 0x40 MLOAD DUP1 SWAP2 SUB SWAP1 REVERT JUMPDEST PUSH2 0x7CF DUP4 PUSH2 0x1781 JUMP JUMPDEST DUP2 PUSH1 0x2 PUSH1 0x0 PUSH2 0x100 EXP DUP2 SLOAD DUP2 PUSH20 0xFFFFFFFFFFFFFFFFFFFFFFFFFFFFFFFFFFFFFFFF MUL NOT AND SWAP1 DUP4 PUSH20 0xFFFFFFFFFFFFFFFFFFFFFFFFFFFFFFFFFFFFFFFF AND MUL OR SWAP1 SSTORE POP CALLER PUSH1 0x6 PUSH1 0x0 PUSH2 0x100 EXP DUP2 SLOAD DUP2 PUSH20 0xFFFFFFFFFFFFFFFFFFFFFFFFFFFFFFFFFFFFFFFF MUL NOT AND SWAP1 DUP4 PUSH20 0xFFFFFFFFFFFFFFFFFFFFFFFFFFFFFFFFFFFFFFFF AND MUL OR SWAP1 SSTORE POP DUP1 PUSH1 0x3 DUP2 SWAP1 SSTORE POP PUSH1 0x2 PUSH1 0x0 SWAP1 SLOAD SWAP1 PUSH2 0x100 EXP SWAP1 DIV PUSH20 0xFFFFFFFFFFFFFFFFFFFFFFFFFFFFFFFFFFFFFFFF AND PUSH20 0xFFFFFFFFFFFFFFFFFFFFFFFFFFFFFFFFFFFFFFFF AND PUSH1 0x0 PUSH20 0xFFFFFFFFFFFFFFFFFFFFFFFFFFFFFFFFFFFFFFFF AND PUSH32 0x32E51F62A857A441425EF752EE98638E34990146F594C565858D7064F18BC8C4 PUSH1 0x40 MLOAD PUSH1 0x40 MLOAD DUP1 SWAP2 SUB SWAP1 LOG3 POP POP POP JUMP JUMPDEST PUSH1 0x4 SLOAD DUP2 JUMP JUMPDEST PUSH1 0x3 SLOAD DUP2 JUMP JUMPDEST CALLER PUSH20 0xFFFFFFFFFFFFFFFFFFFFFFFFFFFFFFFFFFFFFFFF AND PUSH1 0x2 PUSH1 0x0 SWAP1 SLOAD SWAP1 PUSH2 0x100 EXP SWAP1 DIV PUSH20 0xFFFFFFFFFFFFFFFFFFFFFFFFFFFFFFFFFFFFFFFF AND PUSH20 0xFFFFFFFFFFFFFFFFFFFFFFFFFFFFFFFFFFFFFFFF AND EQ PUSH2 0x976 JUMPI PUSH1 0x40 MLOAD PUSH32 0x8C379A000000000000000000000000000000000000000000000000000000000 DUP2 MSTORE PUSH1 0x4 ADD PUSH2 0x96D SWAP1 PUSH2 0x1E7C JUMP JUMPDEST PUSH1 0x40 MLOAD DUP1 SWAP2 SUB SWAP1 REVERT JUMPDEST PUSH2 0x97E PUSH2 0x16B4 JUMP JUMPDEST PUSH2 0x9BD JUMPI PUSH1 0x40 MLOAD PUSH32 0x8C379A000000000000000000000000000000000000000000000000000000000 DUP2 MSTORE PUSH1 0x4 ADD PUSH2 0x9B4 SWAP1 PUSH2 0x1EFC JUMP JUMPDEST PUSH1 0x40 MLOAD DUP1 SWAP2 SUB SWAP1 REVERT JUMPDEST TIMESTAMP PUSH1 0x4 DUP2 SWAP1 SSTORE POP PUSH32 0x54593FBF3D0E13AF724316E44A7387EE756AB753993496C7009658E83217002C PUSH1 0x4 SLOAD PUSH1 0x40 MLOAD PUSH2 0x9F5 SWAP2 SWAP1 PUSH2 0x1F7C JUMP JUMPDEST PUSH1 0x40 MLOAD DUP1 SWAP2 SUB SWAP1 LOG1 JUMP JUMPDEST PUSH2 0xA07 PUSH2 0x1982 JUMP JUMPDEST PUSH20 0xFFFFFFFFFFFFFFFFFFFFFFFFFFFFFFFFFFFFFFFF AND PUSH2 0xA25 PUSH2 0x13D9 JUMP JUMPDEST PUSH20 0xFFFFFFFFFFFFFFFFFFFFFFFFFFFFFFFFFFFFFFFF AND EQ PUSH2 0xA7B JUMPI PUSH1 0x40 MLOAD PUSH32 0x8C379A000000000000000000000000000000000000000000000000000000000 DUP2 MSTORE PUSH1 0x4 ADD PUSH2 0xA72 SWAP1 PUSH2 0x1F5C JUMP JUMPDEST PUSH1 0x40 MLOAD DUP1 SWAP2 SUB SWAP1 REVERT JUMPDEST DUP3 PUSH20 0xFFFFFFFFFFFFFFFFFFFFFFFFFFFFFFFFFFFFFFFF AND PUSH4 0x23B872DD ADDRESS DUP5 DUP5 PUSH1 0x40 MLOAD DUP5 PUSH4 0xFFFFFFFF AND PUSH1 0xE0 SHL DUP2 MSTORE PUSH1 0x4 ADD PUSH2 0xAB8 SWAP4 SWAP3 SWAP2 SWAP1 PUSH2 0x1E01 JUMP JUMPDEST PUSH1 0x0 PUSH1 0x40 MLOAD DUP1 DUP4 SUB DUP2 PUSH1 0x0 DUP8 DUP1 EXTCODESIZE ISZERO DUP1 ISZERO PUSH2 0xAD2 JUMPI PUSH1 0x0 DUP1 REVERT JUMPDEST POP GAS CALL ISZERO DUP1 ISZERO PUSH2 0xAE6 JUMPI RETURNDATASIZE PUSH1 0x0 DUP1 RETURNDATACOPY RETURNDATASIZE PUSH1 0x0 REVERT JUMPDEST POP POP POP POP POP POP POP JUMP JUMPDEST PUSH2 0xAF7 PUSH2 0x1982 JUMP JUMPDEST PUSH20 0xFFFFFFFFFFFFFFFFFFFFFFFFFFFFFFFFFFFFFFFF AND PUSH2 0xB15 PUSH2 0x13D9 JUMP JUMPDEST PUSH20 0xFFFFFFFFFFFFFFFFFFFFFFFFFFFFFFFFFFFFFFFF AND EQ PUSH2 0xB6B JUMPI PUSH1 0x40 MLOAD PUSH32 0x8C379A000000000000000000000000000000000000000000000000000000000 DUP2 MSTORE PUSH1 0x4 ADD PUSH2 0xB62 SWAP1 PUSH2 0x1F5C JUMP JUMPDEST PUSH1 0x40 MLOAD DUP1 SWAP2 SUB SWAP1 REVERT JUMPDEST DUP1 SELFBALANCE LT ISZERO PUSH2 0xBAE JUMPI PUSH1 0x40 MLOAD PUSH32 0x8C379A000000000000000000000000000000000000000000000000000000000 DUP2 MSTORE PUSH1 0x4 ADD PUSH2 0xBA5 SWAP1 PUSH2 0x1F1C JUMP JUMPDEST PUSH1 0x40 MLOAD DUP1 SWAP2 SUB SWAP1 REVERT JUMPDEST PUSH1 0x0 DUP3 PUSH20 0xFFFFFFFFFFFFFFFFFFFFFFFFFFFFFFFFFFFFFFFF AND DUP3 PUSH1 0x40 MLOAD PUSH2 0xBD4 SWAP1 PUSH2 0x1DD1 JUMP JUMPDEST PUSH1 0x0 PUSH1 0x40 MLOAD DUP1 DUP4 SUB DUP2 DUP6 DUP8 GAS CALL SWAP3 POP POP POP RETURNDATASIZE DUP1 PUSH1 0x0 DUP2 EQ PUSH2 0xC11 JUMPI PUSH1 0x40 MLOAD SWAP2 POP PUSH1 0x1F NOT PUSH1 0x3F RETURNDATASIZE ADD AND DUP3 ADD PUSH1 0x40 MSTORE RETURNDATASIZE DUP3 MSTORE RETURNDATASIZE PUSH1 0x0 PUSH1 0x20 DUP5 ADD RETURNDATACOPY PUSH2 0xC16 JUMP JUMPDEST PUSH1 0x60 SWAP2 POP JUMPDEST POP POP SWAP1 POP DUP1 PUSH2 0xC5A JUMPI PUSH1 0x40 MLOAD PUSH32 0x8C379A000000000000000000000000000000000000000000000000000000000 DUP2 MSTORE PUSH1 0x4 ADD PUSH2 0xC51 SWAP1 PUSH2 0x1EDC JUMP JUMPDEST PUSH1 0x40 MLOAD DUP1 SWAP2 SUB SWAP1 REVERT JUMPDEST DUP3 PUSH20 0xFFFFFFFFFFFFFFFFFFFFFFFFFFFFFFFFFFFFFFFF AND ADDRESS PUSH20 0xFFFFFFFFFFFFFFFFFFFFFFFFFFFFFFFFFFFFFFFF AND PUSH32 0xB417E19F030BDE3B90EC59AEED617934F679C9071DDE0BE604082DB6586346A6 DUP5 PUSH1 0x40 MLOAD PUSH2 0xCB7 SWAP2 SWAP1 PUSH2 0x1F7C JUMP JUMPDEST PUSH1 0x40 MLOAD DUP1 SWAP2 SUB SWAP1 LOG3 POP POP POP JUMP JUMPDEST PUSH2 0xCCC PUSH2 0x1982 JUMP JUMPDEST PUSH20 0xFFFFFFFFFFFFFFFFFFFFFFFFFFFFFFFFFFFFFFFF AND PUSH2 0xCEA PUSH2 0x13D9 JUMP JUMPDEST PUSH20 0xFFFFFFFFFFFFFFFFFFFFFFFFFFFFFFFFFFFFFFFF AND EQ PUSH2 0xD40 JUMPI PUSH1 0x40 MLOAD PUSH32 0x8C379A000000000000000000000000000000000000000000000000000000000 DUP2 MSTORE PUSH1 0x4 ADD PUSH2 0xD37 SWAP1 PUSH2 0x1F5C JUMP JUMPDEST PUSH1 0x40 MLOAD DUP1 SWAP2 SUB SWAP1 REVERT JUMPDEST DUP1 PUSH1 0x6 PUSH1 0x0 PUSH2 0x100 EXP DUP2 SLOAD DUP2 PUSH20 0xFFFFFFFFFFFFFFFFFFFFFFFFFFFFFFFFFFFFFFFF MUL NOT AND SWAP1 DUP4 PUSH20 0xFFFFFFFFFFFFFFFFFFFFFFFFFFFFFFFFFFFFFFFF AND MUL OR SWAP1 SSTORE POP POP JUMP JUMPDEST PUSH2 0xD8C PUSH2 0x1982 JUMP JUMPDEST PUSH20 0xFFFFFFFFFFFFFFFFFFFFFFFFFFFFFFFFFFFFFFFF AND PUSH2 0xDAA PUSH2 0x13D9 JUMP JUMPDEST PUSH20 0xFFFFFFFFFFFFFFFFFFFFFFFFFFFFFFFFFFFFFFFF AND EQ PUSH2 0xE00 JUMPI PUSH1 0x40 MLOAD PUSH32 0x8C379A000000000000000000000000000000000000000000000000000000000 DUP2 MSTORE PUSH1 0x4 ADD PUSH2 0xDF7 SWAP1 PUSH2 0x1F5C JUMP JUMPDEST PUSH1 0x40 MLOAD DUP1 SWAP2 SUB SWAP1 REVERT JUMPDEST DUP2 PUSH20 0xFFFFFFFFFFFFFFFFFFFFFFFFFFFFFFFFFFFFFFFF AND PUSH4 0x23B872DD CALLER ADDRESS DUP5 PUSH1 0x40 MLOAD DUP5 PUSH4 0xFFFFFFFF AND PUSH1 0xE0 SHL DUP2 MSTORE PUSH1 0x4 ADD PUSH2 0xE3D SWAP4 SWAP3 SWAP2 SWAP1 PUSH2 0x1E01 JUMP JUMPDEST PUSH1 0x20 PUSH1 0x40 MLOAD DUP1 DUP4 SUB DUP2 PUSH1 0x0 DUP8 DUP1 EXTCODESIZE ISZERO DUP1 ISZERO PUSH2 0xE57 JUMPI PUSH1 0x0 DUP1 REVERT JUMPDEST POP GAS CALL ISZERO DUP1 ISZERO PUSH2 0xE6B JUMPI RETURNDATASIZE PUSH1 0x0 DUP1 RETURNDATACOPY RETURNDATASIZE PUSH1 0x0 REVERT JUMPDEST POP POP POP POP PUSH1 0x40 MLOAD RETURNDATASIZE PUSH1 0x1F NOT PUSH1 0x1F DUP3 ADD AND DUP3 ADD DUP1 PUSH1 0x40 MSTORE POP DUP2 ADD SWAP1 PUSH2 0xE8F SWAP2 SWAP1 PUSH2 0x1C0F JUMP JUMPDEST POP POP POP JUMP JUMPDEST PUSH2 0xE9C PUSH2 0x1982 JUMP JUMPDEST PUSH20 0xFFFFFFFFFFFFFFFFFFFFFFFFFFFFFFFFFFFFFFFF AND PUSH2 0xEBA PUSH2 0x13D9 JUMP JUMPDEST PUSH20 0xFFFFFFFFFFFFFFFFFFFFFFFFFFFFFFFFFFFFFFFF AND EQ PUSH2 0xF10 JUMPI PUSH1 0x40 MLOAD PUSH32 0x8C379A000000000000000000000000000000000000000000000000000000000 DUP2 MSTORE PUSH1 0x4 ADD PUSH2 0xF07 SWAP1 PUSH2 0x1F5C JUMP JUMPDEST PUSH1 0x40 MLOAD DUP1 SWAP2 SUB SWAP1 REVERT JUMPDEST PUSH1 0x0 PUSH1 0x2 PUSH1 0x0 SWAP1 SLOAD SWAP1 PUSH2 0x100 EXP SWAP1 DIV PUSH20 0xFFFFFFFFFFFFFFFFFFFFFFFFFFFFFFFFFFFFFFFF AND SWAP1 POP DUP2 PUSH1 0x2 PUSH1 0x0 PUSH2 0x100 EXP DUP2 SLOAD DUP2 PUSH20 0xFFFFFFFFFFFFFFFFFFFFFFFFFFFFFFFFFFFFFFFF MUL NOT AND SWAP1 DUP4 PUSH20 0xFFFFFFFFFFFFFFFFFFFFFFFFFFFFFFFFFFFFFFFF AND MUL OR SWAP1 SSTORE POP PUSH1 0x2 PUSH1 0x0 SWAP1 SLOAD SWAP1 PUSH2 0x100 EXP SWAP1 DIV PUSH20 0xFFFFFFFFFFFFFFFFFFFFFFFFFFFFFFFFFFFFFFFF AND PUSH20 0xFFFFFFFFFFFFFFFFFFFFFFFFFFFFFFFFFFFFFFFF AND DUP2 PUSH20 0xFFFFFFFFFFFFFFFFFFFFFFFFFFFFFFFFFFFFFFFF AND PUSH32 0x32E51F62A857A441425EF752EE98638E34990146F594C565858D7064F18BC8C4 PUSH1 0x40 MLOAD PUSH1 0x40 MLOAD DUP1 SWAP2 SUB SWAP1 LOG3 POP POP JUMP JUMPDEST PUSH2 0x1000 PUSH2 0x1982 JUMP JUMPDEST PUSH20 0xFFFFFFFFFFFFFFFFFFFFFFFFFFFFFFFFFFFFFFFF AND PUSH2 0x101E PUSH2 0x13D9 JUMP JUMPDEST PUSH20 0xFFFFFFFFFFFFFFFFFFFFFFFFFFFFFFFFFFFFFFFF AND EQ PUSH2 0x1074 JUMPI PUSH1 0x40 MLOAD PUSH32 0x8C379A000000000000000000000000000000000000000000000000000000000 DUP2 MSTORE PUSH1 0x4 ADD PUSH2 0x106B SWAP1 PUSH2 0x1F5C JUMP JUMPDEST PUSH1 0x40 MLOAD DUP1 SWAP2 SUB SWAP1 REVERT JUMPDEST PUSH2 0x107E PUSH1 0x0 PUSH2 0x198A JUMP JUMPDEST JUMP JUMPDEST PUSH1 0x6 PUSH1 0x0 SWAP1 SLOAD SWAP1 PUSH2 0x100 EXP SWAP1 DIV PUSH20 0xFFFFFFFFFFFFFFFFFFFFFFFFFFFFFFFFFFFFFFFF AND DUP2 JUMP JUMPDEST CALLER PUSH20 0xFFFFFFFFFFFFFFFFFFFFFFFFFFFFFFFFFFFFFFFF AND PUSH1 0x2 PUSH1 0x0 SWAP1 SLOAD SWAP1 PUSH2 0x100 EXP SWAP1 DIV PUSH20 0xFFFFFFFFFFFFFFFFFFFFFFFFFFFFFFFFFFFFFFFF AND PUSH20 0xFFFFFFFFFFFFFFFFFFFFFFFFFFFFFFFFFFFFFFFF AND EQ PUSH2 0x1136 JUMPI PUSH1 0x40 MLOAD PUSH32 0x8C379A000000000000000000000000000000000000000000000000000000000 DUP2 MSTORE PUSH1 0x4 ADD PUSH2 0x112D SWAP1 PUSH2 0x1E7C JUMP JUMPDEST PUSH1 0x40 MLOAD DUP1 SWAP2 SUB SWAP1 REVERT JUMPDEST PUSH2 0x113E PUSH2 0x16B4 JUMP JUMPDEST PUSH2 0x117D JUMPI PUSH1 0x40 MLOAD PUSH32 0x8C379A000000000000000000000000000000000000000000000000000000000 DUP2 MSTORE PUSH1 0x4 ADD PUSH2 0x1174 SWAP1 PUSH2 0x1EFC JUMP JUMPDEST PUSH1 0x40 MLOAD DUP1 SWAP2 SUB SWAP1 REVERT JUMPDEST PUSH1 0x5 SLOAD PUSH1 0x4 SLOAD PUSH2 0x118D SWAP2 SWAP1 PUSH2 0x1FB3 JUMP JUMPDEST TIMESTAMP LT ISZERO PUSH2 0x11CF JUMPI PUSH1 0x40 MLOAD PUSH32 0x8C379A000000000000000000000000000000000000000000000000000000000 DUP2 MSTORE PUSH1 0x4 ADD PUSH2 0x11C6 SWAP1 PUSH2 0x1E9C JUMP JUMPDEST PUSH1 0x40 MLOAD DUP1 SWAP2 SUB SWAP1 REVERT JUMPDEST PUSH1 0x0 SELFBALANCE SWAP1 POP PUSH1 0x0 DUP3 PUSH20 0xFFFFFFFFFFFFFFFFFFFFFFFFFFFFFFFFFFFFFFFF AND DUP3 PUSH1 0x40 MLOAD PUSH2 0x11FA SWAP1 PUSH2 0x1DD1 JUMP JUMPDEST PUSH1 0x0 PUSH1 0x40 MLOAD DUP1 DUP4 SUB DUP2 DUP6 DUP8 GAS CALL SWAP3 POP POP POP RETURNDATASIZE DUP1 PUSH1 0x0 DUP2 EQ PUSH2 0x1237 JUMPI PUSH1 0x40 MLOAD SWAP2 POP PUSH1 0x1F NOT PUSH1 0x3F RETURNDATASIZE ADD AND DUP3 ADD PUSH1 0x40 MSTORE RETURNDATASIZE DUP3 MSTORE RETURNDATASIZE PUSH1 0x0 PUSH1 0x20 DUP5 ADD RETURNDATACOPY PUSH2 0x123C JUMP JUMPDEST PUSH1 0x60 SWAP2 POP JUMPDEST POP POP SWAP1 POP DUP1 PUSH2 0x1280 JUMPI PUSH1 0x40 MLOAD PUSH32 0x8C379A000000000000000000000000000000000000000000000000000000000 DUP2 MSTORE PUSH1 0x4 ADD PUSH2 0x1277 SWAP1 PUSH2 0x1EDC JUMP JUMPDEST PUSH1 0x40 MLOAD DUP1 SWAP2 SUB SWAP1 REVERT JUMPDEST DUP3 PUSH20 0xFFFFFFFFFFFFFFFFFFFFFFFFFFFFFFFFFFFFFFFF AND ADDRESS PUSH20 0xFFFFFFFFFFFFFFFFFFFFFFFFFFFFFFFFFFFFFFFF AND PUSH32 0xB417E19F030BDE3B90EC59AEED617934F679C9071DDE0BE604082DB6586346A6 DUP5 PUSH1 0x40 MLOAD PUSH2 0x12DD SWAP2 SWAP1 PUSH2 0x1F7C JUMP JUMPDEST PUSH1 0x40 MLOAD DUP1 SWAP2 SUB SWAP1 LOG3 POP POP POP JUMP JUMPDEST PUSH2 0x12F2 PUSH2 0x1982 JUMP JUMPDEST PUSH20 0xFFFFFFFFFFFFFFFFFFFFFFFFFFFFFFFFFFFFFFFF AND PUSH2 0x1310 PUSH2 0x13D9 JUMP JUMPDEST PUSH20 0xFFFFFFFFFFFFFFFFFFFFFFFFFFFFFFFFFFFFFFFF AND EQ PUSH2 0x1366 JUMPI PUSH1 0x40 MLOAD PUSH32 0x8C379A000000000000000000000000000000000000000000000000000000000 DUP2 MSTORE PUSH1 0x4 ADD PUSH2 0x135D SWAP1 PUSH2 0x1F5C JUMP JUMPDEST PUSH1 0x40 MLOAD DUP1 SWAP2 SUB SWAP1 REVERT JUMPDEST DUP2 PUSH20 0xFFFFFFFFFFFFFFFFFFFFFFFFFFFFFFFFFFFFFFFF AND PUSH4 0x23B872DD CALLER ADDRESS DUP5 PUSH1 0x40 MLOAD DUP5 PUSH4 0xFFFFFFFF AND PUSH1 0xE0 SHL DUP2 MSTORE PUSH1 0x4 ADD PUSH2 0x13A3 SWAP4 SWAP3 SWAP2 SWAP1 PUSH2 0x1E01 JUMP JUMPDEST PUSH1 0x0 PUSH1 0x40 MLOAD DUP1 DUP4 SUB DUP2 PUSH1 0x0 DUP8 DUP1 EXTCODESIZE ISZERO DUP1 ISZERO PUSH2 0x13BD JUMPI PUSH1 0x0 DUP1 REVERT JUMPDEST POP GAS CALL ISZERO DUP1 ISZERO PUSH2 0x13D1 JUMPI RETURNDATASIZE PUSH1 0x0 DUP1 RETURNDATACOPY RETURNDATASIZE PUSH1 0x0 REVERT JUMPDEST POP POP POP POP POP POP JUMP JUMPDEST PUSH1 0x0 DUP1 PUSH1 0x0 SWAP1 SLOAD SWAP1 PUSH2 0x100 EXP SWAP1 DIV PUSH20 0xFFFFFFFFFFFFFFFFFFFFFFFFFFFFFFFFFFFFFFFF AND SWAP1 POP SWAP1 JUMP JUMPDEST CALLER PUSH20 0xFFFFFFFFFFFFFFFFFFFFFFFFFFFFFFFFFFFFFFFF AND PUSH1 0x2 PUSH1 0x0 SWAP1 SLOAD SWAP1 PUSH2 0x100 EXP SWAP1 DIV PUSH20 0xFFFFFFFFFFFFFFFFFFFFFFFFFFFFFFFFFFFFFFFF AND PUSH20 0xFFFFFFFFFFFFFFFFFFFFFFFFFFFFFFFFFFFFFFFF AND EQ PUSH2 0x1492 JUMPI PUSH1 0x40 MLOAD PUSH32 0x8C379A000000000000000000000000000000000000000000000000000000000 DUP2 MSTORE PUSH1 0x4 ADD PUSH2 0x1489 SWAP1 PUSH2 0x1E7C JUMP JUMPDEST PUSH1 0x40 MLOAD DUP1 SWAP2 SUB SWAP1 REVERT JUMPDEST PUSH2 0x149A PUSH2 0x16B4 JUMP JUMPDEST PUSH2 0x14D9 JUMPI PUSH1 0x40 MLOAD PUSH32 0x8C379A000000000000000000000000000000000000000000000000000000000 DUP2 MSTORE PUSH1 0x4 ADD PUSH2 0x14D0 SWAP1 PUSH2 0x1EFC JUMP JUMPDEST PUSH1 0x40 MLOAD DUP1 SWAP2 SUB SWAP1 REVERT JUMPDEST PUSH1 0x5 SLOAD PUSH1 0x4 SLOAD PUSH2 0x14E9 SWAP2 SWAP1 PUSH2 0x1FB3 JUMP JUMPDEST TIMESTAMP LT ISZERO PUSH2 0x152B JUMPI PUSH1 0x40 MLOAD PUSH32 0x8C379A000000000000000000000000000000000000000000000000000000000 DUP2 MSTORE PUSH1 0x4 ADD PUSH2 0x1522 SWAP1 PUSH2 0x1E9C JUMP JUMPDEST PUSH1 0x40 MLOAD DUP1 SWAP2 SUB SWAP1 REVERT JUMPDEST DUP3 PUSH20 0xFFFFFFFFFFFFFFFFFFFFFFFFFFFFFFFFFFFFFFFF AND PUSH4 0x23B872DD ADDRESS DUP5 DUP5 PUSH1 0x40 MLOAD DUP5 PUSH4 0xFFFFFFFF AND PUSH1 0xE0 SHL DUP2 MSTORE PUSH1 0x4 ADD PUSH2 0x1568 SWAP4 SWAP3 SWAP2 SWAP1 PUSH2 0x1E01 JUMP JUMPDEST PUSH1 0x0 PUSH1 0x40 MLOAD DUP1 DUP4 SUB DUP2 PUSH1 0x0 DUP8 DUP1 EXTCODESIZE ISZERO DUP1 ISZERO PUSH2 0x1582 JUMPI PUSH1 0x0 DUP1 REVERT JUMPDEST POP GAS CALL ISZERO DUP1 ISZERO PUSH2 0x1596 JUMPI RETURNDATASIZE PUSH1 0x0 DUP1 RETURNDATACOPY RETURNDATASIZE PUSH1 0x0 REVERT JUMPDEST POP POP POP POP POP POP POP JUMP JUMPDEST PUSH1 0x5 SLOAD DUP2 JUMP JUMPDEST PUSH2 0x15AD PUSH2 0x1982 JUMP JUMPDEST PUSH20 0xFFFFFFFFFFFFFFFFFFFFFFFFFFFFFFFFFFFFFFFF AND PUSH2 0x15CB PUSH2 0x13D9 JUMP JUMPDEST PUSH20 0xFFFFFFFFFFFFFFFFFFFFFFFFFFFFFFFFFFFFFFFF AND EQ PUSH2 0x1621 JUMPI PUSH1 0x40 MLOAD PUSH32 0x8C379A000000000000000000000000000000000000000000000000000000000 DUP2 MSTORE PUSH1 0x4 ADD PUSH2 0x1618 SWAP1 PUSH2 0x1F5C JUMP JUMPDEST PUSH1 0x40 MLOAD DUP1 SWAP2 SUB SWAP1 REVERT JUMPDEST DUP3 PUSH20 0xFFFFFFFFFFFFFFFFFFFFFFFFFFFFFFFFFFFFFFFF AND PUSH4 0xA9059CBB DUP4 DUP4 PUSH1 0x40 MLOAD DUP4 PUSH4 0xFFFFFFFF AND PUSH1 0xE0 SHL DUP2 MSTORE PUSH1 0x4 ADD PUSH2 0x165C SWAP3 SWAP2 SWAP1 PUSH2 0x1E38 JUMP JUMPDEST PUSH1 0x20 PUSH1 0x40 MLOAD DUP1 DUP4 SUB DUP2 PUSH1 0x0 DUP8 DUP1 EXTCODESIZE ISZERO DUP1 ISZERO PUSH2 0x1676 JUMPI PUSH1 0x0 DUP1 REVERT JUMPDEST POP GAS CALL ISZERO DUP1 ISZERO PUSH2 0x168A JUMPI RETURNDATASIZE PUSH1 0x0 DUP1 RETURNDATACOPY RETURNDATASIZE PUSH1 0x0 REVERT JUMPDEST POP POP POP POP PUSH1 0x40 MLOAD RETURNDATASIZE PUSH1 0x1F NOT PUSH1 0x1F DUP3 ADD AND DUP3 ADD DUP1 PUSH1 0x40 MSTORE POP DUP2 ADD SWAP1 PUSH2 0x16AE SWAP2 SWAP1 PUSH2 0x1C0F JUMP JUMPDEST POP POP POP POP JUMP JUMPDEST PUSH1 0x0 PUSH1 0x6 PUSH1 0x0 SWAP1 SLOAD SWAP1 PUSH2 0x100 EXP SWAP1 DIV PUSH20 0xFFFFFFFFFFFFFFFFFFFFFFFFFFFFFFFFFFFFFFFF AND PUSH20 0xFFFFFFFFFFFFFFFFFFFFFFFFFFFFFFFFFFFFFFFF AND PUSH4 0xC5031331 PUSH1 0x40 MLOAD DUP2 PUSH4 0xFFFFFFFF AND PUSH1 0xE0 SHL DUP2 MSTORE PUSH1 0x4 ADD PUSH1 0x20 PUSH1 0x40 MLOAD DUP1 DUP4 SUB DUP2 DUP7 DUP1 EXTCODESIZE ISZERO DUP1 ISZERO PUSH2 0x171E JUMPI PUSH1 0x0 DUP1 REVERT JUMPDEST POP GAS STATICCALL ISZERO DUP1 ISZERO PUSH2 0x1732 JUMPI RETURNDATASIZE PUSH1 0x0 DUP1 RETURNDATACOPY RETURNDATASIZE PUSH1 0x0 REVERT JUMPDEST POP POP POP POP PUSH1 0x40 MLOAD RETURNDATASIZE PUSH1 0x1F NOT PUSH1 0x1F DUP3 ADD AND DUP3 ADD DUP1 PUSH1 0x40 MSTORE POP DUP2 ADD SWAP1 PUSH2 0x1756 SWAP2 SWAP1 PUSH2 0x1C0F JUMP JUMPDEST SWAP1 POP SWAP1 JUMP JUMPDEST PUSH1 0x1 PUSH1 0x0 SWAP1 SLOAD SWAP1 PUSH2 0x100 EXP SWAP1 DIV PUSH20 0xFFFFFFFFFFFFFFFFFFFFFFFFFFFFFFFFFFFFFFFF AND DUP2 JUMP JUMPDEST PUSH2 0x1789 PUSH2 0x1982 JUMP JUMPDEST PUSH20 0xFFFFFFFFFFFFFFFFFFFFFFFFFFFFFFFFFFFFFFFF AND PUSH2 0x17A7 PUSH2 0x13D9 JUMP JUMPDEST PUSH20 0xFFFFFFFFFFFFFFFFFFFFFFFFFFFFFFFFFFFFFFFF AND EQ PUSH2 0x17FD JUMPI PUSH1 0x40 MLOAD PUSH32 0x8C379A000000000000000000000000000000000000000000000000000000000 DUP2 MSTORE PUSH1 0x4 ADD PUSH2 0x17F4 SWAP1 PUSH2 0x1F5C JUMP JUMPDEST PUSH1 0x40 MLOAD DUP1 SWAP2 SUB SWAP1 REVERT JUMPDEST PUSH1 0x0 PUSH20 0xFFFFFFFFFFFFFFFFFFFFFFFFFFFFFFFFFFFFFFFF AND DUP2 PUSH20 0xFFFFFFFFFFFFFFFFFFFFFFFFFFFFFFFFFFFFFFFF AND EQ ISZERO PUSH2 0x186D JUMPI PUSH1 0x40 MLOAD PUSH32 0x8C379A000000000000000000000000000000000000000000000000000000000 DUP2 MSTORE PUSH1 0x4 ADD PUSH2 0x1864 SWAP1 PUSH2 0x1EBC JUMP JUMPDEST PUSH1 0x40 MLOAD DUP1 SWAP2 SUB SWAP1 REVERT JUMPDEST PUSH2 0x1876 DUP2 PUSH2 0x198A JUMP JUMPDEST POP JUMP JUMPDEST PUSH2 0x1881 PUSH2 0x1982 JUMP JUMPDEST PUSH20 0xFFFFFFFFFFFFFFFFFFFFFFFFFFFFFFFFFFFFFFFF AND PUSH2 0x189F PUSH2 0x13D9 JUMP JUMPDEST PUSH20 0xFFFFFFFFFFFFFFFFFFFFFFFFFFFFFFFFFFFFFFFF AND EQ PUSH2 0x18F5 JUMPI PUSH1 0x40 MLOAD PUSH32 0x8C379A000000000000000000000000000000000000000000000000000000000 DUP2 MSTORE PUSH1 0x4 ADD PUSH2 0x18EC SWAP1 PUSH2 0x1F5C JUMP JUMPDEST PUSH1 0x40 MLOAD DUP1 SWAP2 SUB SWAP1 REVERT JUMPDEST ADDRESS PUSH20 0xFFFFFFFFFFFFFFFFFFFFFFFFFFFFFFFFFFFFFFFF AND CALLER PUSH20 0xFFFFFFFFFFFFFFFFFFFFFFFFFFFFFFFFFFFFFFFF AND PUSH32 0xB417E19F030BDE3B90EC59AEED617934F679C9071DDE0BE604082DB6586346A6 CALLVALUE PUSH1 0x40 MLOAD PUSH2 0x1952 SWAP2 SWAP1 PUSH2 0x1F7C JUMP JUMPDEST PUSH1 0x40 MLOAD DUP1 SWAP2 SUB SWAP1 LOG3 JUMP JUMPDEST PUSH1 0x2 PUSH1 0x0 SWAP1 SLOAD SWAP1 PUSH2 0x100 EXP SWAP1 DIV PUSH20 0xFFFFFFFFFFFFFFFFFFFFFFFFFFFFFFFFFFFFFFFF AND DUP2 JUMP JUMPDEST PUSH1 0x0 CALLER SWAP1 POP SWAP1 JUMP JUMPDEST PUSH1 0x0 DUP1 PUSH1 0x0 SWAP1 SLOAD SWAP1 PUSH2 0x100 EXP SWAP1 DIV PUSH20 0xFFFFFFFFFFFFFFFFFFFFFFFFFFFFFFFFFFFFFFFF AND SWAP1 POP DUP2 PUSH1 0x0 DUP1 PUSH2 0x100 EXP DUP2 SLOAD DUP2 PUSH20 0xFFFFFFFFFFFFFFFFFFFFFFFFFFFFFFFFFFFFFFFF MUL NOT AND SWAP1 DUP4 PUSH20 0xFFFFFFFFFFFFFFFFFFFFFFFFFFFFFFFFFFFFFFFF AND MUL OR SWAP1 SSTORE POP DUP2 PUSH20 0xFFFFFFFFFFFFFFFFFFFFFFFFFFFFFFFFFFFFFFFF AND DUP2 PUSH20 0xFFFFFFFFFFFFFFFFFFFFFFFFFFFFFFFFFFFFFFFF AND PUSH32 0x8BE0079C531659141344CD1FD0A4F28419497F9722A3DAAFE3B4186F6B6457E0 PUSH1 0x40 MLOAD PUSH1 0x40 MLOAD DUP1 SWAP2 SUB SWAP1 LOG3 POP POP JUMP JUMPDEST PUSH1 0x0 DUP2 CALLDATALOAD SWAP1 POP PUSH2 0x1A5D DUP2 PUSH2 0x2208 JUMP JUMPDEST SWAP3 SWAP2 POP POP JUMP JUMPDEST PUSH1 0x0 DUP2 CALLDATALOAD SWAP1 POP PUSH2 0x1A72 DUP2 PUSH2 0x221F JUMP JUMPDEST SWAP3 SWAP2 POP POP JUMP JUMPDEST PUSH1 0x0 DUP2 MLOAD SWAP1 POP PUSH2 0x1A87 DUP2 PUSH2 0x2236 JUMP JUMPDEST SWAP3 SWAP2 POP POP JUMP JUMPDEST PUSH1 0x0 DUP2 CALLDATALOAD SWAP1 POP PUSH2 0x1A9C DUP2 PUSH2 0x224D JUMP JUMPDEST SWAP3 SWAP2 POP POP JUMP JUMPDEST PUSH1 0x0 PUSH1 0x20 DUP3 DUP5 SUB SLT ISZERO PUSH2 0x1AB8 JUMPI PUSH2 0x1AB7 PUSH2 0x2092 JUMP JUMPDEST JUMPDEST PUSH1 0x0 PUSH2 0x1AC6 DUP5 DUP3 DUP6 ADD PUSH2 0x1A4E JUMP JUMPDEST SWAP2 POP POP SWAP3 SWAP2 POP POP JUMP JUMPDEST PUSH1 0x0 PUSH1 0x20 DUP3 DUP5 SUB SLT ISZERO PUSH2 0x1AE5 JUMPI PUSH2 0x1AE4 PUSH2 0x2092 JUMP JUMPDEST JUMPDEST PUSH1 0x0 PUSH2 0x1AF3 DUP5 DUP3 DUP6 ADD PUSH2 0x1A63 JUMP JUMPDEST SWAP2 POP POP SWAP3 SWAP2 POP POP JUMP JUMPDEST PUSH1 0x0 DUP1 PUSH1 0x40 DUP4 DUP6 SUB SLT ISZERO PUSH2 0x1B13 JUMPI PUSH2 0x1B12 PUSH2 0x2092 JUMP JUMPDEST JUMPDEST PUSH1 0x0 PUSH2 0x1B21 DUP6 DUP3 DUP7 ADD PUSH2 0x1A63 JUMP JUMPDEST SWAP3 POP POP PUSH1 0x20 PUSH2 0x1B32 DUP6 DUP3 DUP7 ADD PUSH2 0x1A8D JUMP JUMPDEST SWAP2 POP POP SWAP3 POP SWAP3 SWAP1 POP JUMP JUMPDEST PUSH1 0x0 DUP1 PUSH1 0x40 DUP4 DUP6 SUB SLT ISZERO PUSH2 0x1B53 JUMPI PUSH2 0x1B52 PUSH2 0x2092 JUMP JUMPDEST JUMPDEST PUSH1 0x0 PUSH2 0x1B61 DUP6 DUP3 DUP7 ADD PUSH2 0x1A4E JUMP JUMPDEST SWAP3 POP POP PUSH1 0x20 PUSH2 0x1B72 DUP6 DUP3 DUP7 ADD PUSH2 0x1A4E JUMP JUMPDEST SWAP2 POP POP SWAP3 POP SWAP3 SWAP1 POP JUMP JUMPDEST PUSH1 0x0 DUP1 PUSH1 0x0 PUSH1 0x60 DUP5 DUP7 SUB SLT ISZERO PUSH2 0x1B95 JUMPI PUSH2 0x1B94 PUSH2 0x2092 JUMP JUMPDEST JUMPDEST PUSH1 0x0 PUSH2 0x1BA3 DUP7 DUP3 DUP8 ADD PUSH2 0x1A4E JUMP JUMPDEST SWAP4 POP POP PUSH1 0x20 PUSH2 0x1BB4 DUP7 DUP3 DUP8 ADD PUSH2 0x1A4E JUMP JUMPDEST SWAP3 POP POP PUSH1 0x40 PUSH2 0x1BC5 DUP7 DUP3 DUP8 ADD PUSH2 0x1A8D JUMP JUMPDEST SWAP2 POP POP SWAP3 POP SWAP3 POP SWAP3 JUMP JUMPDEST PUSH1 0x0 DUP1 PUSH1 0x40 DUP4 DUP6 SUB SLT ISZERO PUSH2 0x1BE6 JUMPI PUSH2 0x1BE5 PUSH2 0x2092 JUMP JUMPDEST JUMPDEST PUSH1 0x0 PUSH2 0x1BF4 DUP6 DUP3 DUP7 ADD PUSH2 0x1A4E JUMP JUMPDEST SWAP3 POP POP PUSH1 0x20 PUSH2 0x1C05 DUP6 DUP3 DUP7 ADD PUSH2 0x1A8D JUMP JUMPDEST SWAP2 POP POP SWAP3 POP SWAP3 SWAP1 POP JUMP JUMPDEST PUSH1 0x0 PUSH1 0x20 DUP3 DUP5 SUB SLT ISZERO PUSH2 0x1C25 JUMPI PUSH2 0x1C24 PUSH2 0x2092 JUMP JUMPDEST JUMPDEST PUSH1 0x0 PUSH2 0x1C33 DUP5 DUP3 DUP6 ADD PUSH2 0x1A78 JUMP JUMPDEST SWAP2 POP POP SWAP3 SWAP2 POP POP JUMP JUMPDEST PUSH1 0x0 PUSH1 0x20 DUP3 DUP5 SUB SLT ISZERO PUSH2 0x1C52 JUMPI PUSH2 0x1C51 PUSH2 0x2092 JUMP JUMPDEST JUMPDEST PUSH1 0x0 PUSH2 0x1C60 DUP5 DUP3 DUP6 ADD PUSH2 0x1A8D JUMP JUMPDEST SWAP2 POP POP SWAP3 SWAP2 POP POP JUMP JUMPDEST PUSH2 0x1C72 DUP2 PUSH2 0x2009 JUMP JUMPDEST DUP3 MSTORE POP POP JUMP JUMPDEST PUSH2 0x1C81 DUP2 PUSH2 0x202D JUMP JUMPDEST DUP3 MSTORE POP POP JUMP JUMPDEST PUSH1 0x0 PUSH2 0x1C94 PUSH1 0x13 DUP4 PUSH2 0x1FA2 JUMP JUMPDEST SWAP2 POP PUSH2 0x1C9F DUP3 PUSH2 0x2097 JUMP JUMPDEST PUSH1 0x20 DUP3 ADD SWAP1 POP SWAP2 SWAP1 POP JUMP JUMPDEST PUSH1 0x0 PUSH2 0x1CB7 PUSH1 0x1C DUP4 PUSH2 0x1FA2 JUMP JUMPDEST SWAP2 POP PUSH2 0x1CC2 DUP3 PUSH2 0x20C0 JUMP JUMPDEST PUSH1 0x20 DUP3 ADD SWAP1 POP SWAP2 SWAP1 POP JUMP JUMPDEST PUSH1 0x0 PUSH2 0x1CDA PUSH1 0x26 DUP4 PUSH2 0x1FA2 JUMP JUMPDEST SWAP2 POP PUSH2 0x1CE5 DUP3 PUSH2 0x20E9 JUMP JUMPDEST PUSH1 0x40 DUP3 ADD SWAP1 POP SWAP2 SWAP1 POP JUMP JUMPDEST PUSH1 0x0 PUSH2 0x1CFD PUSH1 0x14 DUP4 PUSH2 0x1FA2 JUMP JUMPDEST SWAP2 POP PUSH2 0x1D08 DUP3 PUSH2 0x2138 JUMP JUMPDEST PUSH1 0x20 DUP3 ADD SWAP1 POP SWAP2 SWAP1 POP JUMP JUMPDEST PUSH1 0x0 PUSH2 0x1D20 PUSH1 0x18 DUP4 PUSH2 0x1FA2 JUMP JUMPDEST SWAP2 POP PUSH2 0x1D2B DUP3 PUSH2 0x2161 JUMP JUMPDEST PUSH1 0x20 DUP3 ADD SWAP1 POP SWAP2 SWAP1 POP JUMP JUMPDEST PUSH1 0x0 PUSH2 0x1D43 PUSH1 0x19 DUP4 PUSH2 0x1FA2 JUMP JUMPDEST SWAP2 POP PUSH2 0x1D4E DUP3 PUSH2 0x218A JUMP JUMPDEST PUSH1 0x20 DUP3 ADD SWAP1 POP SWAP2 SWAP1 POP JUMP JUMPDEST PUSH1 0x0 PUSH2 0x1D66 PUSH1 0x10 DUP4 PUSH2 0x1FA2 JUMP JUMPDEST SWAP2 POP PUSH2 0x1D71 DUP3 PUSH2 0x21B3 JUMP JUMPDEST PUSH1 0x20 DUP3 ADD SWAP1 POP SWAP2 SWAP1 POP JUMP JUMPDEST PUSH1 0x0 PUSH2 0x1D89 PUSH1 0x20 DUP4 PUSH2 0x1FA2 JUMP JUMPDEST SWAP2 POP PUSH2 0x1D94 DUP3 PUSH2 0x21DC JUMP JUMPDEST PUSH1 0x20 DUP3 ADD SWAP1 POP SWAP2 SWAP1 POP JUMP JUMPDEST PUSH1 0x0 PUSH2 0x1DAC PUSH1 0x0 DUP4 PUSH2 0x1F97 JUMP JUMPDEST SWAP2 POP PUSH2 0x1DB7 DUP3 PUSH2 0x2205 JUMP JUMPDEST PUSH1 0x0 DUP3 ADD SWAP1 POP SWAP2 SWAP1 POP JUMP JUMPDEST PUSH2 0x1DCB DUP2 PUSH2 0x2059 JUMP JUMPDEST DUP3 MSTORE POP POP JUMP JUMPDEST PUSH1 0x0 PUSH2 0x1DDC DUP3 PUSH2 0x1D9F JUMP JUMPDEST SWAP2 POP DUP2 SWAP1 POP SWAP2 SWAP1 POP JUMP JUMPDEST PUSH1 0x0 PUSH1 0x20 DUP3 ADD SWAP1 POP PUSH2 0x1DFB PUSH1 0x0 DUP4 ADD DUP5 PUSH2 0x1C69 JUMP JUMPDEST SWAP3 SWAP2 POP POP JUMP JUMPDEST PUSH1 0x0 PUSH1 0x60 DUP3 ADD SWAP1 POP PUSH2 0x1E16 PUSH1 0x0 DUP4 ADD DUP7 PUSH2 0x1C69 JUMP JUMPDEST PUSH2 0x1E23 PUSH1 0x20 DUP4 ADD DUP6 PUSH2 0x1C69 JUMP JUMPDEST PUSH2 0x1E30 PUSH1 0x40 DUP4 ADD DUP5 PUSH2 0x1DC2 JUMP JUMPDEST SWAP5 SWAP4 POP POP POP POP JUMP JUMPDEST PUSH1 0x0 PUSH1 0x40 DUP3 ADD SWAP1 POP PUSH2 0x1E4D PUSH1 0x0 DUP4 ADD DUP6 PUSH2 0x1C69 JUMP JUMPDEST PUSH2 0x1E5A PUSH1 0x20 DUP4 ADD DUP5 PUSH2 0x1DC2 JUMP JUMPDEST SWAP4 SWAP3 POP POP POP JUMP JUMPDEST PUSH1 0x0 PUSH1 0x20 DUP3 ADD SWAP1 POP PUSH2 0x1E76 PUSH1 0x0 DUP4 ADD DUP5 PUSH2 0x1C78 JUMP JUMPDEST SWAP3 SWAP2 POP POP JUMP JUMPDEST PUSH1 0x0 PUSH1 0x20 DUP3 ADD SWAP1 POP DUP2 DUP2 SUB PUSH1 0x0 DUP4 ADD MSTORE PUSH2 0x1E95 DUP2 PUSH2 0x1C87 JUMP JUMPDEST SWAP1 POP SWAP2 SWAP1 POP JUMP JUMPDEST PUSH1 0x0 PUSH1 0x20 DUP3 ADD SWAP1 POP DUP2 DUP2 SUB PUSH1 0x0 DUP4 ADD MSTORE PUSH2 0x1EB5 DUP2 PUSH2 0x1CAA JUMP JUMPDEST SWAP1 POP SWAP2 SWAP1 POP JUMP JUMPDEST PUSH1 0x0 PUSH1 0x20 DUP3 ADD SWAP1 POP DUP2 DUP2 SUB PUSH1 0x0 DUP4 ADD MSTORE PUSH2 0x1ED5 DUP2 PUSH2 0x1CCD JUMP JUMPDEST SWAP1 POP SWAP2 SWAP1 POP JUMP JUMPDEST PUSH1 0x0 PUSH1 0x20 DUP3 ADD SWAP1 POP DUP2 DUP2 SUB PUSH1 0x0 DUP4 ADD MSTORE PUSH2 0x1EF5 DUP2 PUSH2 0x1CF0 JUMP JUMPDEST SWAP1 POP SWAP2 SWAP1 POP JUMP JUMPDEST PUSH1 0x0 PUSH1 0x20 DUP3 ADD SWAP1 POP DUP2 DUP2 SUB PUSH1 0x0 DUP4 ADD MSTORE PUSH2 0x1F15 DUP2 PUSH2 0x1D13 JUMP JUMPDEST SWAP1 POP SWAP2 SWAP1 POP JUMP JUMPDEST PUSH1 0x0 PUSH1 0x20 DUP3 ADD SWAP1 POP DUP2 DUP2 SUB PUSH1 0x0 DUP4 ADD MSTORE PUSH2 0x1F35 DUP2 PUSH2 0x1D36 JUMP JUMPDEST SWAP1 POP SWAP2 SWAP1 POP JUMP JUMPDEST PUSH1 0x0 PUSH1 0x20 DUP3 ADD SWAP1 POP DUP2 DUP2 SUB PUSH1 0x0 DUP4 ADD MSTORE PUSH2 0x1F55 DUP2 PUSH2 0x1D59 JUMP JUMPDEST SWAP1 POP SWAP2 SWAP1 POP JUMP JUMPDEST PUSH1 0x0 PUSH1 0x20 DUP3 ADD SWAP1 POP DUP2 DUP2 SUB PUSH1 0x0 DUP4 ADD MSTORE PUSH2 0x1F75 DUP2 PUSH2 0x1D7C JUMP JUMPDEST SWAP1 POP SWAP2 SWAP1 POP JUMP JUMPDEST PUSH1 0x0 PUSH1 0x20 DUP3 ADD SWAP1 POP PUSH2 0x1F91 PUSH1 0x0 DUP4 ADD DUP5 PUSH2 0x1DC2 JUMP JUMPDEST SWAP3 SWAP2 POP POP JUMP JUMPDEST PUSH1 0x0 DUP2 SWAP1 POP SWAP3 SWAP2 POP POP JUMP JUMPDEST PUSH1 0x0 DUP3 DUP3 MSTORE PUSH1 0x20 DUP3 ADD SWAP1 POP SWAP3 SWAP2 POP POP JUMP JUMPDEST PUSH1 0x0 PUSH2 0x1FBE DUP3 PUSH2 0x2059 JUMP JUMPDEST SWAP2 POP PUSH2 0x1FC9 DUP4 PUSH2 0x2059 JUMP JUMPDEST SWAP3 POP DUP3 PUSH32 0xFFFFFFFFFFFFFFFFFFFFFFFFFFFFFFFFFFFFFFFFFFFFFFFFFFFFFFFFFFFFFFFF SUB DUP3 GT ISZERO PUSH2 0x1FFE JUMPI PUSH2 0x1FFD PUSH2 0x2063 JUMP JUMPDEST JUMPDEST DUP3 DUP3 ADD SWAP1 POP SWAP3 SWAP2 POP POP JUMP JUMPDEST PUSH1 0x0 PUSH2 0x2014 DUP3 PUSH2 0x2039 JUMP JUMPDEST SWAP1 POP SWAP2 SWAP1 POP JUMP JUMPDEST PUSH1 0x0 PUSH2 0x2026 DUP3 PUSH2 0x2039 JUMP JUMPDEST SWAP1 POP SWAP2 SWAP1 POP JUMP JUMPDEST PUSH1 0x0 DUP2 ISZERO ISZERO SWAP1 POP SWAP2 SWAP1 POP JUMP JUMPDEST PUSH1 0x0 PUSH20 0xFFFFFFFFFFFFFFFFFFFFFFFFFFFFFFFFFFFFFFFF DUP3 AND SWAP1 POP SWAP2 SWAP1 POP JUMP JUMPDEST PUSH1 0x0 DUP2 SWAP1 POP SWAP2 SWAP1 POP JUMP JUMPDEST PUSH32 0x4E487B7100000000000000000000000000000000000000000000000000000000 PUSH1 0x0 MSTORE PUSH1 0x11 PUSH1 0x4 MSTORE PUSH1 0x24 PUSH1 0x0 REVERT JUMPDEST PUSH1 0x0 DUP1 REVERT JUMPDEST PUSH32 0x5661756C743A204E6F7420726563656976657200000000000000000000000000 PUSH1 0x0 DUP3 ADD MSTORE POP JUMP JUMPDEST PUSH32 0x5661756C743A20477261636520706572696F64206E6F74206F76657200000000 PUSH1 0x0 DUP3 ADD MSTORE POP JUMP JUMPDEST PUSH32 0x4F776E61626C653A206E6577206F776E657220697320746865207A65726F2061 PUSH1 0x0 DUP3 ADD MSTORE PUSH32 0x6464726573730000000000000000000000000000000000000000000000000000 PUSH1 0x20 DUP3 ADD MSTORE POP JUMP JUMPDEST PUSH32 0x4661696C656420746F2073656E64204574686572000000000000000000000000 PUSH1 0x0 DUP3 ADD MSTORE POP JUMP JUMPDEST PUSH32 0x5661756C743A20436F6E646974696F6E206E6F74206D65740000000000000000 PUSH1 0x0 DUP3 ADD MSTORE POP JUMP JUMPDEST PUSH32 0x5661756C743A20496E73756666696369656E742076616C756500000000000000 PUSH1 0x0 DUP3 ADD MSTORE POP JUMP JUMPDEST PUSH32 0x5661756C743A20464F5242494444454E00000000000000000000000000000000 PUSH1 0x0 DUP3 ADD MSTORE POP JUMP JUMPDEST PUSH32 0x4F776E61626C653A2063616C6C6572206973206E6F7420746865206F776E6572 PUSH1 0x0 DUP3 ADD MSTORE POP JUMP JUMPDEST POP JUMP JUMPDEST PUSH2 0x2211 DUP2 PUSH2 0x2009 JUMP JUMPDEST DUP2 EQ PUSH2 0x221C JUMPI PUSH1 0x0 DUP1 REVERT JUMPDEST POP JUMP JUMPDEST PUSH2 0x2228 DUP2 PUSH2 0x201B JUMP JUMPDEST DUP2 EQ PUSH2 0x2233 JUMPI PUSH1 0x0 DUP1 REVERT JUMPDEST POP JUMP JUMPDEST PUSH2 0x223F DUP2 PUSH2 0x202D JUMP JUMPDEST DUP2 EQ PUSH2 0x224A JUMPI PUSH1 0x0 DUP1 REVERT JUMPDEST POP JUMP JUMPDEST PUSH2 0x2256 DUP2 PUSH2 0x2059 JUMP JUMPDEST DUP2 EQ PUSH2 0x2261 JUMPI PUSH1 0x0 DUP1 REVERT JUMPDEST POP JUMP INVALID LOG2 PUSH5 0x6970667358 0x22 SLT KECCAK256 0xAD NUMBER 0xE1 0xB7 DUP13 0xD GASLIMIT 0xB3 0xB9 0xE3 0x4F ISZERO PUSH27 0xF8A4EA7D6463D169212A510843A93BE817EF3064736F6C63430008 SMOD STOP CALLER LOG2 PUSH5 0x6970667358 0x22 SLT KECCAK256 SWAP13 DUP13 PUSH3 0xFDC5FA 0xCC 0xCB 0x27 NOT 0x5D 0xC5 NOT 0x4B 0x4D PUSH32 0xFE992A3F7CC9BBAAE9A6B846FC753D1364736F6C634300080700330000000000 "
		},
		"gasEstimates": {
			"creation": {
				"codeDepositCost": "3499800",
				"executionCost": "infinite",
				"totalCost": "infinite"
			},
			"external": {
				"condition()": "4624",
				"conditionCounter()": "2475",
				"createVault(address,address)": "infinite",
				"denominator()": "2452",
				"getReceivers(uint256)": "infinite",
				"getTrusteeIds(address)": "infinite",
				"getVaults(uint256)": "2907",
				"judge(bool,uint256)": "infinite",
				"name()": "infinite",
				"numerator()": "2517",
				"owner()": "2611",
				"renounceOwnership()": "30397",
				"setTrustees(address[],uint256)": "infinite",
				"transferOwnership(address)": "30833",
				"trusteeOpinion(uint256)": "2886",
				"trustees(uint256)": "5001",
				"vaultNumber()": "2504"
			},
			"internal": {
				"_createVault(address,address)": "infinite"
			}
		},
		"methodIdentifiers": {
			"condition()": "c5031331",
			"conditionCounter()": "3d4bc4ba",
			"createVault(address,address)": "cc92d31c",
			"denominator()": "96ce0795",
			"getReceivers(uint256)": "be25a62c",
			"getTrusteeIds(address)": "a56fd152",
			"getVaults(uint256)": "468d16d0",
			"judge(bool,uint256)": "c09db123",
			"name()": "06fdde03",
			"numerator()": "ce5f9454",
			"owner()": "8da5cb5b",
			"renounceOwnership()": "715018a6",
			"setTrustees(address[],uint256)": "ba308cc4",
			"transferOwnership(address)": "f2fde38b",
			"trusteeOpinion(uint256)": "4c1fd3cd",
			"trustees(uint256)": "717d63a4",
			"vaultNumber()": "799a3f88"
		}
	},
	"abi": [
		{
			"inputs": [
				{
					"internalType": "string",
					"name": "name_",
					"type": "string"
				},
				{
					"internalType": "address",
					"name": "_owner",
					"type": "address"
				}
			],
			"stateMutability": "nonpayable",
			"type": "constructor"
		},
		{
			"anonymous": false,
			"inputs": [
				{
					"indexed": false,
					"internalType": "address",
					"name": "trustee",
					"type": "address"
				},
				{
					"indexed": false,
					"internalType": "bool",
					"name": "TF",
					"type": "bool"
				}
			],
			"name": "Judged",
			"type": "event"
		},
		{
			"anonymous": false,
			"inputs": [
				{
					"indexed": true,
					"internalType": "address",
					"name": "previousOwner",
					"type": "address"
				},
				{
					"indexed": true,
					"internalType": "address",
					"name": "newOwner",
					"type": "address"
				}
			],
			"name": "OwnershipTransferred",
			"type": "event"
		},
		{
			"anonymous": false,
			"inputs": [
				{
					"indexed": false,
					"internalType": "address",
					"name": "owner",
					"type": "address"
				},
				{
					"indexed": false,
					"internalType": "address",
					"name": "receiver",
					"type": "address"
				},
				{
					"indexed": false,
					"internalType": "address",
					"name": "vault",
					"type": "address"
				},
				{
					"indexed": false,
					"internalType": "uint256",
					"name": "vaultId",
					"type": "uint256"
				}
			],
			"name": "VaultCreated",
			"type": "event"
		},
		{
			"inputs": [],
			"name": "condition",
			"outputs": [
				{
					"internalType": "bool",
					"name": "",
					"type": "bool"
				}
			],
			"stateMutability": "view",
			"type": "function"
		},
		{
			"inputs": [],
			"name": "conditionCounter",
			"outputs": [
				{
					"internalType": "uint256",
					"name": "",
					"type": "uint256"
				}
			],
			"stateMutability": "view",
			"type": "function"
		},
		{
			"inputs": [
				{
					"internalType": "address",
					"name": "_owner",
					"type": "address"
				},
				{
					"internalType": "address",
					"name": "receiver",
					"type": "address"
				}
			],
			"name": "createVault",
			"outputs": [
				{
					"internalType": "address",
					"name": "vault",
					"type": "address"
				}
			],
			"stateMutability": "nonpayable",
			"type": "function"
		},
		{
			"inputs": [],
			"name": "denominator",
			"outputs": [
				{
					"internalType": "uint256",
					"name": "",
					"type": "uint256"
				}
			],
			"stateMutability": "view",
			"type": "function"
		},
		{
			"inputs": [
				{
					"internalType": "uint256",
					"name": "vaultId",
					"type": "uint256"
				}
			],
			"name": "getReceivers",
			"outputs": [
				{
					"internalType": "address",
					"name": "",
					"type": "address"
				}
			],
			"stateMutability": "view",
			"type": "function"
		},
		{
			"inputs": [
				{
					"internalType": "address",
					"name": "_trustee",
					"type": "address"
				}
			],
			"name": "getTrusteeIds",
			"outputs": [
				{
					"internalType": "uint256[]",
					"name": "",
					"type": "uint256[]"
				}
			],
			"stateMutability": "view",
			"type": "function"
		},
		{
			"inputs": [
				{
					"internalType": "uint256",
					"name": "",
					"type": "uint256"
				}
			],
			"name": "getVaults",
			"outputs": [
				{
					"internalType": "address",
					"name": "",
					"type": "address"
				}
			],
			"stateMutability": "view",
			"type": "function"
		},
		{
			"inputs": [
				{
					"internalType": "bool",
					"name": "TF",
					"type": "bool"
				},
				{
					"internalType": "uint256",
					"name": "trusteeId",
					"type": "uint256"
				}
			],
			"name": "judge",
			"outputs": [
				{
					"internalType": "uint256",
					"name": "",
					"type": "uint256"
				}
			],
			"stateMutability": "nonpayable",
			"type": "function"
		},
		{
			"inputs": [],
			"name": "name",
			"outputs": [
				{
					"internalType": "string",
					"name": "",
					"type": "string"
				}
			],
			"stateMutability": "view",
			"type": "function"
		},
		{
			"inputs": [],
			"name": "numerator",
			"outputs": [
				{
					"internalType": "uint256",
					"name": "",
					"type": "uint256"
				}
			],
			"stateMutability": "view",
			"type": "function"
		},
		{
			"inputs": [],
			"name": "owner",
			"outputs": [
				{
					"internalType": "address",
					"name": "",
					"type": "address"
				}
			],
			"stateMutability": "view",
			"type": "function"
		},
		{
			"inputs": [],
			"name": "renounceOwnership",
			"outputs": [],
			"stateMutability": "nonpayable",
			"type": "function"
		},
		{
			"inputs": [
				{
					"internalType": "address[]",
					"name": "_trustees",
					"type": "address[]"
				},
				{
					"internalType": "uint256",
					"name": "_numerator",
					"type": "uint256"
				}
			],
			"name": "setTrustees",
			"outputs": [],
			"stateMutability": "nonpayable",
			"type": "function"
		},
		{
			"inputs": [
				{
					"internalType": "address",
					"name": "newOwner",
					"type": "address"
				}
			],
			"name": "transferOwnership",
			"outputs": [],
			"stateMutability": "nonpayable",
			"type": "function"
		},
		{
			"inputs": [
				{
					"internalType": "uint256",
					"name": "",
					"type": "uint256"
				}
			],
			"name": "trusteeOpinion",
			"outputs": [
				{
					"internalType": "bool",
					"name": "",
					"type": "bool"
				}
			],
			"stateMutability": "view",
			"type": "function"
		},
		{
			"inputs": [
				{
					"internalType": "uint256",
					"name": "",
					"type": "uint256"
				}
			],
			"name": "trustees",
			"outputs": [
				{
					"internalType": "address",
					"name": "",
					"type": "address"
				}
			],
			"stateMutability": "view",
			"type": "function"
		},
		{
			"inputs": [],
			"name": "vaultNumber",
			"outputs": [
				{
					"internalType": "uint256",
					"name": "",
					"type": "uint256"
				}
			],
			"stateMutability": "view",
			"type": "function"
		}
	]
}